{
  "contractName": "Control",
  "abi": [
    {
      "constant": true,
      "inputs": [
        {
          "name": "",
          "type": "address"
        }
      ],
      "name": "owners",
      "outputs": [
        {
          "name": "",
          "type": "bool"
        }
      ],
      "payable": false,
      "stateMutability": "view",
      "type": "function"
    },
    {
      "inputs": [],
      "payable": false,
      "stateMutability": "nonpayable",
      "type": "constructor"
    },
    {
      "anonymous": false,
      "inputs": [
        {
          "indexed": true,
          "name": "previousOwner",
          "type": "address"
        }
      ],
      "name": "OwnershipRenounced",
      "type": "event"
    },
    {
      "anonymous": false,
      "inputs": [
        {
          "indexed": true,
          "name": "previousOwner",
          "type": "address"
        },
        {
          "indexed": true,
          "name": "newOwner",
          "type": "address"
        }
      ],
      "name": "OwnershipTransferred",
      "type": "event"
    },
    {
      "constant": false,
      "inputs": [],
      "name": "renounceOwnership",
      "outputs": [],
      "payable": false,
      "stateMutability": "nonpayable",
      "type": "function"
    }
  ],
  "bytecode": "0x608060405234801561001057600080fd5b50336000908152602081905260409020805460ff191660011790556101e98061003a6000396000f3fe60806040526004361061004b5763ffffffff7c0100000000000000000000000000000000000000000000000000000000600035041663022914a78114610050578063715018a6146100a4575b600080fd5b34801561005c57600080fd5b506100906004803603602081101561007357600080fd5b503573ffffffffffffffffffffffffffffffffffffffff166100bb565b604080519115158252519081900360200190f35b3480156100b057600080fd5b506100b96100d0565b005b60006020819052908152604090205460ff1681565b3360009081526020819052604090205460ff16151560011461017957604080517f08c379a000000000000000000000000000000000000000000000000000000000815260206004820152602b60248201527f74686973206163636f756e7420646f6573206e6f7420686176652061646d696e60448201527f2070726976696c65676573000000000000000000000000000000000000000000606482015290519081900360840190fd5b60405133907ff8df31144d9c2f0f6b59d69b8b98abd5459d07f2742c4df920b25aae33c6482090600090a2336000908152602081905260409020805460ff1916905556fea165627a7a72305820f207ac3b2a2bda715d40e2f7e0830275da99eaea020ed2c105c6bb8f05cc791b0029",
  "source": "pragma solidity ^0.5.0;\n\n\n/** @title Control */\ncontract Control {\n\n    ///@notice list of owners\n    mapping(address => bool) public owners;\n\n    event OwnershipRenounced(address indexed previousOwner);\n    event OwnershipTransferred(address indexed previousOwner, address indexed newOwner);\n\n    /**\n     * @dev The Control constructor sets the original `owner` of the contract to the sender account.\n     */\n    constructor() public {\n        owners[msg.sender] = true;\n    }\n\n    /**\n     * @dev Throws if called by any account other than the owner.\n     */\n    modifier onlyOwner() {\n        require(owners[msg.sender] == true, \"this account does not have admin privileges\");\n        _;\n    }\n\n    /**\n     * @dev Allows the current owner to relinquish control of the contract.\n     */\n    function renounceOwnership() external onlyOwner {\n        emit OwnershipRenounced(msg.sender);\n        owners[msg.sender] = false;\n    }\n\n}",
  "sourcePath": "/home/haythem96/Projects/Blockchain/Projects/Natanedu/smartcontractsdemo/contracts/utils/Control.sol",
  "compiler": {
    "name": "solc",
    "version": "0.5.0+commit.1d4f565a.Emscripten.clang"
  },
  "schemaVersion": "3.0.1",
  "updatedAt": "2019-01-26T18:18:03.050Z",
  "devdoc": {
    "methods": {
      "constructor": {
        "details": "The Control constructor sets the original `owner` of the contract to the sender account."
      },
      "renounceOwnership()": {
        "details": "Allows the current owner to relinquish control of the contract."
      }
    },
    "title": "Control "
  },
  "userdoc": {
    "methods": {}
  }
}