{
  "contractName": "NatanTeacher",
  "abi": [
    {
      "constant": true,
      "inputs": [
        {
          "name": "",
          "type": "address"
        }
      ],
      "name": "owners",
      "outputs": [
        {
          "name": "",
          "type": "bool"
        }
      ],
      "payable": false,
      "stateMutability": "view",
      "type": "function"
    },
    {
      "constant": true,
      "inputs": [
        {
          "name": "",
          "type": "uint256"
        }
      ],
      "name": "teachersAddress",
      "outputs": [
        {
          "name": "",
          "type": "address"
        }
      ],
      "payable": false,
      "stateMutability": "view",
      "type": "function"
    },
    {
      "constant": false,
      "inputs": [],
      "name": "renounceOwnership",
      "outputs": [],
      "payable": false,
      "stateMutability": "nonpayable",
      "type": "function"
    },
    {
      "constant": true,
      "inputs": [
        {
          "name": "",
          "type": "address"
        }
      ],
      "name": "listedTeachers",
      "outputs": [
        {
          "name": "",
          "type": "uint256"
        }
      ],
      "payable": false,
      "stateMutability": "view",
      "type": "function"
    },
    {
      "constant": true,
      "inputs": [
        {
          "name": "",
          "type": "address"
        }
      ],
      "name": "teacherBalance",
      "outputs": [
        {
          "name": "",
          "type": "uint256"
        }
      ],
      "payable": false,
      "stateMutability": "view",
      "type": "function"
    },
    {
      "constant": true,
      "inputs": [
        {
          "name": "",
          "type": "address"
        }
      ],
      "name": "teachers",
      "outputs": [
        {
          "name": "firstName",
          "type": "string"
        },
        {
          "name": "lastName",
          "type": "string"
        },
        {
          "name": "region",
          "type": "string"
        },
        {
          "name": "topic",
          "type": "string"
        },
        {
          "name": "language",
          "type": "string"
        },
        {
          "name": "minPrice",
          "type": "uint256"
        },
        {
          "name": "maxPrice",
          "type": "uint256"
        }
      ],
      "payable": false,
      "stateMutability": "view",
      "type": "function"
    },
    {
      "anonymous": false,
      "inputs": [
        {
          "indexed": true,
          "name": "teacher",
          "type": "address"
        }
      ],
      "name": "Transfer",
      "type": "event"
    },
    {
      "anonymous": false,
      "inputs": [
        {
          "indexed": true,
          "name": "teacher",
          "type": "address"
        }
      ],
      "name": "TeacherWhitelisted",
      "type": "event"
    },
    {
      "anonymous": false,
      "inputs": [
        {
          "indexed": true,
          "name": "teacher",
          "type": "address"
        }
      ],
      "name": "TeacherBlacklisted",
      "type": "event"
    },
    {
      "anonymous": false,
      "inputs": [
        {
          "indexed": true,
          "name": "teacher",
          "type": "address"
        }
      ],
      "name": "RegisteredTeacher",
      "type": "event"
    },
    {
      "anonymous": false,
      "inputs": [
        {
          "indexed": true,
          "name": "previousOwner",
          "type": "address"
        }
      ],
      "name": "OwnershipRenounced",
      "type": "event"
    },
    {
      "anonymous": false,
      "inputs": [
        {
          "indexed": true,
          "name": "previousOwner",
          "type": "address"
        },
        {
          "indexed": true,
          "name": "newOwner",
          "type": "address"
        }
      ],
      "name": "OwnershipTransferred",
      "type": "event"
    },
    {
      "constant": false,
      "inputs": [
        {
          "name": "_add",
          "type": "address"
        },
        {
          "name": "_name",
          "type": "string"
        },
        {
          "name": "_lastName",
          "type": "string"
        },
        {
          "name": "_region",
          "type": "string"
        },
        {
          "name": "_topic",
          "type": "string"
        },
        {
          "name": "_language",
          "type": "string"
        },
        {
          "name": "_minPrice",
          "type": "uint256"
        },
        {
          "name": "_maxPrice",
          "type": "uint256"
        }
      ],
      "name": "registerTeacher",
      "outputs": [],
      "payable": false,
      "stateMutability": "nonpayable",
      "type": "function"
    },
    {
      "constant": false,
      "inputs": [
        {
          "name": "_teacherAdd",
          "type": "address"
        }
      ],
      "name": "whiteListTeacher",
      "outputs": [],
      "payable": false,
      "stateMutability": "nonpayable",
      "type": "function"
    },
    {
      "constant": false,
      "inputs": [
        {
          "name": "_teacherAdd",
          "type": "address"
        }
      ],
      "name": "blackListTeacher",
      "outputs": [],
      "payable": false,
      "stateMutability": "nonpayable",
      "type": "function"
    },
    {
      "constant": true,
      "inputs": [
        {
          "name": "_topic",
          "type": "string"
        }
      ],
      "name": "getByTopic",
      "outputs": [
        {
          "name": "",
          "type": "address[]"
        }
      ],
      "payable": false,
      "stateMutability": "view",
      "type": "function"
    },
    {
      "constant": true,
      "inputs": [
        {
          "name": "_language",
          "type": "string"
        }
      ],
      "name": "getByLanguage",
      "outputs": [
        {
          "name": "",
          "type": "address[]"
        }
      ],
      "payable": false,
      "stateMutability": "view",
      "type": "function"
    },
    {
      "constant": true,
      "inputs": [
        {
          "name": "_topic",
          "type": "string"
        },
        {
          "name": "_language",
          "type": "string"
        }
      ],
      "name": "getByTopicLanguage",
      "outputs": [
        {
          "name": "",
          "type": "address[]"
        }
      ],
      "payable": false,
      "stateMutability": "view",
      "type": "function"
    },
    {
      "constant": true,
      "inputs": [],
      "name": "getTeachersCount",
      "outputs": [
        {
          "name": "",
          "type": "uint256"
        }
      ],
      "payable": false,
      "stateMutability": "view",
      "type": "function"
    }
  ],
  "bytecode": "0x60806040908152336000908152602081905220805460ff191660011790556123378061002c6000396000f3fe6080604052600436106100c45763ffffffff7c0100000000000000000000000000000000000000000000000000000000600035041663022914a781146100c95780630284ef38146101105780630909e248146101dd5780632667b14a146102125780634f2be468146104f757806363bad5ca1461053d578063715018a6146105705780637f72e4d214610585578063928a0276146105ca578063aa1db8f614610647578063aace71801461067a578063f0a47f781461068f578063ffcc563c146108e0575b600080fd5b3480156100d557600080fd5b506100fc600480360360208110156100ec57600080fd5b5035600160a060020a03166109af565b604080519115158252519081900360200190f35b34801561011c57600080fd5b5061018d6004803603602081101561013357600080fd5b81019060208101813564010000000081111561014e57600080fd5b82018360208201111561016057600080fd5b8035906020019184600183028401116401000000008311171561018257600080fd5b5090925090506109c4565b60408051602080825283518183015283519192839290830191858101910280838360005b838110156101c95781810151838201526020016101b1565b505050509050019250505060405180910390f35b3480156101e957600080fd5b506102106004803603602081101561020057600080fd5b5035600160a060020a0316610e5b565b005b34801561021e57600080fd5b50610210600480360361010081101561023657600080fd5b600160a060020a03823516919081019060408101602082013564010000000081111561026157600080fd5b82018360208201111561027357600080fd5b8035906020019184600183028401116401000000008311171561029557600080fd5b91908080601f01602080910402602001604051908101604052809392919081815260200183838082843760009201919091525092959493602081019350359150506401000000008111156102e857600080fd5b8201836020820111156102fa57600080fd5b8035906020019184600183028401116401000000008311171561031c57600080fd5b91908080601f016020809104026020016040519081016040528093929190818152602001838380828437600092019190915250929594936020810193503591505064010000000081111561036f57600080fd5b82018360208201111561038157600080fd5b803590602001918460018302840111640100000000831117156103a357600080fd5b91908080601f01602080910402602001604051908101604052809392919081815260200183838082843760009201919091525092959493602081019350359150506401000000008111156103f657600080fd5b82018360208201111561040857600080fd5b8035906020019184600183028401116401000000008311171561042a57600080fd5b91908080601f016020809104026020016040519081016040528093929190818152602001838380828437600092019190915250929594936020810193503591505064010000000081111561047d57600080fd5b82018360208201111561048f57600080fd5b803590602001918460018302840111640100000000831117156104b157600080fd5b91908080601f0160208091040260200160405190810160405280939291908181526020018383808284376000920191909152509295505082359350505060200135611029565b34801561050357600080fd5b506105216004803603602081101561051a57600080fd5b5035611276565b60408051600160a060020a039092168252519081900360200190f35b34801561054957600080fd5b506102106004803603602081101561056057600080fd5b5035600160a060020a031661129e565b34801561057c57600080fd5b5061021061146b565b34801561059157600080fd5b506105b8600480360360208110156105a857600080fd5b5035600160a060020a0316611541565b60408051918252519081900360200190f35b3480156105d657600080fd5b5061018d600480360360208110156105ed57600080fd5b81019060208101813564010000000081111561060857600080fd5b82018360208201111561061a57600080fd5b8035906020019184600183028401116401000000008311171561063c57600080fd5b509092509050611553565b34801561065357600080fd5b506105b86004803603602081101561066a57600080fd5b5035600160a060020a03166119e0565b34801561068657600080fd5b506105b86119f2565b34801561069b57600080fd5b506106c2600480360360208110156106b257600080fd5b5035600160a060020a03166119f9565b60405180806020018060200180602001806020018060200188815260200187815260200186810386528d818151815260200191508051906020019080838360005b8381101561071b578181015183820152602001610703565b50505050905090810190601f1680156107485780820380516001836020036101000a031916815260200191505b5086810385528c5181528c516020918201918e019080838360005b8381101561077b578181015183820152602001610763565b50505050905090810190601f1680156107a85780820380516001836020036101000a031916815260200191505b5086810384528b5181528b516020918201918d019080838360005b838110156107db5781810151838201526020016107c3565b50505050905090810190601f1680156108085780820380516001836020036101000a031916815260200191505b5086810383528a5181528a516020918201918c019080838360005b8381101561083b578181015183820152602001610823565b50505050905090810190601f1680156108685780820380516001836020036101000a031916815260200191505b5086810382528951815289516020918201918b019080838360005b8381101561089b578181015183820152602001610883565b50505050905090810190601f1680156108c85780820380516001836020036101000a031916815260200191505b509c5050505050505050505050505060405180910390f35b3480156108ec57600080fd5b5061018d6004803603604081101561090357600080fd5b81019060208101813564010000000081111561091e57600080fd5b82018360208201111561093057600080fd5b8035906020019184600183028401116401000000008311171561095257600080fd5b91939092909160208101903564010000000081111561097057600080fd5b82018360208201111561098257600080fd5b803590602001918460018302840111640100000000831117156109a457600080fd5b509092509050611cf1565b60006020819052908152604090205460ff1681565b6060806002805490506040519080825280602002602001820160405280156109f6578160200160208202803883390190505b5090506000805b600254811015610e5157610a0f612235565b60016000600284815481101515610a2257fe5b600091825260208083209190910154600160a060020a031683528281019390935260409182019020815181546002610100600183161581026000190190921604601f81018690049095028201810190935260e081018481529093919284928491840182828015610ad35780601f10610aa857610100808354040283529160200191610ad3565b820191906000526020600020905b815481529060010190602001808311610ab657829003601f168201915b50505050508152602001600182018054600181600116156101000203166002900480601f016020809104026020016040519081016040528092919081815260200182805460018160011615610100020316600290048015610b755780601f10610b4a57610100808354040283529160200191610b75565b820191906000526020600020905b815481529060010190602001808311610b5857829003601f168201915b5050509183525050600282810180546040805160206001841615610100026000190190931694909404601f81018390048302850183019091528084529381019390830182828015610c075780601f10610bdc57610100808354040283529160200191610c07565b820191906000526020600020905b815481529060010190602001808311610bea57829003601f168201915b505050918352505060038201805460408051602060026001851615610100026000190190941693909304601f8101849004840282018401909252818152938201939291830182828015610c9b5780601f10610c7057610100808354040283529160200191610c9b565b820191906000526020600020905b815481529060010190602001808311610c7e57829003601f168201915b505050918352505060048201805460408051602060026001851615610100026000190190941693909304601f8101849004840282018401909252818152938201939291830182828015610d2f5780601f10610d0457610100808354040283529160200191610d2f565b820191906000526020600020905b815481529060010190602001808311610d1257829003601f168201915b5050505050815260200160058201548152602001600682015481525050905086866040516020018083838082843780830192505050925050506040516020818303038152906040528051906020012081606001516040516020018082805190602001908083835b60208310610db55780518252601f199092019160209182019101610d96565b6001836020036101000a038019825116818451168082178552505050505050905001915050604051602081830303815290604052805190602001201415610e48576002805483908110610e0457fe5b6000918252602090912001548451600160a060020a0390911690859085908110610e2a57fe5b600160a060020a039092166020928302909101909101526001909201915b506001016109fd565b5090949350505050565b3360009081526020819052604090205460ff161515600114610eed576040805160e560020a62461bcd02815260206004820152602b60248201527f74686973206163636f756e7420646f6573206e6f7420686176652061646d696e60448201527f2070726976696c65676573000000000000000000000000000000000000000000606482015290519081900360840190fd5b600160a060020a0381161515610f4d576040805160e560020a62461bcd02815260206004820152600f60248201527f496e76616c696420616464726573730000000000000000000000000000000000604482015290519081900360640190fd5b600160a060020a03811660009081526003602052604090205460011480610f8c5750600160a060020a0381166000908152600360205260409020546002145b1515610fe2576040805160e560020a62461bcd02815260206004820152601260248201527f54656163686572206e6f7420666f756e64210000000000000000000000000000604482015290519081900360640190fd5b600160a060020a038116600081815260036020819052604080832091909155517f60809b1f44f4a1a1316cf3fc1e6b860494e214ec345ad91e5ba0254a01f5a2b19190a250565b600160a060020a0388161515611089576040805160e560020a62461bcd02815260206004820152600f60248201527f496e76616c696420616464726573730000000000000000000000000000000000604482015290519081900360640190fd5b600160a060020a038816600090815260036020526040902054156110f7576040805160e560020a62461bcd02815260206004820152601a60248201527f5465616368657220616c72656164792072656769737465726564000000000000604482015290519081900360640190fd5b6040805160e0810182528881526020808201899052818301889052606082018790526080820186905260a0820185905260c08201849052600160a060020a038b1660009081526001825292909220815180519293919261115a9284920190612273565b5060208281015180516111739260018501920190612273565b506040820151805161118f916002840191602090910190612273565b50606082015180516111ab916003840191602090910190612273565b50608082015180516111c7916004840191602090910190612273565b5060a0820151600582015560c090910151600690910155600280546001810182557f405787fa12a823e0f2b7631cc41b3ba8828b3321ca811111fa75cd3aa3bb5ace01805473ffffffffffffffffffffffffffffffffffffffff1916600160a060020a038b1690811790915560008181526003602052604080822093909355915190917e899eba62073a4a8b6878c7c1f8b7453a286cf4e095fa16a43e08d5235c9c7e91a25050505050505050565b600280548290811061128457fe5b600091825260209091200154600160a060020a0316905081565b3360009081526020819052604090205460ff161515600114611330576040805160e560020a62461bcd02815260206004820152602b60248201527f74686973206163636f756e7420646f6573206e6f7420686176652061646d696e60448201527f2070726976696c65676573000000000000000000000000000000000000000000606482015290519081900360840190fd5b600160a060020a0381161515611390576040805160e560020a62461bcd02815260206004820152600f60248201527f496e76616c696420616464726573730000000000000000000000000000000000604482015290519081900360640190fd5b600160a060020a03811660009081526003602081905260409091205414806113d05750600160a060020a0381166000908152600360205260409020546002145b1515611426576040805160e560020a62461bcd02815260206004820152601860248201527f54656163686572206973206e6f7420617661696c61626c650000000000000000604482015290519081900360640190fd5b600160a060020a03811660008181526003602052604080822060019055517f431ae4a4895e482440703d9da4a23b1bdf6055cd269d2be49db69a18e57674529190a250565b3360009081526020819052604090205460ff1615156001146114fd576040805160e560020a62461bcd02815260206004820152602b60248201527f74686973206163636f756e7420646f6573206e6f7420686176652061646d696e60448201527f2070726976696c65676573000000000000000000000000000000000000000000606482015290519081900360840190fd5b60405133907ff8df31144d9c2f0f6b59d69b8b98abd5459d07f2742c4df920b25aae33c6482090600090a2336000908152602081905260409020805460ff19169055565b60036020526000908152604090205481565b606080600280549050604051908082528060200260200182016040528015611585578160200160208202803883390190505b5090506000805b600254811015610e515761159e612235565b600160006002848154811015156115b157fe5b600091825260208083209190910154600160a060020a031683528281019390935260409182019020815181546002610100600183161581026000190190921604601f81018690049095028201810190935260e0810184815290939192849284918401828280156116625780601f1061163757610100808354040283529160200191611662565b820191906000526020600020905b81548152906001019060200180831161164557829003601f168201915b50505050508152602001600182018054600181600116156101000203166002900480601f0160208091040260200160405190810160405280929190818152602001828054600181600116156101000203166002900480156117045780601f106116d957610100808354040283529160200191611704565b820191906000526020600020905b8154815290600101906020018083116116e757829003601f168201915b5050509183525050600282810180546040805160206001841615610100026000190190931694909404601f810183900483028501830190915280845293810193908301828280156117965780601f1061176b57610100808354040283529160200191611796565b820191906000526020600020905b81548152906001019060200180831161177957829003601f168201915b505050918352505060038201805460408051602060026001851615610100026000190190941693909304601f810184900484028201840190925281815293820193929183018282801561182a5780601f106117ff5761010080835404028352916020019161182a565b820191906000526020600020905b81548152906001019060200180831161180d57829003601f168201915b505050918352505060048201805460408051602060026001851615610100026000190190941693909304601f81018490048402820184019092528181529382019392918301828280156118be5780601f10611893576101008083540402835291602001916118be565b820191906000526020600020905b8154815290600101906020018083116118a157829003601f168201915b5050505050815260200160058201548152602001600682015481525050905086866040516020018083838082843780830192505050925050506040516020818303038152906040528051906020012081608001516040516020018082805190602001908083835b602083106119445780518252601f199092019160209182019101611925565b6001836020036101000a0380198251168184511680821785525050505050509050019150506040516020818303038152906040528051906020012014156119d757600280548390811061199357fe5b6000918252602090912001548451600160a060020a03909116908590859081106119b957fe5b600160a060020a039092166020928302909101909101526001909201915b5060010161158c565b60046020526000908152604090205481565b6002545b90565b60016020818152600092835260409283902080548451600294821615610100026000190190911693909304601f8101839004830284018301909452838352928391830182828015611a8b5780601f10611a6057610100808354040283529160200191611a8b565b820191906000526020600020905b815481529060010190602001808311611a6e57829003601f168201915b505050505090806001018054600181600116156101000203166002900480601f016020809104026020016040519081016040528092919081815260200182805460018160011615610100020316600290048015611b295780601f10611afe57610100808354040283529160200191611b29565b820191906000526020600020905b815481529060010190602001808311611b0c57829003601f168201915b50505060028085018054604080516020601f6000196101006001871615020190941695909504928301859004850281018501909152818152959695945090925090830182828015611bbb5780601f10611b9057610100808354040283529160200191611bbb565b820191906000526020600020905b815481529060010190602001808311611b9e57829003601f168201915b5050505060038301805460408051602060026001851615610100026000190190941693909304601f8101849004840282018401909252818152949594935090830182828015611c4b5780601f10611c2057610100808354040283529160200191611c4b565b820191906000526020600020905b815481529060010190602001808311611c2e57829003601f168201915b5050505060048301805460408051602060026001851615610100026000190190941693909304601f8101849004840282018401909252818152949594935090830182828015611cdb5780601f10611cb057610100808354040283529160200191611cdb565b820191906000526020600020905b815481529060010190602001808311611cbe57829003601f168201915b5050505050908060050154908060060154905087565b606080600280549050604051908082528060200260200182016040528015611d23578160200160208202803883390190505b5090506000805b60025481101561222957611d3c612235565b60016000600284815481101515611d4f57fe5b600091825260208083209190910154600160a060020a031683528281019390935260409182019020815181546002610100600183161581026000190190921604601f81018690049095028201810190935260e081018481529093919284928491840182828015611e005780601f10611dd557610100808354040283529160200191611e00565b820191906000526020600020905b815481529060010190602001808311611de357829003601f168201915b50505050508152602001600182018054600181600116156101000203166002900480601f016020809104026020016040519081016040528092919081815260200182805460018160011615610100020316600290048015611ea25780601f10611e7757610100808354040283529160200191611ea2565b820191906000526020600020905b815481529060010190602001808311611e8557829003601f168201915b5050509183525050600282810180546040805160206001841615610100026000190190931694909404601f81018390048302850183019091528084529381019390830182828015611f345780601f10611f0957610100808354040283529160200191611f34565b820191906000526020600020905b815481529060010190602001808311611f1757829003601f168201915b505050918352505060038201805460408051602060026001851615610100026000190190941693909304601f8101849004840282018401909252818152938201939291830182828015611fc85780601f10611f9d57610100808354040283529160200191611fc8565b820191906000526020600020905b815481529060010190602001808311611fab57829003601f168201915b505050918352505060048201805460408051602060026001851615610100026000190190941693909304601f810184900484028201840190925281815293820193929183018282801561205c5780601f106120315761010080835404028352916020019161205c565b820191906000526020600020905b81548152906001019060200180831161203f57829003601f168201915b5050505050815260200160058201548152602001600682015481525050905088886040516020018083838082843780830192505050925050506040516020818303038152906040528051906020012081606001516040516020018082805190602001908083835b602083106120e25780518252601f1990920191602091820191016120c3565b6001836020036101000a038019825116818451168082178552505050505050905001915050604051602081830303815290604052805190602001201480156121c9575086866040516020018083838082843780830192505050925050506040516020818303038152906040528051906020012081608001516040516020018082805190602001908083835b6020831061218c5780518252601f19909201916020918201910161216d565b6001836020036101000a03801982511681845116808217855250505050505090500191505060405160208183030381529060405280519060200120145b156122205760028054839081106121dc57fe5b6000918252602090912001548451600160a060020a039091169085908590811061220257fe5b600160a060020a039092166020928302909101909101526001909201915b50600101611d2a565b50909695505050505050565b60e060405190810160405280606081526020016060815260200160608152602001606081526020016060815260200160008152602001600081525090565b828054600181600116156101000203166002900490600052602060002090601f016020900481019282601f106122b457805160ff19168380011785556122e1565b828001600101855582156122e1579182015b828111156122e15782518255916020019190600101906122c6565b506122ed9291506122f1565b5090565b6119f691905b808211156122ed57600081556001016122f756fea165627a7a7230582060589a75a159b30ee3eeb656b1aec8de740cbfee7bb3a7223c3d028c2e03bccf0029",
  "source": "pragma solidity ^0.5.0;\n\n\nimport \"./utils/SafeMath.sol\";\nimport \"./utils/Control.sol\";\n\n/** @title NatanTeacher */\ncontract NatanTeacher is Control {\n\n    using SafeMath for uint256;\n\n    ///@notice teacher structure\n    struct Teacher {\n        string firstName;\n        string lastName;\n        string region;\n        string topic;\n        string language;\n        uint256 minPrice;\n        uint256 maxPrice;\n    }\n\n    ///@notice List of teachers\n    mapping(address => Teacher) public teachers;\n\n    ///\n    address[] public teachersAddress;\n\n    ///@notice list of listed teachers: 1=blacklisted, 2=in process, 3=whitelisted\n    mapping(address => uint) public listedTeachers;\n\n    ///@notice list of teacher's balance\n    mapping(address => uint256) public teacherBalance;\n\n    event Transfer(address indexed teacher);\n    event TeacherWhitelisted(address indexed teacher);\n    event TeacherBlacklisted(address indexed teacher);\n    event RegisteredTeacher(address indexed teacher);\n\n    /**\n     * @dev register teacher\n     * @param _add teacher address\n     * @param _name teacher name\n     * @param _lastName teacher last name\n     * @param _region teacher region\n     * @param _topic teacher topic\n     */\n    function registerTeacher(\n        address _add,\n        string memory _name,\n        string memory _lastName,\n        string memory _region,\n        string memory _topic,\n        string memory _language,\n        uint256 _minPrice,\n        uint256 _maxPrice\n    ) public {\n        require(_add != address(0), \"Invalid address\");\n        require(listedTeachers[_add] == 0, \"Teacher already registered\");\n\n        //add teacher\n        teachers[_add] = Teacher(_name, _lastName, _region, _topic, _language, _minPrice, _maxPrice);\n        //save teacher address\n        teachersAddress.push(_add);\n        //mark teacher listing in progress\n        listedTeachers[_add] = 2;\n\n        emit RegisteredTeacher(_add);\n    }\n\n    /**\n     * @dev whitelist a teacher\n     * @param _teacherAdd address of teacher\n     */\n    function whiteListTeacher(address _teacherAdd) external onlyOwner {\n        //require valid address\n        require(_teacherAdd != address(0), \"Invalid address\");\n        require((listedTeachers[_teacherAdd] == 1) || (listedTeachers[_teacherAdd] == 2), \"Teacher not found!\");\n\n        //whitelist teacher\n        listedTeachers[_teacherAdd] = 3;\n\n        emit TeacherWhitelisted(_teacherAdd);\n    }\n\n    /**\n     * @dev blacklist a teacher\n     * @param _teacherAdd address of teacher\n     */\n    function blackListTeacher(address _teacherAdd) external onlyOwner {\n        //require valid address\n        require(_teacherAdd != address(0), \"Invalid address\");\n        //require that teacher is already whitelisted or in process\n        require((listedTeachers[_teacherAdd] == 3) || (listedTeachers[_teacherAdd] == 2), \"Teacher is not available\");\n\n        //blacklist teacher\n        listedTeachers[_teacherAdd] = 1;\n\n        emit TeacherBlacklisted(_teacherAdd);\n    }\n\n    /**\n     * @dev withdraw money\n     * @param _teacher teacher address\n     * @param _amount amount to transfer in Wei\n     */\n    function withdraw(address payable _teacher, uint _amount) internal {\n        _teacher.transfer(_amount);\n        teacherBalance[_teacher] = teacherBalance[_teacher].sub(_amount);\n\n        emit Transfer(_teacher);\n    }\n\n    /**\n     * @dev function that return teachers address for a specific topic\n     * @param _topic specific topic\n     * @return list of teachers addresses\n     */\n    function getByTopic(string calldata _topic) external view returns(address[] memory) {\n        address[] memory teacherByTopic = new address[](teachersAddress.length);\n        uint counter = 0;\n        for(uint i = 0; i < teachersAddress.length; i++) {\n            Teacher memory t = teachers[teachersAddress[i]];\n            if(keccak256(abi.encodePacked(t.topic)) == keccak256(abi.encodePacked(_topic))) {\n                teacherByTopic[counter] = teachersAddress[i];\n                counter++;\n            }\n        }\n        return teacherByTopic;\n    }\n\n    /**\n     * @dev function that return teachers address for a specific language\n     * @param _language specific language\n     * @return list of teachers addresses\n     */\n    function getByLanguage(string calldata _language) external view returns(address[] memory) {\n        address[] memory teacherByLanguage = new address[](teachersAddress.length);\n        uint counter = 0;\n        for(uint i = 0; i < teachersAddress.length; i++) {\n            Teacher memory t = teachers[teachersAddress[i]];\n            if(keccak256(abi.encodePacked(t.language)) == keccak256(abi.encodePacked(_language))) {\n                teacherByLanguage[counter] = teachersAddress[i];\n                counter++;\n            }\n        }\n        return teacherByLanguage;\n    }\n\n    /**\n     * @dev function that return teachers address for a specific topic and language\n     * @param _topic specific topic\n     * @param _language specific language\n     * @return list of teachers addresses\n     */\n    function getByTopicLanguage(string calldata _topic, string calldata _language) external view returns(address[] memory) {\n        address[] memory teachersByTopicAndLanguage = new address[](teachersAddress.length);\n        uint counter = 0;\n        for(uint i = 0; i < teachersAddress.length; i++) {\n            Teacher memory t = teachers[teachersAddress[i]];\n            if(\n                (keccak256(abi.encodePacked(t.topic)) == keccak256(abi.encodePacked(_topic))) &&\n                (keccak256(abi.encodePacked(t.language)) == keccak256(abi.encodePacked(_language)))\n            ) {\n                teachersByTopicAndLanguage[counter] = teachersAddress[i];\n                counter++;\n            }\n        }\n        return teachersByTopicAndLanguage;\n    }\n\n    /**\n     * @dev function that return number of teachers registered\n     * @return number of teachers\n     */\n    function getTeachersCount() external view returns (uint256) {\n        return teachersAddress.length;\n    }\n\n\n}\n",
  "sourcePath": "/home/haythem96/Projects/Blockchain/Projects/Natanedu/smartcontractsdemo/contracts/NatanTeacher.sol",
  "compiler": {
    "name": "solc",
    "version": "0.5.0+commit.1d4f565a.Emscripten.clang"
  },
  "schemaVersion": "3.0.1",
  "updatedAt": "2019-01-26T18:18:03.047Z",
  "devdoc": {
    "methods": {
      "blackListTeacher(address)": {
        "details": "blacklist a teacher",
        "params": {
          "_teacherAdd": "address of teacher"
        }
      },
      "getByLanguage(string)": {
        "details": "function that return teachers address for a specific language",
        "params": {
          "_language": "specific language"
        },
        "return": "list of teachers addresses"
      },
      "getByTopic(string)": {
        "details": "function that return teachers address for a specific topic",
        "params": {
          "_topic": "specific topic"
        },
        "return": "list of teachers addresses"
      },
      "getByTopicLanguage(string,string)": {
        "details": "function that return teachers address for a specific topic and language",
        "params": {
          "_language": "specific language",
          "_topic": "specific topic"
        },
        "return": "list of teachers addresses"
      },
      "getTeachersCount()": {
        "details": "function that return number of teachers registered",
        "return": "number of teachers"
      },
      "registerTeacher(address,string,string,string,string,string,uint256,uint256)": {
        "details": "register teacher",
        "params": {
          "_add": "teacher address",
          "_lastName": "teacher last name",
          "_name": "teacher name",
          "_region": "teacher region",
          "_topic": "teacher topic"
        }
      },
      "renounceOwnership()": {
        "details": "Allows the current owner to relinquish control of the contract."
      },
      "whiteListTeacher(address)": {
        "details": "whitelist a teacher",
        "params": {
          "_teacherAdd": "address of teacher"
        }
      }
    },
    "title": "NatanTeacher "
  },
  "userdoc": {
    "methods": {}
  }
}