{
  "contractName": "NatanLecture",
  "abi": [
    {
      "constant": true,
      "inputs": [
        {
          "name": "",
          "type": "address"
        }
      ],
      "name": "owners",
      "outputs": [
        {
          "name": "",
          "type": "bool"
        }
      ],
      "payable": false,
      "stateMutability": "view",
      "type": "function"
    },
    {
      "constant": false,
      "inputs": [
        {
          "name": "_teacherAdd",
          "type": "address"
        }
      ],
      "name": "whiteListTeacher",
      "outputs": [],
      "payable": false,
      "stateMutability": "nonpayable",
      "type": "function"
    },
    {
      "constant": false,
      "inputs": [
        {
          "name": "_add",
          "type": "address"
        },
        {
          "name": "_name",
          "type": "string"
        },
        {
          "name": "_lastName",
          "type": "string"
        }
      ],
      "name": "registerStudent",
      "outputs": [],
      "payable": false,
      "stateMutability": "nonpayable",
      "type": "function"
    },
    {
      "constant": false,
      "inputs": [
        {
          "name": "_add",
          "type": "address"
        },
        {
          "name": "_name",
          "type": "string"
        },
        {
          "name": "_lastName",
          "type": "string"
        },
        {
          "name": "_region",
          "type": "string"
        },
        {
          "name": "_topic",
          "type": "string"
        }
      ],
      "name": "registerTeacher",
      "outputs": [],
      "payable": false,
      "stateMutability": "nonpayable",
      "type": "function"
    },
    {
      "constant": false,
      "inputs": [
        {
          "name": "_teacherAdd",
          "type": "address"
        }
      ],
      "name": "blackListTeacher",
      "outputs": [],
      "payable": false,
      "stateMutability": "nonpayable",
      "type": "function"
    },
    {
      "constant": false,
      "inputs": [],
      "name": "renounceOwnership",
      "outputs": [],
      "payable": false,
      "stateMutability": "nonpayable",
      "type": "function"
    },
    {
      "constant": false,
      "inputs": [
        {
          "name": "_studentAdd",
          "type": "address"
        }
      ],
      "name": "blackListStudent",
      "outputs": [],
      "payable": false,
      "stateMutability": "nonpayable",
      "type": "function"
    },
    {
      "constant": true,
      "inputs": [
        {
          "name": "",
          "type": "address"
        }
      ],
      "name": "listedTeachers",
      "outputs": [
        {
          "name": "",
          "type": "uint256"
        }
      ],
      "payable": false,
      "stateMutability": "view",
      "type": "function"
    },
    {
      "constant": true,
      "inputs": [
        {
          "name": "",
          "type": "address"
        }
      ],
      "name": "listedStudents",
      "outputs": [
        {
          "name": "",
          "type": "uint256"
        }
      ],
      "payable": false,
      "stateMutability": "view",
      "type": "function"
    },
    {
      "constant": true,
      "inputs": [
        {
          "name": "",
          "type": "address"
        }
      ],
      "name": "students",
      "outputs": [
        {
          "name": "firstName",
          "type": "string"
        },
        {
          "name": "lastName",
          "type": "string"
        }
      ],
      "payable": false,
      "stateMutability": "view",
      "type": "function"
    },
    {
      "constant": true,
      "inputs": [
        {
          "name": "",
          "type": "address"
        }
      ],
      "name": "teacherBalance",
      "outputs": [
        {
          "name": "",
          "type": "uint256"
        }
      ],
      "payable": false,
      "stateMutability": "view",
      "type": "function"
    },
    {
      "constant": true,
      "inputs": [],
      "name": "lecturesId",
      "outputs": [
        {
          "name": "",
          "type": "uint256"
        }
      ],
      "payable": false,
      "stateMutability": "view",
      "type": "function"
    },
    {
      "constant": false,
      "inputs": [
        {
          "name": "_studentAdd",
          "type": "address"
        }
      ],
      "name": "whiteListStudent",
      "outputs": [],
      "payable": false,
      "stateMutability": "nonpayable",
      "type": "function"
    },
    {
      "constant": true,
      "inputs": [
        {
          "name": "",
          "type": "address"
        }
      ],
      "name": "teachers",
      "outputs": [
        {
          "name": "firstName",
          "type": "string"
        },
        {
          "name": "lastName",
          "type": "string"
        },
        {
          "name": "region",
          "type": "string"
        },
        {
          "name": "topic",
          "type": "string"
        }
      ],
      "payable": false,
      "stateMutability": "view",
      "type": "function"
    },
    {
      "anonymous": false,
      "inputs": [
        {
          "indexed": true,
          "name": "teacher",
          "type": "address"
        },
        {
          "indexed": true,
          "name": "student",
          "type": "address"
        },
        {
          "indexed": false,
          "name": "lectureId",
          "type": "uint256"
        }
      ],
      "name": "lecturePaid",
      "type": "event"
    },
    {
      "anonymous": false,
      "inputs": [
        {
          "indexed": true,
          "name": "teacher",
          "type": "address"
        }
      ],
      "name": "Transfer",
      "type": "event"
    },
    {
      "anonymous": false,
      "inputs": [
        {
          "indexed": true,
          "name": "teacher",
          "type": "address"
        }
      ],
      "name": "TeacherWhitelisted",
      "type": "event"
    },
    {
      "anonymous": false,
      "inputs": [
        {
          "indexed": true,
          "name": "teacher",
          "type": "address"
        }
      ],
      "name": "TeacherBlacklisted",
      "type": "event"
    },
    {
      "anonymous": false,
      "inputs": [
        {
          "indexed": true,
          "name": "teacher",
          "type": "address"
        }
      ],
      "name": "RegisteredTeacher",
      "type": "event"
    },
    {
      "anonymous": false,
      "inputs": [
        {
          "indexed": true,
          "name": "student",
          "type": "address"
        }
      ],
      "name": "StudentRegistered",
      "type": "event"
    },
    {
      "anonymous": false,
      "inputs": [
        {
          "indexed": true,
          "name": "student",
          "type": "address"
        }
      ],
      "name": "StudentWhitelisted",
      "type": "event"
    },
    {
      "anonymous": false,
      "inputs": [
        {
          "indexed": true,
          "name": "student",
          "type": "address"
        }
      ],
      "name": "StudentBlacklisted",
      "type": "event"
    },
    {
      "anonymous": false,
      "inputs": [
        {
          "indexed": true,
          "name": "previousOwner",
          "type": "address"
        }
      ],
      "name": "OwnershipRenounced",
      "type": "event"
    },
    {
      "anonymous": false,
      "inputs": [
        {
          "indexed": true,
          "name": "previousOwner",
          "type": "address"
        },
        {
          "indexed": true,
          "name": "newOwner",
          "type": "address"
        }
      ],
      "name": "OwnershipTransferred",
      "type": "event"
    },
    {
      "constant": false,
      "inputs": [],
      "name": "generateLectureId",
      "outputs": [
        {
          "name": "",
          "type": "uint256"
        }
      ],
      "payable": false,
      "stateMutability": "nonpayable",
      "type": "function"
    },
    {
      "constant": false,
      "inputs": [
        {
          "name": "_lectureId",
          "type": "uint256"
        },
        {
          "name": "_lecturePrice",
          "type": "uint256"
        },
        {
          "name": "_teacher",
          "type": "address"
        }
      ],
      "name": "payLecture",
      "outputs": [],
      "payable": true,
      "stateMutability": "payable",
      "type": "function"
    },
    {
      "constant": false,
      "inputs": [
        {
          "name": "_amount",
          "type": "uint256"
        }
      ],
      "name": "transfer",
      "outputs": [],
      "payable": false,
      "stateMutability": "nonpayable",
      "type": "function"
    }
  ],
  "bytecode": "0x6080604090815260006006819055338152602081905220805460ff191660011790556119d8806100306000396000f3006080604052600436106100f05763ffffffff7c0100000000000000000000000000000000000000000000000000000000600035041663022914a781146100f55780630909e2481461012a57806312514bba1461014d5780632ae7b900146101655780633351001b1461020a57806363bad5ca1461032b578063715018a61461034c57806372383696146103615780637f72e4d2146103825780639549af3e146103b55780639771ad28146103d6578063a6c807a9146103eb578063aa1db8f6146104ea578063dd317fde1461050b578063e49a5ab814610520578063f0a47f7814610541578063ffc883551461070c575b600080fd5b34801561010157600080fd5b50610116600160a060020a0360043516610726565b604080519115158252519081900360200190f35b34801561013657600080fd5b5061014b600160a060020a036004351661073b565b005b34801561015957600080fd5b5061014b6004356108d1565b34801561017157600080fd5b5060408051602060046024803582810135601f810185900485028601850190965285855261014b958335600160a060020a031695369560449491939091019190819084018382808284375050604080516020601f89358b018035918201839004830284018301909452808352979a9998810197919650918201945092508291508401838280828437509497506109ac9650505050505050565b34801561021657600080fd5b5060408051602060046024803582810135601f810185900485028601850190965285855261014b958335600160a060020a031695369560449491939091019190819084018382808284375050604080516020601f89358b018035918201839004830284018301909452808352979a99988101979196509182019450925082915084018382808284375050604080516020601f89358b018035918201839004830284018301909452808352979a99988101979196509182019450925082915084018382808284375050604080516020601f89358b018035918201839004830284018301909452808352979a999881019791965091820194509250829150840183828082843750949750610b0d9650505050505050565b34801561033757600080fd5b5061014b600160a060020a0360043516610cb3565b34801561035857600080fd5b5061014b610e49565b34801561036d57600080fd5b5061014b600160a060020a0360043516610efb565b34801561038e57600080fd5b506103a3600160a060020a0360043516611092565b60408051918252519081900360200190f35b3480156103c157600080fd5b506103a3600160a060020a03600435166110a4565b3480156103e257600080fd5b506103a36110b6565b3480156103f757600080fd5b5061040c600160a060020a03600435166110d8565b604051808060200180602001838103835285818151815260200191508051906020019080838360005b8381101561044d578181015183820152602001610435565b50505050905090810190601f16801561047a5780820380516001836020036101000a031916815260200191505b50838103825284518152845160209182019186019080838360005b838110156104ad578181015183820152602001610495565b50505050905090810190601f1680156104da5780820380516001836020036101000a031916815260200191505b5094505050505060405180910390f35b3480156104f657600080fd5b506103a3600160a060020a0360043516611212565b34801561051757600080fd5b506103a3611224565b34801561052c57600080fd5b5061014b600160a060020a036004351661122a565b34801561054d57600080fd5b50610562600160a060020a03600435166113c1565b6040518080602001806020018060200180602001858103855289818151815260200191508051906020019080838360005b838110156105ab578181015183820152602001610593565b50505050905090810190601f1680156105d85780820380516001836020036101000a031916815260200191505b5085810384528851815288516020918201918a019080838360005b8381101561060b5781810151838201526020016105f3565b50505050905090810190601f1680156106385780820380516001836020036101000a031916815260200191505b50858103835287518152875160209182019189019080838360005b8381101561066b578181015183820152602001610653565b50505050905090810190601f1680156106985780820380516001836020036101000a031916815260200191505b50858103825286518152865160209182019188019080838360005b838110156106cb5781810151838201526020016106b3565b50505050905090810190601f1680156106f85780820380516001836020036101000a031916815260200191505b509850505050505050505060405180910390f35b61014b600435602435600160a060020a0360443516611622565b60006020819052908152604090205460ff1681565b3360009081526020819052604090205460ff1615156001146107a9576040805160e560020a62461bcd02815260206004820152602b602482015260008051602061196d833981519152604482015260008051602061198d833981519152606482015290519081900360840190fd5b600160a060020a03811615156107f7576040805160e560020a62461bcd02815260206004820152600f602482015260008051602061194d833981519152604482015290519081900360640190fd5b600160a060020a038116600090815260046020526040902054600114806108365750600160a060020a0381166000908152600460205260409020546002145b151561088c576040805160e560020a62461bcd02815260206004820152601260248201527f54656163686572206e6f7420666f756e64210000000000000000000000000000604482015290519081900360640190fd5b600160a060020a03811660008181526004602052604080822060039055517f60809b1f44f4a1a1316cf3fc1e6b860494e214ec345ad91e5ba0254a01f5a2b19190a250565b33600090815260046020526040902054600314610938576040805160e560020a62461bcd02815260206004820152601660248201527f54656163686572206e6f7420617574686f72697a656400000000000000000000604482015290519081900360640190fd5b3360009081526005602052604090205481111561099f576040805160e560020a62461bcd02815260206004820152601f60248201527f546561636865722062616c616e636520697320696e73756666696369656e7400604482015290519081900360640190fd5b6109a933826117e7565b50565b600160a060020a03831615156109fa576040805160e560020a62461bcd02815260206004820152600f602482015260008051602061194d833981519152604482015290519081900360640190fd5b600160a060020a03831660009081526002602052604090205415610a68576040805160e560020a62461bcd02815260206004820152601a60248201527f53747564656e7420616c72656164792072656769737465726564000000000000604482015290519081900360640190fd5b6040805180820182528381526020808201849052600160a060020a038616600090815260018252929092208151805192939192610aa892849201906118b4565b506020828101518051610ac192600185019201906118b4565b505050600160a060020a038316600081815260026020819052604080832091909155517f413281c709cf2c555b5d6d90e43f841b9ed7d34daa82e221aedbb3773082fcc89190a2505050565b600160a060020a0385161515610b5b576040805160e560020a62461bcd02815260206004820152600f602482015260008051602061194d833981519152604482015290519081900360640190fd5b600160a060020a03851660009081526004602052604090205415610bc9576040805160e560020a62461bcd02815260206004820152601a60248201527f5465616368657220616c72656164792072656769737465726564000000000000604482015290519081900360640190fd5b60408051608081018252858152602080820186905281830185905260608201849052600160a060020a038816600090815260038252929092208151805192939192610c1792849201906118b4565b506020828101518051610c3092600185019201906118b4565b5060408201518051610c4c9160028401916020909101906118b4565b5060608201518051610c689160038401916020909101906118b4565b505050600160a060020a03851660008181526004602052604080822060029055517e899eba62073a4a8b6878c7c1f8b7453a286cf4e095fa16a43e08d5235c9c7e9190a25050505050565b3360009081526020819052604090205460ff161515600114610d21576040805160e560020a62461bcd02815260206004820152602b602482015260008051602061196d833981519152604482015260008051602061198d833981519152606482015290519081900360840190fd5b600160a060020a0381161515610d6f576040805160e560020a62461bcd02815260206004820152600f602482015260008051602061194d833981519152604482015290519081900360640190fd5b600160a060020a03811660009081526004602052604090205460031480610dae5750600160a060020a0381166000908152600460205260409020546002145b1515610e04576040805160e560020a62461bcd02815260206004820152601860248201527f54656163686572206973206e6f7420617661696c61626c650000000000000000604482015290519081900360640190fd5b600160a060020a03811660008181526004602052604080822060019055517f431ae4a4895e482440703d9da4a23b1bdf6055cd269d2be49db69a18e57674529190a250565b3360009081526020819052604090205460ff161515600114610eb7576040805160e560020a62461bcd02815260206004820152602b602482015260008051602061196d833981519152604482015260008051602061198d833981519152606482015290519081900360840190fd5b60405133907ff8df31144d9c2f0f6b59d69b8b98abd5459d07f2742c4df920b25aae33c6482090600090a2336000908152602081905260409020805460ff19169055565b3360009081526020819052604090205460ff161515600114610f69576040805160e560020a62461bcd02815260206004820152602b602482015260008051602061196d833981519152604482015260008051602061198d833981519152606482015290519081900360840190fd5b600160a060020a0381161515610fb7576040805160e560020a62461bcd02815260206004820152600f602482015260008051602061194d833981519152604482015290519081900360640190fd5b600160a060020a03811660009081526002602052604090205460031480610ff75750600160a060020a038116600090815260026020819052604090912054145b151561104d576040805160e560020a62461bcd02815260206004820152601860248201527f73747564656e74206973206e6f7420617661696c61626c650000000000000000604482015290519081900360640190fd5b600160a060020a03811660008181526002602052604080822060019055517fb158cb7e7ade33a18d48ec08211faabea461b04f67ac4cf80ba84e6fc54b11f09190a250565b60046020526000908152604090205481565b60026020526000908152604090205481565b6006546000906110cd90600163ffffffff61188f16565b600681905590505b90565b60016020818152600092835260409283902080548451600294821615610100026000190190911693909304601f810183900483028401830190945283835292839183018282801561116a5780601f1061113f5761010080835404028352916020019161116a565b820191906000526020600020905b81548152906001019060200180831161114d57829003601f168201915b505050505090806001018054600181600116156101000203166002900480601f0160208091040260200160405190810160405280929190818152602001828054600181600116156101000203166002900480156112085780601f106111dd57610100808354040283529160200191611208565b820191906000526020600020905b8154815290600101906020018083116111eb57829003601f168201915b5050505050905082565b60056020526000908152604090205481565b60065481565b3360009081526020819052604090205460ff161515600114611298576040805160e560020a62461bcd02815260206004820152602b602482015260008051602061196d833981519152604482015260008051602061198d833981519152606482015290519081900360840190fd5b600160a060020a03811615156112e6576040805160e560020a62461bcd02815260206004820152600f602482015260008051602061194d833981519152604482015290519081900360640190fd5b600160a060020a038116600090815260026020526040902054600114806113265750600160a060020a038116600090815260026020819052604090912054145b151561137c576040805160e560020a62461bcd02815260206004820152601260248201527f53747564656e74206e6f7420666f756e64210000000000000000000000000000604482015290519081900360640190fd5b600160a060020a03811660008181526002602052604080822060039055517f79e4f6717fda32586e7b681a3af995b1f8a0af92c8c50c0d46866962f1bb83f09190a250565b60036020908152600091825260409182902080548351601f600260001961010060018616150201909316929092049182018490048402810184019094528084529092918391908301828280156114585780601f1061142d57610100808354040283529160200191611458565b820191906000526020600020905b81548152906001019060200180831161143b57829003601f168201915b505050505090806001018054600181600116156101000203166002900480601f0160208091040260200160405190810160405280929190818152602001828054600181600116156101000203166002900480156114f65780601f106114cb576101008083540402835291602001916114f6565b820191906000526020600020905b8154815290600101906020018083116114d957829003601f168201915b50505060028085018054604080516020601f60001961010060018716150201909416959095049283018590048502810185019091528181529596959450909250908301828280156115885780601f1061155d57610100808354040283529160200191611588565b820191906000526020600020905b81548152906001019060200180831161156b57829003601f168201915b5050505060038301805460408051602060026001851615610100026000190190941693909304601f81018490048402820184019092528181529495949350908301828280156116185780601f106115ed57610100808354040283529160200191611618565b820191906000526020600020905b8154815290600101906020018083116115fb57829003601f168201915b5050505050905084565b34821461169f576040805160e560020a62461bcd02815260206004820152602e60248201527f696e73756666696369656e7420616d6f756e74206f6620657468657220666f7260448201527f206c656374757265207072696365000000000000000000000000000000000000606482015290519081900360840190fd5b600160a060020a03811615156116ff576040805160e560020a62461bcd02815260206004820152601760248201527f696e76616c696420746561636865722061646472657373000000000000000000604482015290519081900360640190fd5b600160a060020a03811660009081526004602052604090205460031461176f576040805160e560020a62461bcd02815260206004820152601160248201527f74656163686572206e6f7420666f756e64000000000000000000000000000000604482015290519081900360640190fd5b600083815260076020908152604080832033808552908352818420805460ff19166001179055600160a060020a0385168085526005845293829020805434019055815187815291519093927f0d6bf6e43205c432532b19e5291ba088ae756474670de6eb826382badf833402928290030190a3505050565b604051600160a060020a0383169082156108fc029083906000818181858888f1935050505015801561181d573d6000803e3d6000fd5b50600160a060020a038216600090815260056020526040902054611847908263ffffffff6118a216565b600160a060020a03831660008181526005602052604080822093909355915190917f2d339b1e3334d3f43e7aa6d5b1fa3ca5e4228b2dd547d1710c726019d98e53fa91a25050565b8181018281101561189c57fe5b92915050565b6000828211156118ae57fe5b50900390565b828054600181600116156101000203166002900490600052602060002090601f016020900481019282601f106118f557805160ff1916838001178555611922565b82800160010185558215611922579182015b82811115611922578251825591602001919060010190611907565b5061192e929150611932565b5090565b6110d591905b8082111561192e57600081556001016119385600496e76616c69642061646472657373000000000000000000000000000000000074686973206163636f756e7420646f6573206e6f7420686176652061646d696e2070726976696c65676573000000000000000000000000000000000000000000a165627a7a72305820a50ebf7352cc7eeacb3433ba6b7de7d5267e97fa0c523fc05cc6359eeb3140c80029",
  "source": "pragma solidity 0.4.24;\n\nimport \"./utils/SafeMath.sol\";\nimport \"./NatanStudent.sol\";\nimport \"./NatanTeacher.sol\";\n\n/** @title NatanLecture */\ncontract NatanLecture is NatanStudent, NatanTeacher {\n\n    using SafeMath for uint256;\n\n    ///@notice lecture id counter\n    uint256 public lecturesId = 0; \n\n    ///@notice list of paid lectures\n    mapping(uint => mapping(address => bool)) paidLecture; \n    ///@notice list of recorded lectures on IPFS    \n    mapping(uint => bytes) recordedLecture;             \n    ///@notice list of lectures owners       \n    mapping(uint => mapping(address => bool)) accessLecture;\n\n    event lecturePaid(address indexed teacher, address indexed student, uint256 lectureId);    \n\n    /**\n     * @dev generate lecture id\n     * @return lecturesId lecture id\n     */\n    function generateLectureId() public returns (uint256) {\n        lecturesId = lecturesId.add(1);\n        return lecturesId;\n    }\n\n    /**\n     * @dev pay for lecture\n     * @param _lectureId id of lecture\n     * @param _lecturePrice price of lecture\n     * @param _teacher address of the lecture's teacher\n     */\n    function payLecture(uint _lectureId, uint _lecturePrice, address _teacher) public payable {\n        require(msg.value == _lecturePrice, \"insufficient amount of ether for lecture price\");\n        require(_teacher != address(0), \"invalid teacher address\");\n        require(listedTeachers[_teacher] == 3, \"teacher not found\");\n\n        paidLecture[_lectureId][msg.sender] = true;\n        teacherBalance[_teacher] += msg.value;\n\n        emit lecturePaid(_teacher, msg.sender, _lectureId);\n    }\n\n    /**\n     * @dev store IPFS hash of a recorded lecture\n     * @param _lectureId id of lecture\n     * @param _ipfsHash IPFS hash\n     */\n    function saveRecordedLecture(uint _lectureId, bytes memory _ipfsHash) internal {\n        recordedLecture[_lectureId] = _ipfsHash;\n        //restrict lecture access\n        accessLecture[_lectureId][msg.sender] = true;\n    }\n\n    /**\n     * @dev get IPFS hash of a recorded lecture\n     * @param _lectureId id of lecture\n     * @return IPFS hash\n     */\n    function getRecordedLecture(uint _lectureId) internal view returns(bytes memory) {\n        require(accessLecture[_lectureId][msg.sender], \"no permission to access this lecture\");\n        return recordedLecture[_lectureId];\n    }\n\n    /**\n     * @dev tranfer money to specified teacher address\n     * @param _amount amount to transfer in Wei\n     */\n    function transfer(uint _amount) public {\n        require(listedTeachers[msg.sender] == 3, \"Teacher not authorized\");\n        require(teacherBalance[msg.sender] >= _amount, \"Teacher balance is insufficient\");\n\n        withdraw(msg.sender, _amount);\n    }\n\n}\n",
  "sourcePath": "/home/haythem96/Projects/Blockchain/Projects/Natanedu/smartcontractsdemo/contracts/NatanLecture.sol",
  "compiler": {
    "name": "solc",
    "version": "0.4.24+commit.e67f0147.Emscripten.clang"
  },
  "schemaVersion": "2.0.1",
  "updatedAt": "2018-12-04T13:44:03.922Z"
}