{
  "contractName": "NatanLecture",
  "abi": [
    {
      "constant": true,
      "inputs": [
        {
          "name": "",
          "type": "address"
        }
      ],
      "name": "owners",
      "outputs": [
        {
          "name": "",
          "type": "bool"
        }
      ],
      "payable": false,
      "stateMutability": "view",
      "type": "function"
    },
    {
      "constant": true,
      "inputs": [
        {
          "name": "_topic",
          "type": "string"
        }
      ],
      "name": "getByTopic",
      "outputs": [
        {
          "name": "",
          "type": "address[]"
        }
      ],
      "payable": false,
      "stateMutability": "view",
      "type": "function"
    },
    {
      "constant": false,
      "inputs": [
        {
          "name": "_teacherAdd",
          "type": "address"
        }
      ],
      "name": "whiteListTeacher",
      "outputs": [],
      "payable": false,
      "stateMutability": "nonpayable",
      "type": "function"
    },
    {
      "constant": false,
      "inputs": [
        {
          "name": "_add",
          "type": "address"
        },
        {
          "name": "_name",
          "type": "string"
        },
        {
          "name": "_lastName",
          "type": "string"
        }
      ],
      "name": "registerStudent",
      "outputs": [],
      "payable": false,
      "stateMutability": "nonpayable",
      "type": "function"
    },
    {
      "constant": false,
      "inputs": [
        {
          "name": "_add",
          "type": "address"
        },
        {
          "name": "_name",
          "type": "string"
        },
        {
          "name": "_lastName",
          "type": "string"
        },
        {
          "name": "_region",
          "type": "string"
        },
        {
          "name": "_topic",
          "type": "string"
        }
      ],
      "name": "registerTeacher",
      "outputs": [],
      "payable": false,
      "stateMutability": "nonpayable",
      "type": "function"
    },
    {
      "constant": true,
      "inputs": [
        {
          "name": "",
          "type": "uint256"
        }
      ],
      "name": "teachersAddress",
      "outputs": [
        {
          "name": "",
          "type": "address"
        }
      ],
      "payable": false,
      "stateMutability": "view",
      "type": "function"
    },
    {
      "constant": false,
      "inputs": [
        {
          "name": "_teacherAdd",
          "type": "address"
        }
      ],
      "name": "blackListTeacher",
      "outputs": [],
      "payable": false,
      "stateMutability": "nonpayable",
      "type": "function"
    },
    {
      "constant": false,
      "inputs": [],
      "name": "renounceOwnership",
      "outputs": [],
      "payable": false,
      "stateMutability": "nonpayable",
      "type": "function"
    },
    {
      "constant": false,
      "inputs": [
        {
          "name": "_studentAdd",
          "type": "address"
        }
      ],
      "name": "blackListStudent",
      "outputs": [],
      "payable": false,
      "stateMutability": "nonpayable",
      "type": "function"
    },
    {
      "constant": true,
      "inputs": [
        {
          "name": "",
          "type": "address"
        }
      ],
      "name": "listedTeachers",
      "outputs": [
        {
          "name": "",
          "type": "uint256"
        }
      ],
      "payable": false,
      "stateMutability": "view",
      "type": "function"
    },
    {
      "constant": true,
      "inputs": [
        {
          "name": "",
          "type": "address"
        }
      ],
      "name": "listedStudents",
      "outputs": [
        {
          "name": "",
          "type": "uint256"
        }
      ],
      "payable": false,
      "stateMutability": "view",
      "type": "function"
    },
    {
      "constant": true,
      "inputs": [
        {
          "name": "",
          "type": "address"
        }
      ],
      "name": "students",
      "outputs": [
        {
          "name": "firstName",
          "type": "string"
        },
        {
          "name": "lastName",
          "type": "string"
        }
      ],
      "payable": false,
      "stateMutability": "view",
      "type": "function"
    },
    {
      "constant": true,
      "inputs": [
        {
          "name": "",
          "type": "address"
        }
      ],
      "name": "teacherBalance",
      "outputs": [
        {
          "name": "",
          "type": "uint256"
        }
      ],
      "payable": false,
      "stateMutability": "view",
      "type": "function"
    },
    {
      "constant": true,
      "inputs": [],
      "name": "lecturesId",
      "outputs": [
        {
          "name": "",
          "type": "uint256"
        }
      ],
      "payable": false,
      "stateMutability": "view",
      "type": "function"
    },
    {
      "constant": false,
      "inputs": [
        {
          "name": "_studentAdd",
          "type": "address"
        }
      ],
      "name": "whiteListStudent",
      "outputs": [],
      "payable": false,
      "stateMutability": "nonpayable",
      "type": "function"
    },
    {
      "constant": true,
      "inputs": [
        {
          "name": "",
          "type": "address"
        }
      ],
      "name": "teachers",
      "outputs": [
        {
          "name": "firstName",
          "type": "string"
        },
        {
          "name": "lastName",
          "type": "string"
        },
        {
          "name": "region",
          "type": "string"
        },
        {
          "name": "topic",
          "type": "string"
        }
      ],
      "payable": false,
      "stateMutability": "view",
      "type": "function"
    },
    {
      "anonymous": false,
      "inputs": [
        {
          "indexed": true,
          "name": "teacher",
          "type": "address"
        },
        {
          "indexed": true,
          "name": "student",
          "type": "address"
        },
        {
          "indexed": false,
          "name": "lectureId",
          "type": "uint256"
        }
      ],
      "name": "lecturePaid",
      "type": "event"
    },
    {
      "anonymous": false,
      "inputs": [
        {
          "indexed": true,
          "name": "teacher",
          "type": "address"
        }
      ],
      "name": "Transfer",
      "type": "event"
    },
    {
      "anonymous": false,
      "inputs": [
        {
          "indexed": true,
          "name": "teacher",
          "type": "address"
        }
      ],
      "name": "TeacherWhitelisted",
      "type": "event"
    },
    {
      "anonymous": false,
      "inputs": [
        {
          "indexed": true,
          "name": "teacher",
          "type": "address"
        }
      ],
      "name": "TeacherBlacklisted",
      "type": "event"
    },
    {
      "anonymous": false,
      "inputs": [
        {
          "indexed": true,
          "name": "teacher",
          "type": "address"
        }
      ],
      "name": "RegisteredTeacher",
      "type": "event"
    },
    {
      "anonymous": false,
      "inputs": [
        {
          "indexed": true,
          "name": "student",
          "type": "address"
        }
      ],
      "name": "StudentRegistered",
      "type": "event"
    },
    {
      "anonymous": false,
      "inputs": [
        {
          "indexed": true,
          "name": "student",
          "type": "address"
        }
      ],
      "name": "StudentWhitelisted",
      "type": "event"
    },
    {
      "anonymous": false,
      "inputs": [
        {
          "indexed": true,
          "name": "student",
          "type": "address"
        }
      ],
      "name": "StudentBlacklisted",
      "type": "event"
    },
    {
      "anonymous": false,
      "inputs": [
        {
          "indexed": true,
          "name": "previousOwner",
          "type": "address"
        }
      ],
      "name": "OwnershipRenounced",
      "type": "event"
    },
    {
      "anonymous": false,
      "inputs": [
        {
          "indexed": true,
          "name": "previousOwner",
          "type": "address"
        },
        {
          "indexed": true,
          "name": "newOwner",
          "type": "address"
        }
      ],
      "name": "OwnershipTransferred",
      "type": "event"
    },
    {
      "constant": false,
      "inputs": [],
      "name": "generateLectureId",
      "outputs": [
        {
          "name": "",
          "type": "uint256"
        }
      ],
      "payable": false,
      "stateMutability": "nonpayable",
      "type": "function"
    },
    {
      "constant": false,
      "inputs": [
        {
          "name": "_lectureId",
          "type": "uint256"
        },
        {
          "name": "_lecturePrice",
          "type": "uint256"
        },
        {
          "name": "_teacher",
          "type": "address"
        }
      ],
      "name": "payLecture",
      "outputs": [],
      "payable": true,
      "stateMutability": "payable",
      "type": "function"
    },
    {
      "constant": false,
      "inputs": [
        {
          "name": "_amount",
          "type": "uint256"
        }
      ],
      "name": "transfer",
      "outputs": [],
      "payable": false,
      "stateMutability": "nonpayable",
      "type": "function"
    }
  ],
  "bytecode": "0x6080604090815260006007819055338152602081905220805460ff19166001179055611fed806100306000396000f3006080604052600436106101065763ffffffff7c0100000000000000000000000000000000000000000000000000000000600035041663022914a7811461010b5780630284ef38146101405780630909e248146101b057806312514bba146101d35780632ae7b900146101eb5780633351001b146102905780634f2be468146103b157806363bad5ca146103e5578063715018a614610406578063723836961461041b5780637f72e4d21461043c5780639549af3e1461046f5780639771ad2814610490578063a6c807a9146104a5578063aa1db8f6146105a4578063dd317fde146105c5578063e49a5ab8146105da578063f0a47f78146105fb578063ffc88355146107c6575b600080fd5b34801561011757600080fd5b5061012c600160a060020a03600435166107e0565b604080519115158252519081900360200190f35b34801561014c57600080fd5b5061016060048035602481019101356107f5565b60408051602080825283518183015283519192839290830191858101910280838360005b8381101561019c578181015183820152602001610184565b505050509050019250505060405180910390f35b3480156101bc57600080fd5b506101d1600160a060020a0360043516610c95565b005b3480156101df57600080fd5b506101d1600435610e2b565b3480156101f757600080fd5b5060408051602060046024803582810135601f81018590048502860185019096528585526101d1958335600160a060020a031695369560449491939091019190819084018382808284375050604080516020601f89358b018035918201839004830284018301909452808352979a999881019791965091820194509250829150840183828082843750949750610f069650505050505050565b34801561029c57600080fd5b5060408051602060046024803582810135601f81018590048502860185019096528585526101d1958335600160a060020a031695369560449491939091019190819084018382808284375050604080516020601f89358b018035918201839004830284018301909452808352979a99988101979196509182019450925082915084018382808284375050604080516020601f89358b018035918201839004830284018301909452808352979a99988101979196509182019450925082915084018382808284375050604080516020601f89358b018035918201839004830284018301909452808352979a9998810197919650918201945092508291508401838280828437509497506110679650505050505050565b3480156103bd57600080fd5b506103c960043561125a565b60408051600160a060020a039092168252519081900360200190f35b3480156103f157600080fd5b506101d1600160a060020a0360043516611282565b34801561041257600080fd5b506101d1611418565b34801561042757600080fd5b506101d1600160a060020a03600435166114ca565b34801561044857600080fd5b5061045d600160a060020a0360043516611661565b60408051918252519081900360200190f35b34801561047b57600080fd5b5061045d600160a060020a0360043516611673565b34801561049c57600080fd5b5061045d611685565b3480156104b157600080fd5b506104c6600160a060020a03600435166116a7565b604051808060200180602001838103835285818151815260200191508051906020019080838360005b838110156105075781810151838201526020016104ef565b50505050905090810190601f1680156105345780820380516001836020036101000a031916815260200191505b50838103825284518152845160209182019186019080838360005b8381101561056757818101518382015260200161054f565b50505050905090810190601f1680156105945780820380516001836020036101000a031916815260200191505b5094505050505060405180910390f35b3480156105b057600080fd5b5061045d600160a060020a03600435166117e1565b3480156105d157600080fd5b5061045d6117f3565b3480156105e657600080fd5b506101d1600160a060020a03600435166117f9565b34801561060757600080fd5b5061061c600160a060020a0360043516611990565b6040518080602001806020018060200180602001858103855289818151815260200191508051906020019080838360005b8381101561066557818101518382015260200161064d565b50505050905090810190601f1680156106925780820380516001836020036101000a031916815260200191505b5085810384528851815288516020918201918a019080838360005b838110156106c55781810151838201526020016106ad565b50505050905090810190601f1680156106f25780820380516001836020036101000a031916815260200191505b50858103835287518152875160209182019189019080838360005b8381101561072557818101518382015260200161070d565b50505050905090810190601f1680156107525780820380516001836020036101000a031916815260200191505b50858103825286518152865160209182019188019080838360005b8381101561078557818101518382015260200161076d565b50505050905090810190601f1680156107b25780820380516001836020036101000a031916815260200191505b509850505050505050505060405180910390f35b6101d1600435602435600160a060020a0360443516611bf1565b60006020819052908152604090205460ff1681565b606080600080610803611ea0565b60045460408051828152602080840282010190915290801561082f578160200160208202803883390190505b50935060009250600091505b600454821015610c8a576003600060048481548110151561085857fe5b600091825260208083209190910154600160a060020a0316835282810193909352604091820190208151815460026101006001831615026000190190911604601f8101859004909402810160a090810190935260808101848152909391928492849184018282801561090b5780601f106108e05761010080835404028352916020019161090b565b820191906000526020600020905b8154815290600101906020018083116108ee57829003601f168201915b50505050508152602001600182018054600181600116156101000203166002900480601f0160208091040260200160405190810160405280929190818152602001828054600181600116156101000203166002900480156109ad5780601f10610982576101008083540402835291602001916109ad565b820191906000526020600020905b81548152906001019060200180831161099057829003601f168201915b5050509183525050600282810180546040805160206001841615610100026000190190931694909404601f81018390048302850183019091528084529381019390830182828015610a3f5780601f10610a1457610100808354040283529160200191610a3f565b820191906000526020600020905b815481529060010190602001808311610a2257829003601f168201915b505050918352505060038201805460408051602060026001851615610100026000190190941693909304601f8101849004840282018401909252818152938201939291830182828015610ad35780601f10610aa857610100808354040283529160200191610ad3565b820191906000526020600020905b815481529060010190602001808311610ab657829003601f168201915b50505050508152505090508686604051602001808383808284378201915050925050506040516020818303038152906040526040518082805190602001908083835b60208310610b345780518252601f199092019160209182019101610b15565b51815160209384036101000a6000190180199092169116179052604051919093018190038120606087015180519196509450908301928392508401908083835b60208310610b935780518252601f199092019160209182019101610b74565b6001836020036101000a0380198251168184511680821785525050505050509050019150506040516020818303038152906040526040518082805190602001908083835b60208310610bf65780518252601f199092019160209182019101610bd7565b6001836020036101000a0380198251168184511680821785525050505050509050019150506040518091039020600019161415610c7f576004805483908110610c3b57fe5b6000918252602090912001548451600160a060020a0390911690859085908110610c6157fe5b600160a060020a039092166020928302909101909101526001909201915b60019091019061083b565b509195945050505050565b3360009081526020819052604090205460ff161515600114610d03576040805160e560020a62461bcd02815260206004820152602b6024820152600080516020611f828339815191526044820152600080516020611fa2833981519152606482015290519081900360840190fd5b600160a060020a0381161515610d51576040805160e560020a62461bcd02815260206004820152600f6024820152600080516020611f62833981519152604482015290519081900360640190fd5b600160a060020a03811660009081526005602052604090205460011480610d905750600160a060020a0381166000908152600560205260409020546002145b1515610de6576040805160e560020a62461bcd02815260206004820152601260248201527f54656163686572206e6f7420666f756e64210000000000000000000000000000604482015290519081900360640190fd5b600160a060020a03811660008181526005602052604080822060039055517f60809b1f44f4a1a1316cf3fc1e6b860494e214ec345ad91e5ba0254a01f5a2b19190a250565b33600090815260056020526040902054600314610e92576040805160e560020a62461bcd02815260206004820152601660248201527f54656163686572206e6f7420617574686f72697a656400000000000000000000604482015290519081900360640190fd5b33600090815260066020526040902054811115610ef9576040805160e560020a62461bcd02815260206004820152601f60248201527f546561636865722062616c616e636520697320696e73756666696369656e7400604482015290519081900360640190fd5b610f033382611dd3565b50565b600160a060020a0383161515610f54576040805160e560020a62461bcd02815260206004820152600f6024820152600080516020611f62833981519152604482015290519081900360640190fd5b600160a060020a03831660009081526002602052604090205415610fc2576040805160e560020a62461bcd02815260206004820152601a60248201527f53747564656e7420616c72656164792072656769737465726564000000000000604482015290519081900360640190fd5b6040805180820182528381526020808201849052600160a060020a0386166000908152600182529290922081518051929391926110029284920190611ec9565b50602082810151805161101b9260018501920190611ec9565b505050600160a060020a038316600081815260026020819052604080832091909155517f413281c709cf2c555b5d6d90e43f841b9ed7d34daa82e221aedbb3773082fcc89190a2505050565b600160a060020a03851615156110b5576040805160e560020a62461bcd02815260206004820152600f6024820152600080516020611f62833981519152604482015290519081900360640190fd5b600160a060020a03851660009081526005602052604090205415611123576040805160e560020a62461bcd02815260206004820152601a60248201527f5465616368657220616c72656164792072656769737465726564000000000000604482015290519081900360640190fd5b60408051608081018252858152602080820186905281830185905260608201849052600160a060020a0388166000908152600382529290922081518051929391926111719284920190611ec9565b50602082810151805161118a9260018501920190611ec9565b50604082015180516111a6916002840191602090910190611ec9565b50606082015180516111c2916003840191602090910190611ec9565b505060048054600181019091557f8a35acfbc15ff81a39ae7d344fd709f28e8600b4aa8c65c6b64bfe7fe36bd19b01805473ffffffffffffffffffffffffffffffffffffffff1916600160a060020a03881690811790915560008181526005602052604080822060029055519192507e899eba62073a4a8b6878c7c1f8b7453a286cf4e095fa16a43e08d5235c9c7e91a25050505050565b600480548290811061126857fe5b600091825260209091200154600160a060020a0316905081565b3360009081526020819052604090205460ff1615156001146112f0576040805160e560020a62461bcd02815260206004820152602b6024820152600080516020611f828339815191526044820152600080516020611fa2833981519152606482015290519081900360840190fd5b600160a060020a038116151561133e576040805160e560020a62461bcd02815260206004820152600f6024820152600080516020611f62833981519152604482015290519081900360640190fd5b600160a060020a0381166000908152600560205260409020546003148061137d5750600160a060020a0381166000908152600560205260409020546002145b15156113d3576040805160e560020a62461bcd02815260206004820152601860248201527f54656163686572206973206e6f7420617661696c61626c650000000000000000604482015290519081900360640190fd5b600160a060020a03811660008181526005602052604080822060019055517f431ae4a4895e482440703d9da4a23b1bdf6055cd269d2be49db69a18e57674529190a250565b3360009081526020819052604090205460ff161515600114611486576040805160e560020a62461bcd02815260206004820152602b6024820152600080516020611f828339815191526044820152600080516020611fa2833981519152606482015290519081900360840190fd5b60405133907ff8df31144d9c2f0f6b59d69b8b98abd5459d07f2742c4df920b25aae33c6482090600090a2336000908152602081905260409020805460ff19169055565b3360009081526020819052604090205460ff161515600114611538576040805160e560020a62461bcd02815260206004820152602b6024820152600080516020611f828339815191526044820152600080516020611fa2833981519152606482015290519081900360840190fd5b600160a060020a0381161515611586576040805160e560020a62461bcd02815260206004820152600f6024820152600080516020611f62833981519152604482015290519081900360640190fd5b600160a060020a038116600090815260026020526040902054600314806115c65750600160a060020a038116600090815260026020819052604090912054145b151561161c576040805160e560020a62461bcd02815260206004820152601860248201527f73747564656e74206973206e6f7420617661696c61626c650000000000000000604482015290519081900360640190fd5b600160a060020a03811660008181526002602052604080822060019055517fb158cb7e7ade33a18d48ec08211faabea461b04f67ac4cf80ba84e6fc54b11f09190a250565b60056020526000908152604090205481565b60026020526000908152604090205481565b60075460009061169c90600163ffffffff611e7b16565b600781905590505b90565b60016020818152600092835260409283902080548451600294821615610100026000190190911693909304601f81018390048302840183019094528383529283918301828280156117395780601f1061170e57610100808354040283529160200191611739565b820191906000526020600020905b81548152906001019060200180831161171c57829003601f168201915b505050505090806001018054600181600116156101000203166002900480601f0160208091040260200160405190810160405280929190818152602001828054600181600116156101000203166002900480156117d75780601f106117ac576101008083540402835291602001916117d7565b820191906000526020600020905b8154815290600101906020018083116117ba57829003601f168201915b5050505050905082565b60066020526000908152604090205481565b60075481565b3360009081526020819052604090205460ff161515600114611867576040805160e560020a62461bcd02815260206004820152602b6024820152600080516020611f828339815191526044820152600080516020611fa2833981519152606482015290519081900360840190fd5b600160a060020a03811615156118b5576040805160e560020a62461bcd02815260206004820152600f6024820152600080516020611f62833981519152604482015290519081900360640190fd5b600160a060020a038116600090815260026020526040902054600114806118f55750600160a060020a038116600090815260026020819052604090912054145b151561194b576040805160e560020a62461bcd02815260206004820152601260248201527f53747564656e74206e6f7420666f756e64210000000000000000000000000000604482015290519081900360640190fd5b600160a060020a03811660008181526002602052604080822060039055517f79e4f6717fda32586e7b681a3af995b1f8a0af92c8c50c0d46866962f1bb83f09190a250565b60036020908152600091825260409182902080548351601f60026000196101006001861615020190931692909204918201849004840281018401909452808452909291839190830182828015611a275780601f106119fc57610100808354040283529160200191611a27565b820191906000526020600020905b815481529060010190602001808311611a0a57829003601f168201915b505050505090806001018054600181600116156101000203166002900480601f016020809104026020016040519081016040528092919081815260200182805460018160011615610100020316600290048015611ac55780601f10611a9a57610100808354040283529160200191611ac5565b820191906000526020600020905b815481529060010190602001808311611aa857829003601f168201915b50505060028085018054604080516020601f6000196101006001871615020190941695909504928301859004850281018501909152818152959695945090925090830182828015611b575780601f10611b2c57610100808354040283529160200191611b57565b820191906000526020600020905b815481529060010190602001808311611b3a57829003601f168201915b5050505060038301805460408051602060026001851615610100026000190190941693909304601f8101849004840282018401909252818152949594935090830182828015611be75780601f10611bbc57610100808354040283529160200191611be7565b820191906000526020600020905b815481529060010190602001808311611bca57829003601f168201915b5050505050905084565b6000348314611c70576040805160e560020a62461bcd02815260206004820152602e60248201527f696e73756666696369656e7420616d6f756e74206f6620657468657220666f7260448201527f206c656374757265207072696365000000000000000000000000000000000000606482015290519081900360840190fd5b600160a060020a0382161515611cd0576040805160e560020a62461bcd02815260206004820152601760248201527f696e76616c696420746561636865722061646472657373000000000000000000604482015290519081900360640190fd5b600160a060020a038216600090815260056020526040902054600314611d40576040805160e560020a62461bcd02815260206004820152601160248201527f74656163686572206e6f7420666f756e64000000000000000000000000000000604482015290519081900360640190fd5b60008481526008602090815260408083203384529091529020805460ff19166001179055606460033402600160a060020a0384166000818152600660209081526040918290208054959094043481900390950190935580518881529051939450339391927f0d6bf6e43205c432532b19e5291ba088ae756474670de6eb826382badf83340292918290030190a350505050565b604051600160a060020a0383169082156108fc029083906000818181858888f19350505050158015611e09573d6000803e3d6000fd5b50600160a060020a038216600090815260066020526040902054611e33908263ffffffff611e8e16565b600160a060020a03831660008181526006602052604080822093909355915190917f2d339b1e3334d3f43e7aa6d5b1fa3ca5e4228b2dd547d1710c726019d98e53fa91a25050565b81810182811015611e8857fe5b92915050565b600082821115611e9a57fe5b50900390565b608060405190810160405280606081526020016060815260200160608152602001606081525090565b828054600181600116156101000203166002900490600052602060002090601f016020900481019282601f10611f0a57805160ff1916838001178555611f37565b82800160010185558215611f37579182015b82811115611f37578251825591602001919060010190611f1c565b50611f43929150611f47565b5090565b6116a491905b80821115611f435760008155600101611f4d5600496e76616c69642061646472657373000000000000000000000000000000000074686973206163636f756e7420646f6573206e6f7420686176652061646d696e2070726976696c65676573000000000000000000000000000000000000000000a165627a7a72305820763b864196ebed9c0521b13e80c4773395b8d76bd3bf140b50df796a920e212b0029",
  "source": "pragma solidity 0.4.24;\n\nimport \"./utils/SafeMath.sol\";\nimport \"./NatanStudent.sol\";\nimport \"./NatanTeacher.sol\";\n\n/** @title NatanLecture */\ncontract NatanLecture is NatanStudent, NatanTeacher {\n\n    using SafeMath for uint256;\n\n    ///@notice lecture id counter\n    uint256 public lecturesId = 0; \n\n    ///@notice list of paid lectures\n    mapping(uint => mapping(address => bool)) paidLecture; \n    ///@notice list of recorded lectures on IPFS    \n    mapping(uint => bytes) recordedLecture;             \n    ///@notice list of lectures owners       \n    mapping(uint => mapping(address => bool)) accessLecture;\n\n    event lecturePaid(address indexed teacher, address indexed student, uint256 lectureId);    \n\n    /**\n     * @dev generate lecture id\n     * @return lecturesId lecture id\n     */\n    function generateLectureId() public returns (uint256) {\n        lecturesId = lecturesId.add(1);\n        return lecturesId;\n    }\n\n    /**\n     * @dev pay for lecture\n     * @param _lectureId id of lecture\n     * @param _lecturePrice price of lecture\n     * @param _teacher address of the lecture's teacher\n     */\n    function payLecture(uint _lectureId, uint _lecturePrice, address _teacher) public payable {\n        require(msg.value == _lecturePrice, \"insufficient amount of ether for lecture price\");\n        require(_teacher != address(0), \"invalid teacher address\");\n        require(listedTeachers[_teacher] == 3, \"teacher not found\");\n\n        //Mark lecture paid by student\n        paidLecture[_lectureId][msg.sender] = true;\n        //Natanedu 3% fee per lecture\n        uint natanFee = (msg.value * 3) / 100;\n        //Transfer 97% to teacher balance\n        teacherBalance[_teacher] += msg.value - natanFee;\n\n        emit lecturePaid(_teacher, msg.sender, _lectureId);\n    }\n\n    /**\n     * @dev store IPFS hash of a recorded lecture\n     * @param _lectureId id of lecture\n     * @param _ipfsHash IPFS hash\n     */\n    function saveRecordedLecture(uint _lectureId, bytes memory _ipfsHash) internal {\n        recordedLecture[_lectureId] = _ipfsHash;\n        //restrict lecture access\n        accessLecture[_lectureId][msg.sender] = true;\n    }\n\n    /**\n     * @dev get IPFS hash of a recorded lecture\n     * @param _lectureId id of lecture\n     * @return IPFS hash\n     */\n    function getRecordedLecture(uint _lectureId) internal view returns(bytes memory) {\n        require(accessLecture[_lectureId][msg.sender], \"no permission to access this lecture\");\n        return recordedLecture[_lectureId];\n    }\n\n    /**\n     * @dev tranfer money to specified teacher address\n     * @param _amount amount to transfer in Wei\n     */\n    function transfer(uint _amount) public {\n        require(listedTeachers[msg.sender] == 3, \"Teacher not authorized\");\n        require(teacherBalance[msg.sender] >= _amount, \"Teacher balance is insufficient\");\n\n        withdraw(msg.sender, _amount);\n    }\n\n}\n",
  "sourcePath": "/home/haythem96/Projects/Blockchain/Projects/Natanedu/smartcontractsdemo/contracts/NatanLecture.sol",
  "compiler": {
    "name": "solc",
    "version": "0.4.24+commit.e67f0147.Emscripten.clang"
  },
  "schemaVersion": "2.0.1",
  "updatedAt": "2019-01-03T12:09:56.121Z"
}