{
  "contractName": "NatanAdmin",
  "abi": [
    {
      "constant": true,
      "inputs": [
        {
          "name": "",
          "type": "address"
        }
      ],
      "name": "owners",
      "outputs": [
        {
          "name": "",
          "type": "bool"
        }
      ],
      "payable": false,
      "stateMutability": "view",
      "type": "function"
    },
    {
      "constant": false,
      "inputs": [],
      "name": "renounceOwnership",
      "outputs": [],
      "payable": false,
      "stateMutability": "nonpayable",
      "type": "function"
    },
    {
      "anonymous": false,
      "inputs": [
        {
          "indexed": true,
          "name": "previousOwner",
          "type": "address"
        }
      ],
      "name": "OwnershipRenounced",
      "type": "event"
    },
    {
      "anonymous": false,
      "inputs": [
        {
          "indexed": true,
          "name": "previousOwner",
          "type": "address"
        },
        {
          "indexed": true,
          "name": "newOwner",
          "type": "address"
        }
      ],
      "name": "OwnershipTransferred",
      "type": "event"
    },
    {
      "constant": false,
      "inputs": [
        {
          "name": "_newAllowed",
          "type": "address"
        }
      ],
      "name": "addAdmin",
      "outputs": [],
      "payable": false,
      "stateMutability": "nonpayable",
      "type": "function"
    },
    {
      "constant": false,
      "inputs": [
        {
          "name": "_toRemove",
          "type": "address"
        }
      ],
      "name": "removeAdmin",
      "outputs": [],
      "payable": false,
      "stateMutability": "nonpayable",
      "type": "function"
    }
  ],
  "bytecode": "0x60806040908152336000908152602081905220805460ff191660011790556104a98061002c6000396000f3006080604052600436106100615763ffffffff7c0100000000000000000000000000000000000000000000000000000000600035041663022914a781146100665780631785f53c1461009b57806370480275146100be578063715018a6146100df575b600080fd5b34801561007257600080fd5b50610087600160a060020a03600435166100f4565b604080519115158252519081900360200190f35b3480156100a757600080fd5b506100bc600160a060020a0360043516610109565b005b3480156100ca57600080fd5b506100bc600160a060020a0360043516610291565b3480156100eb57600080fd5b506100bc6103a7565b60006020819052908152604090205460ff1681565b3360009081526020819052604090205460ff16151560011461019b576040805160e560020a62461bcd02815260206004820152602b60248201527f74686973206163636f756e7420646f6573206e6f7420686176652061646d696e60448201527f2070726976696c65676573000000000000000000000000000000000000000000606482015290519081900360840190fd5b600160a060020a03811615156101fb576040805160e560020a62461bcd02815260206004820152600f60248201527f696e76616c696420616464726573730000000000000000000000000000000000604482015290519081900360640190fd5b600160a060020a03811660009081526020819052604090205460ff161515600114610270576040805160e560020a62461bcd02815260206004820152600f60248201527f61646d696e206e6f7420666f756e640000000000000000000000000000000000604482015290519081900360640190fd5b600160a060020a03166000908152602081905260409020805460ff19169055565b3360009081526020819052604090205460ff161515600114610323576040805160e560020a62461bcd02815260206004820152602b60248201527f74686973206163636f756e7420646f6573206e6f7420686176652061646d696e60448201527f2070726976696c65676573000000000000000000000000000000000000000000606482015290519081900360840190fd5b600160a060020a0381161515610383576040805160e560020a62461bcd02815260206004820152600f60248201527f696e76616c696420616464726573730000000000000000000000000000000000604482015290519081900360640190fd5b600160a060020a03166000908152602081905260409020805460ff19166001179055565b3360009081526020819052604090205460ff161515600114610439576040805160e560020a62461bcd02815260206004820152602b60248201527f74686973206163636f756e7420646f6573206e6f7420686176652061646d696e60448201527f2070726976696c65676573000000000000000000000000000000000000000000606482015290519081900360840190fd5b60405133907ff8df31144d9c2f0f6b59d69b8b98abd5459d07f2742c4df920b25aae33c6482090600090a2336000908152602081905260409020805460ff191690555600a165627a7a7230582081fb043d691595eda39925aca13386a0c25207d5e1bf16bb2f27ddc4d314080e0029",
  "source": "pragma solidity 0.4.24;\n\nimport \"./utils/Control.sol\";\n\n/** @title NatanAdmin */\ncontract NatanAdmin is Control {\n\n    /** \n     * @dev add new admin\n     * @param _newAllowed address of the new admin    \n     */\n    function addAdmin(address _newAllowed) external onlyOwner {\n        require(_newAllowed != address(0), \"invalid address\");\n        owners[_newAllowed] = true;\n    }\n\n    /**\n     * @dev remove admin\n     * @param _toRemove owner that will be removed\n     */\n    function removeAdmin(address _toRemove) external onlyOwner {\n        require(_toRemove != address(0), \"invalid address\");\n        require(owners[_toRemove] == true, \"admin not found\");\n        owners[_toRemove] = false;\n    }\n\n}",
  "sourcePath": "/home/haythem96/Projects/Blockchain/Projects/Natanedu/smartcontractsdemo/contracts/NatanAdmin.sol",
  "compiler": {
    "name": "solc",
    "version": "0.4.24+commit.e67f0147.Emscripten.clang"
  },
  "schemaVersion": "2.0.1",
  "updatedAt": "2019-01-03T12:09:56.112Z"
}