{
  "contractName": "NatanLecture",
  "abi": [
    {
      "constant": true,
      "inputs": [
        {
          "name": "",
          "type": "address"
        }
      ],
      "name": "owners",
      "outputs": [
        {
          "name": "",
          "type": "bool"
        }
      ],
      "payable": false,
      "stateMutability": "view",
      "type": "function",
      "signature": "0x022914a7"
    },
    {
      "constant": true,
      "inputs": [
        {
          "name": "_topic",
          "type": "string"
        }
      ],
      "name": "getByTopic",
      "outputs": [
        {
          "name": "",
          "type": "address[]"
        }
      ],
      "payable": false,
      "stateMutability": "view",
      "type": "function",
      "signature": "0x0284ef38"
    },
    {
      "constant": false,
      "inputs": [
        {
          "name": "_teacherAdd",
          "type": "address"
        }
      ],
      "name": "whiteListTeacher",
      "outputs": [],
      "payable": false,
      "stateMutability": "nonpayable",
      "type": "function",
      "signature": "0x0909e248"
    },
    {
      "constant": false,
      "inputs": [
        {
          "name": "_add",
          "type": "address"
        },
        {
          "name": "_name",
          "type": "string"
        },
        {
          "name": "_lastName",
          "type": "string"
        },
        {
          "name": "_region",
          "type": "string"
        },
        {
          "name": "_topic",
          "type": "string"
        },
        {
          "name": "_language",
          "type": "string"
        },
        {
          "name": "_minPrice",
          "type": "uint256"
        },
        {
          "name": "_maxPrice",
          "type": "uint256"
        }
      ],
      "name": "registerTeacher",
      "outputs": [],
      "payable": false,
      "stateMutability": "nonpayable",
      "type": "function",
      "signature": "0x2667b14a"
    },
    {
      "constant": false,
      "inputs": [
        {
          "name": "_add",
          "type": "address"
        },
        {
          "name": "_name",
          "type": "string"
        },
        {
          "name": "_lastName",
          "type": "string"
        }
      ],
      "name": "registerStudent",
      "outputs": [],
      "payable": false,
      "stateMutability": "nonpayable",
      "type": "function",
      "signature": "0x2ae7b900"
    },
    {
      "constant": true,
      "inputs": [
        {
          "name": "",
          "type": "uint256"
        }
      ],
      "name": "studentsAddress",
      "outputs": [
        {
          "name": "",
          "type": "address"
        }
      ],
      "payable": false,
      "stateMutability": "view",
      "type": "function",
      "signature": "0x499ab700"
    },
    {
      "constant": true,
      "inputs": [
        {
          "name": "",
          "type": "uint256"
        }
      ],
      "name": "teachersAddress",
      "outputs": [
        {
          "name": "",
          "type": "address"
        }
      ],
      "payable": false,
      "stateMutability": "view",
      "type": "function",
      "signature": "0x4f2be468"
    },
    {
      "constant": false,
      "inputs": [
        {
          "name": "_teacherAdd",
          "type": "address"
        }
      ],
      "name": "blackListTeacher",
      "outputs": [],
      "payable": false,
      "stateMutability": "nonpayable",
      "type": "function",
      "signature": "0x63bad5ca"
    },
    {
      "constant": false,
      "inputs": [],
      "name": "renounceOwnership",
      "outputs": [],
      "payable": false,
      "stateMutability": "nonpayable",
      "type": "function",
      "signature": "0x715018a6"
    },
    {
      "constant": false,
      "inputs": [
        {
          "name": "_studentAdd",
          "type": "address"
        }
      ],
      "name": "blackListStudent",
      "outputs": [],
      "payable": false,
      "stateMutability": "nonpayable",
      "type": "function",
      "signature": "0x72383696"
    },
    {
      "constant": true,
      "inputs": [
        {
          "name": "",
          "type": "address"
        }
      ],
      "name": "listedTeachers",
      "outputs": [
        {
          "name": "",
          "type": "uint256"
        }
      ],
      "payable": false,
      "stateMutability": "view",
      "type": "function",
      "signature": "0x7f72e4d2"
    },
    {
      "constant": true,
      "inputs": [
        {
          "name": "_language",
          "type": "string"
        }
      ],
      "name": "getByLanguage",
      "outputs": [
        {
          "name": "",
          "type": "address[]"
        }
      ],
      "payable": false,
      "stateMutability": "view",
      "type": "function",
      "signature": "0x928a0276"
    },
    {
      "constant": true,
      "inputs": [
        {
          "name": "",
          "type": "address"
        }
      ],
      "name": "listedStudents",
      "outputs": [
        {
          "name": "",
          "type": "uint256"
        }
      ],
      "payable": false,
      "stateMutability": "view",
      "type": "function",
      "signature": "0x9549af3e"
    },
    {
      "constant": true,
      "inputs": [],
      "name": "getStudentsCount",
      "outputs": [
        {
          "name": "",
          "type": "uint256"
        }
      ],
      "payable": false,
      "stateMutability": "view",
      "type": "function",
      "signature": "0x9828cd15"
    },
    {
      "constant": true,
      "inputs": [
        {
          "name": "",
          "type": "address"
        }
      ],
      "name": "students",
      "outputs": [
        {
          "name": "firstName",
          "type": "string"
        },
        {
          "name": "lastName",
          "type": "string"
        }
      ],
      "payable": false,
      "stateMutability": "view",
      "type": "function",
      "signature": "0xa6c807a9"
    },
    {
      "constant": true,
      "inputs": [
        {
          "name": "",
          "type": "address"
        }
      ],
      "name": "teacherBalance",
      "outputs": [
        {
          "name": "",
          "type": "uint256"
        }
      ],
      "payable": false,
      "stateMutability": "view",
      "type": "function",
      "signature": "0xaa1db8f6"
    },
    {
      "constant": true,
      "inputs": [],
      "name": "getTeachersCount",
      "outputs": [
        {
          "name": "",
          "type": "uint256"
        }
      ],
      "payable": false,
      "stateMutability": "view",
      "type": "function",
      "signature": "0xaace7180"
    },
    {
      "constant": true,
      "inputs": [],
      "name": "lecturesId",
      "outputs": [
        {
          "name": "",
          "type": "uint256"
        }
      ],
      "payable": false,
      "stateMutability": "view",
      "type": "function",
      "signature": "0xdd317fde"
    },
    {
      "constant": false,
      "inputs": [
        {
          "name": "_studentAdd",
          "type": "address"
        }
      ],
      "name": "whiteListStudent",
      "outputs": [],
      "payable": false,
      "stateMutability": "nonpayable",
      "type": "function",
      "signature": "0xe49a5ab8"
    },
    {
      "constant": true,
      "inputs": [
        {
          "name": "",
          "type": "address"
        }
      ],
      "name": "teachers",
      "outputs": [
        {
          "name": "firstName",
          "type": "string"
        },
        {
          "name": "lastName",
          "type": "string"
        },
        {
          "name": "region",
          "type": "string"
        },
        {
          "name": "topic",
          "type": "string"
        },
        {
          "name": "language",
          "type": "string"
        },
        {
          "name": "minPrice",
          "type": "uint256"
        },
        {
          "name": "maxPrice",
          "type": "uint256"
        }
      ],
      "payable": false,
      "stateMutability": "view",
      "type": "function",
      "signature": "0xf0a47f78"
    },
    {
      "constant": true,
      "inputs": [
        {
          "name": "_topic",
          "type": "string"
        },
        {
          "name": "_language",
          "type": "string"
        }
      ],
      "name": "getByTopicLanguage",
      "outputs": [
        {
          "name": "",
          "type": "address[]"
        }
      ],
      "payable": false,
      "stateMutability": "view",
      "type": "function",
      "signature": "0xffcc563c"
    },
    {
      "anonymous": false,
      "inputs": [
        {
          "indexed": true,
          "name": "teacher",
          "type": "address"
        },
        {
          "indexed": true,
          "name": "student",
          "type": "address"
        },
        {
          "indexed": false,
          "name": "lectureId",
          "type": "uint256"
        }
      ],
      "name": "lecturePaid",
      "type": "event",
      "signature": "0x0d6bf6e43205c432532b19e5291ba088ae756474670de6eb826382badf833402"
    },
    {
      "anonymous": false,
      "inputs": [
        {
          "indexed": true,
          "name": "teacher",
          "type": "address"
        }
      ],
      "name": "Transfer",
      "type": "event",
      "signature": "0x2d339b1e3334d3f43e7aa6d5b1fa3ca5e4228b2dd547d1710c726019d98e53fa"
    },
    {
      "anonymous": false,
      "inputs": [
        {
          "indexed": true,
          "name": "teacher",
          "type": "address"
        }
      ],
      "name": "TeacherWhitelisted",
      "type": "event",
      "signature": "0x60809b1f44f4a1a1316cf3fc1e6b860494e214ec345ad91e5ba0254a01f5a2b1"
    },
    {
      "anonymous": false,
      "inputs": [
        {
          "indexed": true,
          "name": "teacher",
          "type": "address"
        }
      ],
      "name": "TeacherBlacklisted",
      "type": "event",
      "signature": "0x431ae4a4895e482440703d9da4a23b1bdf6055cd269d2be49db69a18e5767452"
    },
    {
      "anonymous": false,
      "inputs": [
        {
          "indexed": true,
          "name": "teacher",
          "type": "address"
        }
      ],
      "name": "RegisteredTeacher",
      "type": "event",
      "signature": "0x00899eba62073a4a8b6878c7c1f8b7453a286cf4e095fa16a43e08d5235c9c7e"
    },
    {
      "anonymous": false,
      "inputs": [
        {
          "indexed": true,
          "name": "student",
          "type": "address"
        }
      ],
      "name": "StudentRegistered",
      "type": "event",
      "signature": "0x413281c709cf2c555b5d6d90e43f841b9ed7d34daa82e221aedbb3773082fcc8"
    },
    {
      "anonymous": false,
      "inputs": [
        {
          "indexed": true,
          "name": "student",
          "type": "address"
        }
      ],
      "name": "StudentWhitelisted",
      "type": "event",
      "signature": "0x79e4f6717fda32586e7b681a3af995b1f8a0af92c8c50c0d46866962f1bb83f0"
    },
    {
      "anonymous": false,
      "inputs": [
        {
          "indexed": true,
          "name": "student",
          "type": "address"
        }
      ],
      "name": "StudentBlacklisted",
      "type": "event",
      "signature": "0xb158cb7e7ade33a18d48ec08211faabea461b04f67ac4cf80ba84e6fc54b11f0"
    },
    {
      "anonymous": false,
      "inputs": [
        {
          "indexed": true,
          "name": "previousOwner",
          "type": "address"
        }
      ],
      "name": "OwnershipRenounced",
      "type": "event",
      "signature": "0xf8df31144d9c2f0f6b59d69b8b98abd5459d07f2742c4df920b25aae33c64820"
    },
    {
      "anonymous": false,
      "inputs": [
        {
          "indexed": true,
          "name": "previousOwner",
          "type": "address"
        },
        {
          "indexed": true,
          "name": "newOwner",
          "type": "address"
        }
      ],
      "name": "OwnershipTransferred",
      "type": "event",
      "signature": "0x8be0079c531659141344cd1fd0a4f28419497f9722a3daafe3b4186f6b6457e0"
    },
    {
      "constant": false,
      "inputs": [],
      "name": "generateLectureId",
      "outputs": [
        {
          "name": "",
          "type": "uint256"
        }
      ],
      "payable": false,
      "stateMutability": "nonpayable",
      "type": "function",
      "signature": "0x9771ad28"
    },
    {
      "constant": false,
      "inputs": [
        {
          "name": "_lectureId",
          "type": "uint256"
        },
        {
          "name": "_lecturePrice",
          "type": "uint256"
        },
        {
          "name": "_student",
          "type": "address"
        },
        {
          "name": "_teacher",
          "type": "address"
        }
      ],
      "name": "payLecture",
      "outputs": [],
      "payable": true,
      "stateMutability": "payable",
      "type": "function",
      "signature": "0x70690a72"
    },
    {
      "constant": false,
      "inputs": [
        {
          "name": "_teacher",
          "type": "address"
        }
      ],
      "name": "transfer",
      "outputs": [],
      "payable": false,
      "stateMutability": "nonpayable",
      "type": "function",
      "signature": "0x1a695230"
    }
  ],
  "bytecode": "0x6080604090815260006008819055338152602081905220805460ff1916600117905561315d806100306000396000f3fe60806040526004361061013d5763ffffffff7c0100000000000000000000000000000000000000000000000000000000600035041663022914a781146101425780630284ef38146101895780630909e248146102565780631a6952301461028b5780632667b14a146102be5780632ae7b900146105a3578063499ab700146106ed5780634f2be4681461073357806363bad5ca1461075d57806370690a7214610790578063715018a6146107ca57806372383696146107df5780637f72e4d214610812578063928a0276146108575780639549af3e146108d45780639771ad28146109075780639828cd151461091c578063a6c807a914610931578063aa1db8f614610a42578063aace718014610a75578063dd317fde14610a8a578063e49a5ab814610a9f578063f0a47f7814610ad2578063ffcc563c14610d23575b600080fd5b34801561014e57600080fd5b506101756004803603602081101561016557600080fd5b5035600160a060020a0316610df2565b604080519115158252519081900360200190f35b34801561019557600080fd5b50610206600480360360208110156101ac57600080fd5b8101906020810181356401000000008111156101c757600080fd5b8201836020820111156101d957600080fd5b803590602001918460018302840111640100000000831117156101fb57600080fd5b509092509050610e07565b60408051602080825283518183015283519192839290830191858101910280838360005b8381101561024257818101518382015260200161022a565b505050509050019250505060405180910390f35b34801561026257600080fd5b506102896004803603602081101561027957600080fd5b5035600160a060020a031661129e565b005b34801561029757600080fd5b50610289600480360360208110156102ae57600080fd5b5035600160a060020a0316611434565b3480156102ca57600080fd5b5061028960048036036101008110156102e257600080fd5b600160a060020a03823516919081019060408101602082013564010000000081111561030d57600080fd5b82018360208201111561031f57600080fd5b8035906020019184600183028401116401000000008311171561034157600080fd5b91908080601f016020809104026020016040519081016040528093929190818152602001838380828437600092019190915250929594936020810193503591505064010000000081111561039457600080fd5b8201836020820111156103a657600080fd5b803590602001918460018302840111640100000000831117156103c857600080fd5b91908080601f016020809104026020016040519081016040528093929190818152602001838380828437600092019190915250929594936020810193503591505064010000000081111561041b57600080fd5b82018360208201111561042d57600080fd5b8035906020019184600183028401116401000000008311171561044f57600080fd5b91908080601f01602080910402602001604051908101604052809392919081815260200183838082843760009201919091525092959493602081019350359150506401000000008111156104a257600080fd5b8201836020820111156104b457600080fd5b803590602001918460018302840111640100000000831117156104d657600080fd5b91908080601f016020809104026020016040519081016040528093929190818152602001838380828437600092019190915250929594936020810193503591505064010000000081111561052957600080fd5b82018360208201111561053b57600080fd5b8035906020019184600183028401116401000000008311171561055d57600080fd5b91908080601f0160208091040260200160405190810160405280939291908181526020018383808284376000920191909152509295505082359350505060200135611533565b3480156105af57600080fd5b50610289600480360360608110156105c657600080fd5b600160a060020a0382351691908101906040810160208201356401000000008111156105f157600080fd5b82018360208201111561060357600080fd5b8035906020019184600183028401116401000000008311171561062557600080fd5b91908080601f016020809104026020016040519081016040528093929190818152602001838380828437600092019190915250929594936020810193503591505064010000000081111561067857600080fd5b82018360208201111561068a57600080fd5b803590602001918460018302840111640100000000831117156106ac57600080fd5b91908080601f016020809104026020016040519081016040528093929190818152602001838380828437600092019190915250929550611773945050505050565b3480156106f957600080fd5b506107176004803603602081101561071057600080fd5b5035611921565b60408051600160a060020a039092168252519081900360200190f35b34801561073f57600080fd5b506107176004803603602081101561075657600080fd5b5035611949565b34801561076957600080fd5b506102896004803603602081101561078057600080fd5b5035600160a060020a0316611957565b610289600480360360808110156107a657600080fd5b50803590602081013590600160a060020a0360408201358116916060013516611aed565b3480156107d657600080fd5b50610289611ccc565b3480156107eb57600080fd5b506102896004803603602081101561080257600080fd5b5035600160a060020a0316611d7e565b34801561081e57600080fd5b506108456004803603602081101561083557600080fd5b5035600160a060020a0316611f15565b60408051918252519081900360200190f35b34801561086357600080fd5b506102066004803603602081101561087a57600080fd5b81019060208101813564010000000081111561089557600080fd5b8201836020820111156108a757600080fd5b803590602001918460018302840111640100000000831117156108c957600080fd5b509092509050611f27565b3480156108e057600080fd5b50610845600480360360208110156108f757600080fd5b5035600160a060020a03166123b4565b34801561091357600080fd5b506108456123c6565b34801561092857600080fd5b506108456123e8565b34801561093d57600080fd5b506109646004803603602081101561095457600080fd5b5035600160a060020a03166123ee565b604051808060200180602001838103835285818151815260200191508051906020019080838360005b838110156109a557818101518382015260200161098d565b50505050905090810190601f1680156109d25780820380516001836020036101000a031916815260200191505b50838103825284518152845160209182019186019080838360005b83811015610a055781810151838201526020016109ed565b50505050905090810190601f168015610a325780820380516001836020036101000a031916815260200191505b5094505050505060405180910390f35b348015610a4e57600080fd5b5061084560048036036020811015610a6557600080fd5b5035600160a060020a0316612528565b348015610a8157600080fd5b5061084561253a565b348015610a9657600080fd5b50610845612540565b348015610aab57600080fd5b5061028960048036036020811015610ac257600080fd5b5035600160a060020a0316612546565b348015610ade57600080fd5b50610b0560048036036020811015610af557600080fd5b5035600160a060020a03166126de565b60405180806020018060200180602001806020018060200188815260200187815260200186810386528d818151815260200191508051906020019080838360005b83811015610b5e578181015183820152602001610b46565b50505050905090810190601f168015610b8b5780820380516001836020036101000a031916815260200191505b5086810385528c5181528c516020918201918e019080838360005b83811015610bbe578181015183820152602001610ba6565b50505050905090810190601f168015610beb5780820380516001836020036101000a031916815260200191505b5086810384528b5181528b516020918201918d019080838360005b83811015610c1e578181015183820152602001610c06565b50505050905090810190601f168015610c4b5780820380516001836020036101000a031916815260200191505b5086810383528a5181528a516020918201918c019080838360005b83811015610c7e578181015183820152602001610c66565b50505050905090810190601f168015610cab5780820380516001836020036101000a031916815260200191505b5086810382528951815289516020918201918b019080838360005b83811015610cde578181015183820152602001610cc6565b50505050905090810190601f168015610d0b5780820380516001836020036101000a031916815260200191505b509c5050505050505050505050505060405180910390f35b348015610d2f57600080fd5b5061020660048036036040811015610d4657600080fd5b810190602081018135640100000000811115610d6157600080fd5b820183602082011115610d7357600080fd5b80359060200191846001830284011164010000000083111715610d9557600080fd5b919390929091602081019035640100000000811115610db357600080fd5b820183602082011115610dc557600080fd5b80359060200191846001830284011164010000000083111715610de757600080fd5b5090925090506129db565b60006020819052908152604090205460ff1681565b606080600580549050604051908082528060200260200182016040528015610e39578160200160208202803883390190505b5090506000805b60055481101561129457610e52612ffb565b60046000600584815481101515610e6557fe5b600091825260208083209190910154600160a060020a031683528281019390935260409182019020815181546002610100600183161581026000190190921604601f81018690049095028201810190935260e081018481529093919284928491840182828015610f165780601f10610eeb57610100808354040283529160200191610f16565b820191906000526020600020905b815481529060010190602001808311610ef957829003601f168201915b50505050508152602001600182018054600181600116156101000203166002900480601f016020809104026020016040519081016040528092919081815260200182805460018160011615610100020316600290048015610fb85780601f10610f8d57610100808354040283529160200191610fb8565b820191906000526020600020905b815481529060010190602001808311610f9b57829003601f168201915b5050509183525050600282810180546040805160206001841615610100026000190190931694909404601f8101839004830285018301909152808452938101939083018282801561104a5780601f1061101f5761010080835404028352916020019161104a565b820191906000526020600020905b81548152906001019060200180831161102d57829003601f168201915b505050918352505060038201805460408051602060026001851615610100026000190190941693909304601f81018490048402820184019092528181529382019392918301828280156110de5780601f106110b3576101008083540402835291602001916110de565b820191906000526020600020905b8154815290600101906020018083116110c157829003601f168201915b505050918352505060048201805460408051602060026001851615610100026000190190941693909304601f81018490048402820184019092528181529382019392918301828280156111725780601f1061114757610100808354040283529160200191611172565b820191906000526020600020905b81548152906001019060200180831161115557829003601f168201915b5050505050815260200160058201548152602001600682015481525050905086866040516020018083838082843780830192505050925050506040516020818303038152906040528051906020012081606001516040516020018082805190602001908083835b602083106111f85780518252601f1990920191602091820191016111d9565b6001836020036101000a03801982511681845116808217855250505050505090500191505060405160208183030381529060405280519060200120141561128b57600580548390811061124757fe5b6000918252602090912001548451600160a060020a039091169085908590811061126d57fe5b600160a060020a039092166020928302909101909101526001909201915b50600101610e40565b5090949350505050565b3360009081526020819052604090205460ff16151560011461130c576040805160e560020a62461bcd02815260206004820152602b60248201526000805160206130f28339815191526044820152600080516020613112833981519152606482015290519081900360840190fd5b600160a060020a038116151561135a576040805160e560020a62461bcd02815260206004820152600f60248201526000805160206130d2833981519152604482015290519081900360640190fd5b600160a060020a038116600090815260066020526040902054600114806113995750600160a060020a0381166000908152600660205260409020546002145b15156113ef576040805160e560020a62461bcd02815260206004820152601260248201527f54656163686572206e6f7420666f756e64210000000000000000000000000000604482015290519081900360640190fd5b600160a060020a03811660008181526006602052604080822060039055517f60809b1f44f4a1a1316cf3fc1e6b860494e214ec345ad91e5ba0254a01f5a2b19190a250565b600160a060020a038116151561144957600080fd5b600160a060020a0381166000908152600660205260409020546003146114b9576040805160e560020a62461bcd02815260206004820152601660248201527f54656163686572206e6f7420617574686f72697a656400000000000000000000604482015290519081900360640190fd5b600160a060020a03811660009081526007602052604081205411611527576040805160e560020a62461bcd02815260206004820152601760248201527f546561636865722062616c616e6365206973207a65726f000000000000000000604482015290519081900360640190fd5b61153081612f1f565b50565b600160a060020a0388161515611581576040805160e560020a62461bcd02815260206004820152600f60248201526000805160206130d2833981519152604482015290519081900360640190fd5b600160a060020a038816600090815260066020526040902054156115ef576040805160e560020a62461bcd02815260206004820152601a60248201527f5465616368657220616c72656164792072656769737465726564000000000000604482015290519081900360640190fd5b6040805160e0810182528881526020808201899052818301889052606082018790526080820186905260a0820185905260c08201849052600160a060020a038b166000908152600482529290922081518051929391926116529284920190613039565b50602082810151805161166b9260018501920190613039565b5060408201518051611687916002840191602090910190613039565b50606082015180516116a3916003840191602090910190613039565b50608082015180516116bf916004840191602090910190613039565b5060a082015160058281019190915560c0909201516006918201558154600181019092557f036b6384b5eca791c62761152d0c79bb0604c104a5fb6f4eb0703f3154bb3db0909101805473ffffffffffffffffffffffffffffffffffffffff1916600160a060020a038b1690811790915560008181526020929092526040808320600390555190917e899eba62073a4a8b6878c7c1f8b7453a286cf4e095fa16a43e08d5235c9c7e91a25050505050505050565b600160a060020a03831615156117c1576040805160e560020a62461bcd02815260206004820152600f60248201526000805160206130d2833981519152604482015290519081900360640190fd5b600160a060020a0383166000908152600360205260409020541561182f576040805160e560020a62461bcd02815260206004820152601a60248201527f53747564656e7420616c72656164792072656769737465726564000000000000604482015290519081900360640190fd5b6040805180820182528381526020808201849052600160a060020a03861660009081526001825292909220815180519293919261186f9284920190613039565b5060208281015180516118889260018501920190613039565b505060028054600181019091557f405787fa12a823e0f2b7631cc41b3ba8828b3321ca811111fa75cd3aa3bb5ace01805473ffffffffffffffffffffffffffffffffffffffff1916600160a060020a038616908117909155600081815260036020819052604080832091909155519192507f413281c709cf2c555b5d6d90e43f841b9ed7d34daa82e221aedbb3773082fcc891a2505050565b600280548290811061192f57fe5b600091825260209091200154600160a060020a0316905081565b600580548290811061192f57fe5b3360009081526020819052604090205460ff1615156001146119c5576040805160e560020a62461bcd02815260206004820152602b60248201526000805160206130f28339815191526044820152600080516020613112833981519152606482015290519081900360840190fd5b600160a060020a0381161515611a13576040805160e560020a62461bcd02815260206004820152600f60248201526000805160206130d2833981519152604482015290519081900360640190fd5b600160a060020a03811660009081526006602052604090205460031480611a525750600160a060020a0381166000908152600660205260409020546002145b1515611aa8576040805160e560020a62461bcd02815260206004820152601860248201527f54656163686572206973206e6f7420617661696c61626c650000000000000000604482015290519081900360640190fd5b600160a060020a03811660008181526006602052604080822060019055517f431ae4a4895e482440703d9da4a23b1bdf6055cd269d2be49db69a18e57674529190a250565b348314611b6a576040805160e560020a62461bcd02815260206004820152602e60248201527f696e73756666696369656e7420616d6f756e74206f6620657468657220666f7260448201527f206c656374757265207072696365000000000000000000000000000000000000606482015290519081900360840190fd5b600160a060020a0381161515611bca576040805160e560020a62461bcd02815260206004820152601760248201527f696e76616c696420746561636865722061646472657373000000000000000000604482015290519081900360640190fd5b600160a060020a038116600090815260066020526040902054600314611c3a576040805160e560020a62461bcd02815260206004820152601160248201527f74656163686572206e6f7420666f756e64000000000000000000000000000000604482015290519081900360640190fd5b6000848152600960209081526040808320600160a060020a03868116808652918452828520805460ff1916600117905585168085526007845293829020805460646003349081029190910490819003909101909155825189815292519094919391927f0d6bf6e43205c432532b19e5291ba088ae756474670de6eb826382badf83340292908290030190a35050505050565b3360009081526020819052604090205460ff161515600114611d3a576040805160e560020a62461bcd02815260206004820152602b60248201526000805160206130f28339815191526044820152600080516020613112833981519152606482015290519081900360840190fd5b60405133907ff8df31144d9c2f0f6b59d69b8b98abd5459d07f2742c4df920b25aae33c6482090600090a2336000908152602081905260409020805460ff19169055565b3360009081526020819052604090205460ff161515600114611dec576040805160e560020a62461bcd02815260206004820152602b60248201526000805160206130f28339815191526044820152600080516020613112833981519152606482015290519081900360840190fd5b600160a060020a0381161515611e3a576040805160e560020a62461bcd02815260206004820152600f60248201526000805160206130d2833981519152604482015290519081900360640190fd5b600160a060020a0381166000908152600360208190526040909120541480611e7a5750600160a060020a0381166000908152600360205260409020546002145b1515611ed0576040805160e560020a62461bcd02815260206004820152601860248201527f73747564656e74206973206e6f7420617661696c61626c650000000000000000604482015290519081900360640190fd5b600160a060020a03811660008181526003602052604080822060019055517fb158cb7e7ade33a18d48ec08211faabea461b04f67ac4cf80ba84e6fc54b11f09190a250565b60066020526000908152604090205481565b606080600580549050604051908082528060200260200182016040528015611f59578160200160208202803883390190505b5090506000805b60055481101561129457611f72612ffb565b60046000600584815481101515611f8557fe5b600091825260208083209190910154600160a060020a031683528281019390935260409182019020815181546002610100600183161581026000190190921604601f81018690049095028201810190935260e0810184815290939192849284918401828280156120365780601f1061200b57610100808354040283529160200191612036565b820191906000526020600020905b81548152906001019060200180831161201957829003601f168201915b50505050508152602001600182018054600181600116156101000203166002900480601f0160208091040260200160405190810160405280929190818152602001828054600181600116156101000203166002900480156120d85780601f106120ad576101008083540402835291602001916120d8565b820191906000526020600020905b8154815290600101906020018083116120bb57829003601f168201915b5050509183525050600282810180546040805160206001841615610100026000190190931694909404601f8101839004830285018301909152808452938101939083018282801561216a5780601f1061213f5761010080835404028352916020019161216a565b820191906000526020600020905b81548152906001019060200180831161214d57829003601f168201915b505050918352505060038201805460408051602060026001851615610100026000190190941693909304601f81018490048402820184019092528181529382019392918301828280156121fe5780601f106121d3576101008083540402835291602001916121fe565b820191906000526020600020905b8154815290600101906020018083116121e157829003601f168201915b505050918352505060048201805460408051602060026001851615610100026000190190941693909304601f81018490048402820184019092528181529382019392918301828280156122925780601f1061226757610100808354040283529160200191612292565b820191906000526020600020905b81548152906001019060200180831161227557829003601f168201915b5050505050815260200160058201548152602001600682015481525050905086866040516020018083838082843780830192505050925050506040516020818303038152906040528051906020012081608001516040516020018082805190602001908083835b602083106123185780518252601f1990920191602091820191016122f9565b6001836020036101000a0380198251168184511680821785525050505050509050019150506040516020818303038152906040528051906020012014156123ab57600580548390811061236757fe5b6000918252602090912001548451600160a060020a039091169085908590811061238d57fe5b600160a060020a039092166020928302909101909101526001909201915b50600101611f60565b60036020526000908152604090205481565b6008546000906123dd90600163ffffffff612fd616565b600881905590505b90565b60025490565b60016020818152600092835260409283902080548451600294821615610100026000190190911693909304601f81018390048302840183019094528383529283918301828280156124805780601f1061245557610100808354040283529160200191612480565b820191906000526020600020905b81548152906001019060200180831161246357829003601f168201915b505050505090806001018054600181600116156101000203166002900480601f01602080910402602001604051908101604052809291908181526020018280546001816001161561010002031660029004801561251e5780601f106124f35761010080835404028352916020019161251e565b820191906000526020600020905b81548152906001019060200180831161250157829003601f168201915b5050505050905082565b60076020526000908152604090205481565b60055490565b60085481565b3360009081526020819052604090205460ff1615156001146125b4576040805160e560020a62461bcd02815260206004820152602b60248201526000805160206130f28339815191526044820152600080516020613112833981519152606482015290519081900360840190fd5b600160a060020a0381161515612602576040805160e560020a62461bcd02815260206004820152600f60248201526000805160206130d2833981519152604482015290519081900360640190fd5b600160a060020a038116600090815260036020526040902054600114806126415750600160a060020a0381166000908152600360205260409020546002145b1515612697576040805160e560020a62461bcd02815260206004820152601260248201527f53747564656e74206e6f7420666f756e64210000000000000000000000000000604482015290519081900360640190fd5b600160a060020a038116600081815260036020819052604080832091909155517f79e4f6717fda32586e7b681a3af995b1f8a0af92c8c50c0d46866962f1bb83f09190a250565b60046020908152600091825260409182902080548351601f600260001961010060018616150201909316929092049182018490048402810184019094528084529092918391908301828280156127755780601f1061274a57610100808354040283529160200191612775565b820191906000526020600020905b81548152906001019060200180831161275857829003601f168201915b505050505090806001018054600181600116156101000203166002900480601f0160208091040260200160405190810160405280929190818152602001828054600181600116156101000203166002900480156128135780601f106127e857610100808354040283529160200191612813565b820191906000526020600020905b8154815290600101906020018083116127f657829003601f168201915b50505060028085018054604080516020601f60001961010060018716150201909416959095049283018590048502810185019091528181529596959450909250908301828280156128a55780601f1061287a576101008083540402835291602001916128a5565b820191906000526020600020905b81548152906001019060200180831161288857829003601f168201915b5050505060038301805460408051602060026001851615610100026000190190941693909304601f81018490048402820184019092528181529495949350908301828280156129355780601f1061290a57610100808354040283529160200191612935565b820191906000526020600020905b81548152906001019060200180831161291857829003601f168201915b5050505060048301805460408051602060026001851615610100026000190190941693909304601f81018490048402820184019092528181529495949350908301828280156129c55780601f1061299a576101008083540402835291602001916129c5565b820191906000526020600020905b8154815290600101906020018083116129a857829003601f168201915b5050505050908060050154908060060154905087565b606080600580549050604051908082528060200260200182016040528015612a0d578160200160208202803883390190505b5090506000805b600554811015612f1357612a26612ffb565b60046000600584815481101515612a3957fe5b600091825260208083209190910154600160a060020a031683528281019390935260409182019020815181546002610100600183161581026000190190921604601f81018690049095028201810190935260e081018481529093919284928491840182828015612aea5780601f10612abf57610100808354040283529160200191612aea565b820191906000526020600020905b815481529060010190602001808311612acd57829003601f168201915b50505050508152602001600182018054600181600116156101000203166002900480601f016020809104026020016040519081016040528092919081815260200182805460018160011615610100020316600290048015612b8c5780601f10612b6157610100808354040283529160200191612b8c565b820191906000526020600020905b815481529060010190602001808311612b6f57829003601f168201915b5050509183525050600282810180546040805160206001841615610100026000190190931694909404601f81018390048302850183019091528084529381019390830182828015612c1e5780601f10612bf357610100808354040283529160200191612c1e565b820191906000526020600020905b815481529060010190602001808311612c0157829003601f168201915b505050918352505060038201805460408051602060026001851615610100026000190190941693909304601f8101849004840282018401909252818152938201939291830182828015612cb25780601f10612c8757610100808354040283529160200191612cb2565b820191906000526020600020905b815481529060010190602001808311612c9557829003601f168201915b505050918352505060048201805460408051602060026001851615610100026000190190941693909304601f8101849004840282018401909252818152938201939291830182828015612d465780601f10612d1b57610100808354040283529160200191612d46565b820191906000526020600020905b815481529060010190602001808311612d2957829003601f168201915b5050505050815260200160058201548152602001600682015481525050905088886040516020018083838082843780830192505050925050506040516020818303038152906040528051906020012081606001516040516020018082805190602001908083835b60208310612dcc5780518252601f199092019160209182019101612dad565b6001836020036101000a03801982511681845116808217855250505050505090500191505060405160208183030381529060405280519060200120148015612eb3575086866040516020018083838082843780830192505050925050506040516020818303038152906040528051906020012081608001516040516020018082805190602001908083835b60208310612e765780518252601f199092019160209182019101612e57565b6001836020036101000a03801982511681845116808217855250505050505090500191505060405160208183030381529060405280519060200120145b15612f0a576005805483908110612ec657fe5b6000918252602090912001548451600160a060020a0390911690859085908110612eec57fe5b600160a060020a039092166020928302909101909101526001909201915b50600101612a14565b50909695505050505050565b600160a060020a03811660008181526007602052604080822054905190929183156108fc02918491818181858888f19350505050158015612f64573d6000803e3d6000fd5b50600160a060020a038216600090815260076020526040902054612f8e908263ffffffff612fe916565b600160a060020a03831660008181526007602052604080822093909355915190917f2d339b1e3334d3f43e7aa6d5b1fa3ca5e4228b2dd547d1710c726019d98e53fa91a25050565b81810182811015612fe357fe5b92915050565b600082821115612ff557fe5b50900390565b60e060405190810160405280606081526020016060815260200160608152602001606081526020016060815260200160008152602001600081525090565b828054600181600116156101000203166002900490600052602060002090601f016020900481019282601f1061307a57805160ff19168380011785556130a7565b828001600101855582156130a7579182015b828111156130a757825182559160200191906001019061308c565b506130b39291506130b7565b5090565b6123e591905b808211156130b357600081556001016130bd56fe496e76616c69642061646472657373000000000000000000000000000000000074686973206163636f756e7420646f6573206e6f7420686176652061646d696e2070726976696c65676573000000000000000000000000000000000000000000a165627a7a723058204284a18bc73532fe67f23d61e58253a7e95b89ed56bc1b464aae6089a3f6ca060029",
  "source": "pragma solidity ^0.5.0;\n\nimport \"./utils/SafeMath.sol\";\nimport \"./NatanStudent.sol\";\nimport \"./NatanTeacher.sol\";\n\n/** @title NatanLecture */\ncontract NatanLecture is NatanStudent, NatanTeacher {\n\n    using SafeMath for uint256;\n\n    ///@notice lecture id counter\n    uint256 public lecturesId = 0; \n\n    ///@notice list of paid lectures\n    mapping(uint => mapping(address => bool)) paidLecture; \n    ///@notice list of recorded lectures on IPFS    \n    mapping(uint => bytes) recordedLecture;             \n    ///@notice list of lectures owners       \n    mapping(uint => mapping(address => bool)) accessLecture;\n\n    event lecturePaid(address indexed teacher, address indexed student, uint256 lectureId);    \n\n    /**\n     * @dev generate lecture id\n     * @return lecturesId lecture id\n     */\n    function generateLectureId() public returns (uint256) {\n        lecturesId = lecturesId.add(1);\n        return lecturesId;\n    }\n\n    /**\n     * @dev pay for lecture\n     * @param _lectureId id of lecture\n     * @param _lecturePrice price of lecture\n     * @param _teacher address of the lecture's teacher\n     */\n    function payLecture(uint _lectureId, uint _lecturePrice,address _student, address _teacher) public payable {\n        require(msg.value == _lecturePrice, \"insufficient amount of ether for lecture price\");\n        require(_teacher != address(0), \"invalid teacher address\");\n        require(listedTeachers[_teacher] == 3, \"teacher not found\");\n\n        //Mark lecture paid by student\n        paidLecture[_lectureId][_student] = true;\n        //Natanedu 3% fee per lecture\n        uint natanFee = (msg.value * 3) / 100;\n        //Transfer 97% to teacher balance\n        teacherBalance[_teacher] += msg.value - natanFee;\n\n        emit lecturePaid(_teacher, _student, _lectureId);\n    }\n\n    /**\n     * @dev store IPFS hash of a recorded lecture\n     * @param _lectureId id of lecture\n     * @param _ipfsHash IPFS hash\n     */\n    function saveRecordedLecture(uint _lectureId, bytes memory _ipfsHash) internal {\n        recordedLecture[_lectureId] = _ipfsHash;\n        //restrict lecture access\n        accessLecture[_lectureId][msg.sender] = true;\n    }\n\n    /**\n     * @dev get IPFS hash of a recorded lecture\n     * @param _lectureId id of lecture\n     * @return IPFS hash\n     */\n    function getRecordedLecture(uint _lectureId) internal view returns(bytes memory) {\n        require(accessLecture[_lectureId][msg.sender], \"no permission to access this lecture\");\n        return recordedLecture[_lectureId];\n    }\n\n    /**\n     * @dev tranfer money to specified teacher address\n     * @param _teacher teacher address\n     */\n    function transfer(address payable _teacher) public {\n        require(_teacher != address(0));\n        require(listedTeachers[_teacher] == 3, \"Teacher not authorized\");\n        require(teacherBalance[_teacher] > 0, \"Teacher balance is zero\");\n\n        withdraw(_teacher);\n    }\n\n}\n",
  "sourcePath": "/home/haythem96/Projects/Blockchain/Projects/Natanedu/smartcontractsdemo/contracts/NatanLecture.sol",
  "compiler": {
    "name": "solc",
    "version": "0.5.0+commit.1d4f565a.Emscripten.clang"
  },
  "schemaVersion": "3.0.1",
  "updatedAt": "2019-02-10T15:32:06.329Z",
  "devdoc": {
    "methods": {
      "blackListStudent(address)": {
        "details": "blacklist student",
        "params": {
          "_studentAdd": "address of student"
        }
      },
      "blackListTeacher(address)": {
        "details": "blacklist a teacher",
        "params": {
          "_teacherAdd": "address of teacher"
        }
      },
      "generateLectureId()": {
        "details": "generate lecture id",
        "return": "lecturesId lecture id"
      },
      "getByLanguage(string)": {
        "details": "function that return teachers address for a specific language",
        "params": {
          "_language": "specific language"
        },
        "return": "list of teachers addresses"
      },
      "getByTopic(string)": {
        "details": "function that return teachers address for a specific topic",
        "params": {
          "_topic": "specific topic"
        },
        "return": "list of teachers addresses"
      },
      "getByTopicLanguage(string,string)": {
        "details": "function that return teachers address for a specific topic and language",
        "params": {
          "_language": "specific language",
          "_topic": "specific topic"
        },
        "return": "list of teachers addresses"
      },
      "getStudentsCount()": {
        "details": "function that return number of student registered",
        "return": "number of students"
      },
      "getTeachersCount()": {
        "details": "function that return number of teachers registered",
        "return": "number of teachers"
      },
      "payLecture(uint256,uint256,address,address)": {
        "details": "pay for lecture",
        "params": {
          "_lectureId": "id of lecture",
          "_lecturePrice": "price of lecture",
          "_teacher": "address of the lecture's teacher"
        }
      },
      "registerStudent(address,string,string)": {
        "details": "register student",
        "params": {
          "_add": "student address",
          "_lastName": "student last name",
          "_name": "student name"
        }
      },
      "registerTeacher(address,string,string,string,string,string,uint256,uint256)": {
        "details": "register teacher",
        "params": {
          "_add": "teacher address",
          "_lastName": "teacher last name",
          "_name": "teacher name",
          "_region": "teacher region",
          "_topic": "teacher topic"
        }
      },
      "renounceOwnership()": {
        "details": "Allows the current owner to relinquish control of the contract."
      },
      "transfer(address)": {
        "details": "tranfer money to specified teacher address",
        "params": {
          "_teacher": "teacher address"
        }
      },
      "whiteListStudent(address)": {
        "details": "whitelist student",
        "params": {
          "_studentAdd": "address of student"
        }
      },
      "whiteListTeacher(address)": {
        "details": "whitelist a teacher",
        "params": {
          "_teacherAdd": "address of teacher"
        }
      }
    },
    "title": "NatanLecture "
  },
  "userdoc": {
    "methods": {}
  }
}