{
  "contractName": "NatanTeacher",
  "abi": [
    {
      "constant": true,
      "inputs": [
        {
          "name": "",
          "type": "address"
        }
      ],
      "name": "owners",
      "outputs": [
        {
          "name": "",
          "type": "bool"
        }
      ],
      "payable": false,
      "stateMutability": "view",
      "type": "function"
    },
    {
      "constant": true,
      "inputs": [
        {
          "name": "",
          "type": "uint256"
        }
      ],
      "name": "teachersAddress",
      "outputs": [
        {
          "name": "",
          "type": "address"
        }
      ],
      "payable": false,
      "stateMutability": "view",
      "type": "function"
    },
    {
      "constant": false,
      "inputs": [],
      "name": "renounceOwnership",
      "outputs": [],
      "payable": false,
      "stateMutability": "nonpayable",
      "type": "function"
    },
    {
      "constant": true,
      "inputs": [
        {
          "name": "",
          "type": "address"
        }
      ],
      "name": "listedTeachers",
      "outputs": [
        {
          "name": "",
          "type": "uint256"
        }
      ],
      "payable": false,
      "stateMutability": "view",
      "type": "function"
    },
    {
      "constant": true,
      "inputs": [
        {
          "name": "",
          "type": "address"
        }
      ],
      "name": "teacherBalance",
      "outputs": [
        {
          "name": "",
          "type": "uint256"
        }
      ],
      "payable": false,
      "stateMutability": "view",
      "type": "function"
    },
    {
      "constant": true,
      "inputs": [
        {
          "name": "",
          "type": "address"
        }
      ],
      "name": "teachers",
      "outputs": [
        {
          "name": "firstName",
          "type": "string"
        },
        {
          "name": "lastName",
          "type": "string"
        },
        {
          "name": "region",
          "type": "string"
        },
        {
          "name": "topic",
          "type": "string"
        }
      ],
      "payable": false,
      "stateMutability": "view",
      "type": "function"
    },
    {
      "anonymous": false,
      "inputs": [
        {
          "indexed": true,
          "name": "teacher",
          "type": "address"
        }
      ],
      "name": "Transfer",
      "type": "event"
    },
    {
      "anonymous": false,
      "inputs": [
        {
          "indexed": true,
          "name": "teacher",
          "type": "address"
        }
      ],
      "name": "TeacherWhitelisted",
      "type": "event"
    },
    {
      "anonymous": false,
      "inputs": [
        {
          "indexed": true,
          "name": "teacher",
          "type": "address"
        }
      ],
      "name": "TeacherBlacklisted",
      "type": "event"
    },
    {
      "anonymous": false,
      "inputs": [
        {
          "indexed": true,
          "name": "teacher",
          "type": "address"
        }
      ],
      "name": "RegisteredTeacher",
      "type": "event"
    },
    {
      "anonymous": false,
      "inputs": [
        {
          "indexed": true,
          "name": "previousOwner",
          "type": "address"
        }
      ],
      "name": "OwnershipRenounced",
      "type": "event"
    },
    {
      "anonymous": false,
      "inputs": [
        {
          "indexed": true,
          "name": "previousOwner",
          "type": "address"
        },
        {
          "indexed": true,
          "name": "newOwner",
          "type": "address"
        }
      ],
      "name": "OwnershipTransferred",
      "type": "event"
    },
    {
      "constant": false,
      "inputs": [
        {
          "name": "_add",
          "type": "address"
        },
        {
          "name": "_name",
          "type": "string"
        },
        {
          "name": "_lastName",
          "type": "string"
        },
        {
          "name": "_region",
          "type": "string"
        },
        {
          "name": "_topic",
          "type": "string"
        }
      ],
      "name": "registerTeacher",
      "outputs": [],
      "payable": false,
      "stateMutability": "nonpayable",
      "type": "function"
    },
    {
      "constant": false,
      "inputs": [
        {
          "name": "_teacherAdd",
          "type": "address"
        }
      ],
      "name": "whiteListTeacher",
      "outputs": [],
      "payable": false,
      "stateMutability": "nonpayable",
      "type": "function"
    },
    {
      "constant": false,
      "inputs": [
        {
          "name": "_teacherAdd",
          "type": "address"
        }
      ],
      "name": "blackListTeacher",
      "outputs": [],
      "payable": false,
      "stateMutability": "nonpayable",
      "type": "function"
    },
    {
      "constant": true,
      "inputs": [
        {
          "name": "_topic",
          "type": "string"
        }
      ],
      "name": "getByTopic",
      "outputs": [
        {
          "name": "",
          "type": "address[]"
        }
      ],
      "payable": false,
      "stateMutability": "view",
      "type": "function"
    }
  ],
  "bytecode": "0x60806040908152336000908152602081905220805460ff191660011790556113de8061002c6000396000f3006080604052600436106100a35763ffffffff7c0100000000000000000000000000000000000000000000000000000000600035041663022914a781146100a85780630284ef38146100dd5780630909e2481461014d5780633351001b146101705780634f2be4681461029157806363bad5ca146102c5578063715018a6146102e65780637f72e4d2146102fb578063aa1db8f61461032e578063f0a47f781461034f575b600080fd5b3480156100b457600080fd5b506100c9600160a060020a036004351661051a565b604080519115158252519081900360200190f35b3480156100e957600080fd5b506100fd600480356024810191013561052f565b60408051602080825283518183015283519192839290830191858101910280838360005b83811015610139578181015183820152602001610121565b505050509050019250505060405180910390f35b34801561015957600080fd5b5061016e600160a060020a03600435166109cf565b005b34801561017c57600080fd5b5060408051602060046024803582810135601f810185900485028601850190965285855261016e958335600160a060020a031695369560449491939091019190819084018382808284375050604080516020601f89358b018035918201839004830284018301909452808352979a99988101979196509182019450925082915084018382808284375050604080516020601f89358b018035918201839004830284018301909452808352979a99988101979196509182019450925082915084018382808284375050604080516020601f89358b018035918201839004830284018301909452808352979a999881019791965091820194509250829150840183828082843750949750610b9d9650505050505050565b34801561029d57600080fd5b506102a9600435610da3565b60408051600160a060020a039092168252519081900360200190f35b3480156102d157600080fd5b5061016e600160a060020a0360043516610dcb565b3480156102f257600080fd5b5061016e610f98565b34801561030757600080fd5b5061031c600160a060020a036004351661106e565b60408051918252519081900360200190f35b34801561033a57600080fd5b5061031c600160a060020a0360043516611080565b34801561035b57600080fd5b50610370600160a060020a0360043516611092565b6040518080602001806020018060200180602001858103855289818151815260200191508051906020019080838360005b838110156103b95781810151838201526020016103a1565b50505050905090810190601f1680156103e65780820380516001836020036101000a031916815260200191505b5085810384528851815288516020918201918a019080838360005b83811015610419578181015183820152602001610401565b50505050905090810190601f1680156104465780820380516001836020036101000a031916815260200191505b50858103835287518152875160209182019189019080838360005b83811015610479578181015183820152602001610461565b50505050905090810190601f1680156104a65780820380516001836020036101000a031916815260200191505b50858103825286518152865160209182019188019080838360005b838110156104d95781810151838201526020016104c1565b50505050905090810190601f1680156105065780820380516001836020036101000a031916815260200191505b509850505050505050505060405180910390f35b60006020819052908152604090205460ff1681565b60608060008061053d6112ee565b600254604080518281526020808402820101909152908015610569578160200160208202803883390190505b50935060009250600091505b6002548210156109c4576001600060028481548110151561059257fe5b600091825260208083209190910154600160a060020a0316835282810193909352604091820190208151815460026101006001831615026000190190911604601f8101859004909402810160a09081019093526080810184815290939192849284918401828280156106455780601f1061061a57610100808354040283529160200191610645565b820191906000526020600020905b81548152906001019060200180831161062857829003601f168201915b50505050508152602001600182018054600181600116156101000203166002900480601f0160208091040260200160405190810160405280929190818152602001828054600181600116156101000203166002900480156106e75780601f106106bc576101008083540402835291602001916106e7565b820191906000526020600020905b8154815290600101906020018083116106ca57829003601f168201915b5050509183525050600282810180546040805160206001841615610100026000190190931694909404601f810183900483028501830190915280845293810193908301828280156107795780601f1061074e57610100808354040283529160200191610779565b820191906000526020600020905b81548152906001019060200180831161075c57829003601f168201915b505050918352505060038201805460408051602060026001851615610100026000190190941693909304601f810184900484028201840190925281815293820193929183018282801561080d5780601f106107e25761010080835404028352916020019161080d565b820191906000526020600020905b8154815290600101906020018083116107f057829003601f168201915b50505050508152505090508686604051602001808383808284378201915050925050506040516020818303038152906040526040518082805190602001908083835b6020831061086e5780518252601f19909201916020918201910161084f565b51815160209384036101000a6000190180199092169116179052604051919093018190038120606087015180519196509450908301928392508401908083835b602083106108cd5780518252601f1990920191602091820191016108ae565b6001836020036101000a0380198251168184511680821785525050505050509050019150506040516020818303038152906040526040518082805190602001908083835b602083106109305780518252601f199092019160209182019101610911565b6001836020036101000a03801982511681845116808217855250505050505090500191505060405180910390206000191614156109b957600280548390811061097557fe5b6000918252602090912001548451600160a060020a039091169085908590811061099b57fe5b600160a060020a039092166020928302909101909101526001909201915b600190910190610575565b509195945050505050565b3360009081526020819052604090205460ff161515600114610a61576040805160e560020a62461bcd02815260206004820152602b60248201527f74686973206163636f756e7420646f6573206e6f7420686176652061646d696e60448201527f2070726976696c65676573000000000000000000000000000000000000000000606482015290519081900360840190fd5b600160a060020a0381161515610ac1576040805160e560020a62461bcd02815260206004820152600f60248201527f496e76616c696420616464726573730000000000000000000000000000000000604482015290519081900360640190fd5b600160a060020a03811660009081526003602052604090205460011480610b005750600160a060020a0381166000908152600360205260409020546002145b1515610b56576040805160e560020a62461bcd02815260206004820152601260248201527f54656163686572206e6f7420666f756e64210000000000000000000000000000604482015290519081900360640190fd5b600160a060020a038116600081815260036020819052604080832091909155517f60809b1f44f4a1a1316cf3fc1e6b860494e214ec345ad91e5ba0254a01f5a2b19190a250565b600160a060020a0385161515610bfd576040805160e560020a62461bcd02815260206004820152600f60248201527f496e76616c696420616464726573730000000000000000000000000000000000604482015290519081900360640190fd5b600160a060020a03851660009081526003602052604090205415610c6b576040805160e560020a62461bcd02815260206004820152601a60248201527f5465616368657220616c72656164792072656769737465726564000000000000604482015290519081900360640190fd5b60408051608081018252858152602080820186905281830185905260608201849052600160a060020a038816600090815260018252929092208151805192939192610cb99284920190611317565b506020828101518051610cd29260018501920190611317565b5060408201518051610cee916002840191602090910190611317565b5060608201518051610d0a916003840191602090910190611317565b5050600280546001810182557f405787fa12a823e0f2b7631cc41b3ba8828b3321ca811111fa75cd3aa3bb5ace01805473ffffffffffffffffffffffffffffffffffffffff1916600160a060020a0389169081179091556000818152600360205260408082209390935591519092507e899eba62073a4a8b6878c7c1f8b7453a286cf4e095fa16a43e08d5235c9c7e9190a25050505050565b6002805482908110610db157fe5b600091825260209091200154600160a060020a0316905081565b3360009081526020819052604090205460ff161515600114610e5d576040805160e560020a62461bcd02815260206004820152602b60248201527f74686973206163636f756e7420646f6573206e6f7420686176652061646d696e60448201527f2070726976696c65676573000000000000000000000000000000000000000000606482015290519081900360840190fd5b600160a060020a0381161515610ebd576040805160e560020a62461bcd02815260206004820152600f60248201527f496e76616c696420616464726573730000000000000000000000000000000000604482015290519081900360640190fd5b600160a060020a0381166000908152600360208190526040909120541480610efd5750600160a060020a0381166000908152600360205260409020546002145b1515610f53576040805160e560020a62461bcd02815260206004820152601860248201527f54656163686572206973206e6f7420617661696c61626c650000000000000000604482015290519081900360640190fd5b600160a060020a03811660008181526003602052604080822060019055517f431ae4a4895e482440703d9da4a23b1bdf6055cd269d2be49db69a18e57674529190a250565b3360009081526020819052604090205460ff16151560011461102a576040805160e560020a62461bcd02815260206004820152602b60248201527f74686973206163636f756e7420646f6573206e6f7420686176652061646d696e60448201527f2070726976696c65676573000000000000000000000000000000000000000000606482015290519081900360840190fd5b60405133907ff8df31144d9c2f0f6b59d69b8b98abd5459d07f2742c4df920b25aae33c6482090600090a2336000908152602081905260409020805460ff19169055565b60036020526000908152604090205481565b60046020526000908152604090205481565b60016020818152600092835260409283902080548451600294821615610100026000190190911693909304601f81018390048302840183019094528383529283918301828280156111245780601f106110f957610100808354040283529160200191611124565b820191906000526020600020905b81548152906001019060200180831161110757829003601f168201915b505050505090806001018054600181600116156101000203166002900480601f0160208091040260200160405190810160405280929190818152602001828054600181600116156101000203166002900480156111c25780601f10611197576101008083540402835291602001916111c2565b820191906000526020600020905b8154815290600101906020018083116111a557829003601f168201915b50505060028085018054604080516020601f60001961010060018716150201909416959095049283018590048502810185019091528181529596959450909250908301828280156112545780601f1061122957610100808354040283529160200191611254565b820191906000526020600020905b81548152906001019060200180831161123757829003601f168201915b5050505060038301805460408051602060026001851615610100026000190190941693909304601f81018490048402820184019092528181529495949350908301828280156112e45780601f106112b9576101008083540402835291602001916112e4565b820191906000526020600020905b8154815290600101906020018083116112c757829003601f168201915b5050505050905084565b608060405190810160405280606081526020016060815260200160608152602001606081525090565b828054600181600116156101000203166002900490600052602060002090601f016020900481019282601f1061135857805160ff1916838001178555611385565b82800160010185558215611385579182015b8281111561138557825182559160200191906001019061136a565b50611391929150611395565b5090565b6113af91905b80821115611391576000815560010161139b565b905600a165627a7a72305820132bd611c53c0184b60a8d9531a4a9f01e3cad2ee42ad0992cb89e8520b97f9c0029",
  "source": "pragma solidity 0.4.24;\n\n\nimport \"./utils/SafeMath.sol\";\nimport \"./utils/Control.sol\";\n\n/** @title NatanTeacher */\ncontract NatanTeacher is Control {\n\n    using SafeMath for uint256;\n\n    ///@notice teacher structure\n    struct Teacher {\n        string firstName;\n        string lastName;\n        string region; \n        string topic;\n    }\n\n    ///@notice List of teachers\n    mapping(address => Teacher) public teachers;\n\n    ///\n    address[] public teachersAddress; \n\n    ///@notice list of listed teachers: 1=blacklisted, 2=in process, 3=whitelisted\n    mapping(address => uint) public listedTeachers;      \n\n    ///@notice list of teacher's balance\n    mapping(address => uint256) public teacherBalance; \n\n    event Transfer(address indexed teacher);\n    event TeacherWhitelisted(address indexed teacher);\n    event TeacherBlacklisted(address indexed teacher);\n    event RegisteredTeacher(address indexed teacher);\n\n    /**\n     * @dev register teacher\n     * @param _add teacher address\n     * @param _name teacher name\n     * @param _lastName teacher last name\n     * @param _region teacher region\n     * @param _topic teacher topic\n     */\n    function registerTeacher(address _add, string memory _name, string memory _lastName, string memory _region, string memory _topic) public {\n        require(_add != address(0), \"Invalid address\");\n        require(listedTeachers[_add] == 0, \"Teacher already registered\");\n\n        //add teacher\n        teachers[_add] = Teacher(_name, _lastName, _region, _topic);\n        //save teacher address\n        teachersAddress.push(_add);\n        //mark teacher listing in progress\n        listedTeachers[_add] = 2;\n\n        emit RegisteredTeacher(_add);\n    }            \n    \n    /**\n     * @dev whitelist a teacher\n     * @param _teacherAdd address of teacher\n     */\n    function whiteListTeacher(address _teacherAdd) external onlyOwner {\n        //require valid address\n        require(_teacherAdd != address(0), \"Invalid address\");\n        require((listedTeachers[_teacherAdd] == 1) || (listedTeachers[_teacherAdd] == 2), \"Teacher not found!\");\n        \n        //whitelist teacher\n        listedTeachers[_teacherAdd] = 3;\n\n        emit TeacherWhitelisted(_teacherAdd);\n    }\n\n    /**\n     * @dev blacklist a teacher\n     * @param _teacherAdd address of teacher\n     */\n    function blackListTeacher(address _teacherAdd) external onlyOwner {\n        //require valid address\n        require(_teacherAdd != address(0), \"Invalid address\");\n        //require that teacher is already whitelisted or in process\n        require((listedTeachers[_teacherAdd] == 3) || (listedTeachers[_teacherAdd] == 2), \"Teacher is not available\");\n        \n        //blacklist teacher\n        listedTeachers[_teacherAdd] = 1;\n\n        emit TeacherBlacklisted(_teacherAdd);\n    }\n\n    /**\n     * @dev withdraw money\n     * @param _teacher teacher address\n     * @param _amount amount to transfer in Wei\n     */\n    function withdraw(address _teacher, uint _amount) internal {\n        _teacher.transfer(_amount);\n        teacherBalance[_teacher] = teacherBalance[_teacher].sub(_amount);\n\n        emit Transfer(_teacher);\n    }\n\n    /**\n     * @dev function that return teachers address for a specific topic\n     * @param _topic specific topic\n     * @return list of teachers addresses\n     */\n    function getByTopic(string _topic) external view returns(address[]) {\n        address[] memory teacherByTopic = new address[](teachersAddress.length);\n        uint counter = 0;\n        for(uint i = 0; i < teachersAddress.length; i++) {\n            Teacher memory t = teachers[teachersAddress[i]];\n            if(keccak256(abi.encodePacked(t.topic)) == keccak256(abi.encodePacked(_topic))) {\n                teacherByTopic[counter] = teachersAddress[i];\n                counter++;\n            }\n        }\n        return teacherByTopic;\n    }\n\n}\n",
  "sourcePath": "/home/haythem96/Projects/Blockchain/Projects/Natanedu/smartcontractsdemo/contracts/NatanTeacher.sol",
  "compiler": {
    "name": "solc",
    "version": "0.4.24+commit.e67f0147.Emscripten.clang"
  },
  "schemaVersion": "2.0.1",
  "updatedAt": "2019-01-03T12:06:35.517Z"
}