{
  "contractName": "NatanTeacher",
  "abi": [
    {
      "constant": true,
      "inputs": [
        {
          "name": "",
          "type": "address"
        }
      ],
      "name": "owners",
      "outputs": [
        {
          "name": "",
          "type": "bool"
        }
      ],
      "payable": false,
      "stateMutability": "view",
      "type": "function"
    },
    {
      "constant": false,
      "inputs": [],
      "name": "renounceOwnership",
      "outputs": [],
      "payable": false,
      "stateMutability": "nonpayable",
      "type": "function"
    },
    {
      "constant": true,
      "inputs": [
        {
          "name": "",
          "type": "address"
        }
      ],
      "name": "listedTeachers",
      "outputs": [
        {
          "name": "",
          "type": "uint256"
        }
      ],
      "payable": false,
      "stateMutability": "view",
      "type": "function"
    },
    {
      "constant": true,
      "inputs": [
        {
          "name": "",
          "type": "address"
        }
      ],
      "name": "teacherBalance",
      "outputs": [
        {
          "name": "",
          "type": "uint256"
        }
      ],
      "payable": false,
      "stateMutability": "view",
      "type": "function"
    },
    {
      "constant": true,
      "inputs": [
        {
          "name": "",
          "type": "address"
        }
      ],
      "name": "teachers",
      "outputs": [
        {
          "name": "firstName",
          "type": "string"
        },
        {
          "name": "lastName",
          "type": "string"
        },
        {
          "name": "region",
          "type": "string"
        },
        {
          "name": "topic",
          "type": "string"
        }
      ],
      "payable": false,
      "stateMutability": "view",
      "type": "function"
    },
    {
      "anonymous": false,
      "inputs": [
        {
          "indexed": true,
          "name": "teacher",
          "type": "address"
        }
      ],
      "name": "Transfer",
      "type": "event"
    },
    {
      "anonymous": false,
      "inputs": [
        {
          "indexed": true,
          "name": "teacher",
          "type": "address"
        }
      ],
      "name": "TeacherWhitelisted",
      "type": "event"
    },
    {
      "anonymous": false,
      "inputs": [
        {
          "indexed": true,
          "name": "teacher",
          "type": "address"
        }
      ],
      "name": "TeacherBlacklisted",
      "type": "event"
    },
    {
      "anonymous": false,
      "inputs": [
        {
          "indexed": true,
          "name": "teacher",
          "type": "address"
        }
      ],
      "name": "RegisteredTeacher",
      "type": "event"
    },
    {
      "anonymous": false,
      "inputs": [
        {
          "indexed": true,
          "name": "previousOwner",
          "type": "address"
        }
      ],
      "name": "OwnershipRenounced",
      "type": "event"
    },
    {
      "anonymous": false,
      "inputs": [
        {
          "indexed": true,
          "name": "previousOwner",
          "type": "address"
        },
        {
          "indexed": true,
          "name": "newOwner",
          "type": "address"
        }
      ],
      "name": "OwnershipTransferred",
      "type": "event"
    },
    {
      "constant": false,
      "inputs": [
        {
          "name": "_add",
          "type": "address"
        },
        {
          "name": "_name",
          "type": "string"
        },
        {
          "name": "_lastName",
          "type": "string"
        },
        {
          "name": "_region",
          "type": "string"
        },
        {
          "name": "_topic",
          "type": "string"
        }
      ],
      "name": "registerTeacher",
      "outputs": [],
      "payable": false,
      "stateMutability": "nonpayable",
      "type": "function"
    },
    {
      "constant": false,
      "inputs": [
        {
          "name": "_teacherAdd",
          "type": "address"
        }
      ],
      "name": "whiteListTeacher",
      "outputs": [],
      "payable": false,
      "stateMutability": "nonpayable",
      "type": "function"
    },
    {
      "constant": false,
      "inputs": [
        {
          "name": "_teacherAdd",
          "type": "address"
        }
      ],
      "name": "blackListTeacher",
      "outputs": [],
      "payable": false,
      "stateMutability": "nonpayable",
      "type": "function"
    }
  ],
  "bytecode": "0x60806040908152336000908152602081905220805460ff19166001179055610de68061002c6000396000f30060806040526004361061008d5763ffffffff7c0100000000000000000000000000000000000000000000000000000000600035041663022914a781146100925780630909e248146100c75780633351001b146100ea57806363bad5ca1461020b578063715018a61461022c5780637f72e4d214610241578063aa1db8f614610274578063f0a47f7814610295575b600080fd5b34801561009e57600080fd5b506100b3600160a060020a0360043516610460565b604080519115158252519081900360200190f35b3480156100d357600080fd5b506100e8600160a060020a0360043516610475565b005b3480156100f657600080fd5b5060408051602060046024803582810135601f81018590048502860185019096528585526100e8958335600160a060020a031695369560449491939091019190819084018382808284375050604080516020601f89358b018035918201839004830284018301909452808352979a99988101979196509182019450925082915084018382808284375050604080516020601f89358b018035918201839004830284018301909452808352979a99988101979196509182019450925082915084018382808284375050604080516020601f89358b018035918201839004830284018301909452808352979a9998810197919650918201945092508291508401838280828437509497506106429650505050505050565b34801561021757600080fd5b506100e8600160a060020a03600435166107fc565b34801561023857600080fd5b506100e86109c9565b34801561024d57600080fd5b50610262600160a060020a0360043516610a9f565b60408051918252519081900360200190f35b34801561028057600080fd5b50610262600160a060020a0360043516610ab1565b3480156102a157600080fd5b506102b6600160a060020a0360043516610ac3565b6040518080602001806020018060200180602001858103855289818151815260200191508051906020019080838360005b838110156102ff5781810151838201526020016102e7565b50505050905090810190601f16801561032c5780820380516001836020036101000a031916815260200191505b5085810384528851815288516020918201918a019080838360005b8381101561035f578181015183820152602001610347565b50505050905090810190601f16801561038c5780820380516001836020036101000a031916815260200191505b50858103835287518152875160209182019189019080838360005b838110156103bf5781810151838201526020016103a7565b50505050905090810190601f1680156103ec5780820380516001836020036101000a031916815260200191505b50858103825286518152865160209182019188019080838360005b8381101561041f578181015183820152602001610407565b50505050905090810190601f16801561044c5780820380516001836020036101000a031916815260200191505b509850505050505050505060405180910390f35b60006020819052908152604090205460ff1681565b3360009081526020819052604090205460ff161515600114610507576040805160e560020a62461bcd02815260206004820152602b60248201527f74686973206163636f756e7420646f6573206e6f7420686176652061646d696e60448201527f2070726976696c65676573000000000000000000000000000000000000000000606482015290519081900360840190fd5b600160a060020a0381161515610567576040805160e560020a62461bcd02815260206004820152600f60248201527f496e76616c696420616464726573730000000000000000000000000000000000604482015290519081900360640190fd5b600160a060020a038116600090815260026020526040902054600114806105a75750600160a060020a038116600090815260026020819052604090912054145b15156105fd576040805160e560020a62461bcd02815260206004820152601260248201527f54656163686572206e6f7420666f756e64210000000000000000000000000000604482015290519081900360640190fd5b600160a060020a03811660008181526002602052604080822060039055517f60809b1f44f4a1a1316cf3fc1e6b860494e214ec345ad91e5ba0254a01f5a2b19190a250565b600160a060020a03851615156106a2576040805160e560020a62461bcd02815260206004820152600f60248201527f496e76616c696420616464726573730000000000000000000000000000000000604482015290519081900360640190fd5b600160a060020a03851660009081526002602052604090205415610710576040805160e560020a62461bcd02815260206004820152601a60248201527f5465616368657220616c72656164792072656769737465726564000000000000604482015290519081900360640190fd5b60408051608081018252858152602080820186905281830185905260608201849052600160a060020a03881660009081526001825292909220815180519293919261075e9284920190610d1f565b5060208281015180516107779260018501920190610d1f565b5060408201518051610793916002840191602090910190610d1f565b50606082015180516107af916003840191602090910190610d1f565b505050600160a060020a038516600081815260026020819052604080832091909155517e899eba62073a4a8b6878c7c1f8b7453a286cf4e095fa16a43e08d5235c9c7e9190a25050505050565b3360009081526020819052604090205460ff16151560011461088e576040805160e560020a62461bcd02815260206004820152602b60248201527f74686973206163636f756e7420646f6573206e6f7420686176652061646d696e60448201527f2070726976696c65676573000000000000000000000000000000000000000000606482015290519081900360840190fd5b600160a060020a03811615156108ee576040805160e560020a62461bcd02815260206004820152600f60248201527f496e76616c696420616464726573730000000000000000000000000000000000604482015290519081900360640190fd5b600160a060020a0381166000908152600260205260409020546003148061092e5750600160a060020a038116600090815260026020819052604090912054145b1515610984576040805160e560020a62461bcd02815260206004820152601860248201527f54656163686572206973206e6f7420617661696c61626c650000000000000000604482015290519081900360640190fd5b600160a060020a03811660008181526002602052604080822060019055517f431ae4a4895e482440703d9da4a23b1bdf6055cd269d2be49db69a18e57674529190a250565b3360009081526020819052604090205460ff161515600114610a5b576040805160e560020a62461bcd02815260206004820152602b60248201527f74686973206163636f756e7420646f6573206e6f7420686176652061646d696e60448201527f2070726976696c65676573000000000000000000000000000000000000000000606482015290519081900360840190fd5b60405133907ff8df31144d9c2f0f6b59d69b8b98abd5459d07f2742c4df920b25aae33c6482090600090a2336000908152602081905260409020805460ff19169055565b60026020526000908152604090205481565b60036020526000908152604090205481565b60016020818152600092835260409283902080548451600294821615610100026000190190911693909304601f8101839004830284018301909452838352928391830182828015610b555780601f10610b2a57610100808354040283529160200191610b55565b820191906000526020600020905b815481529060010190602001808311610b3857829003601f168201915b505050505090806001018054600181600116156101000203166002900480601f016020809104026020016040519081016040528092919081815260200182805460018160011615610100020316600290048015610bf35780601f10610bc857610100808354040283529160200191610bf3565b820191906000526020600020905b815481529060010190602001808311610bd657829003601f168201915b50505060028085018054604080516020601f6000196101006001871615020190941695909504928301859004850281018501909152818152959695945090925090830182828015610c855780601f10610c5a57610100808354040283529160200191610c85565b820191906000526020600020905b815481529060010190602001808311610c6857829003601f168201915b5050505060038301805460408051602060026001851615610100026000190190941693909304601f8101849004840282018401909252818152949594935090830182828015610d155780601f10610cea57610100808354040283529160200191610d15565b820191906000526020600020905b815481529060010190602001808311610cf857829003601f168201915b5050505050905084565b828054600181600116156101000203166002900490600052602060002090601f016020900481019282601f10610d6057805160ff1916838001178555610d8d565b82800160010185558215610d8d579182015b82811115610d8d578251825591602001919060010190610d72565b50610d99929150610d9d565b5090565b610db791905b80821115610d995760008155600101610da3565b905600a165627a7a72305820bf28d41bc13f52001c3b04ad492e8b98a0017cacc90a260c5d08da46941a89730029",
  "source": "pragma solidity 0.4.24;\n\n\nimport \"./utils/SafeMath.sol\";\nimport \"./utils/Control.sol\";\n\n/** @title NatanTeacher */\ncontract NatanTeacher is Control {\n\n    using SafeMath for uint256;\n\n    ///@notice teacher structure\n    struct Teacher {\n        string firstName;\n        string lastName;\n        string region; \n        string topic;\n    }\n\n    ///@notice List of teachers\n    mapping(address => Teacher) public teachers; \n\n    ///@notice list of listed teachers: 1=blacklisted, 2=in process, 3=whitelisted\n    mapping(address => uint) public listedTeachers;      \n\n    ///@notice list of teacher's balance\n    mapping(address => uint256) public teacherBalance; \n\n    event Transfer(address indexed teacher);\n    event TeacherWhitelisted(address indexed teacher);\n    event TeacherBlacklisted(address indexed teacher);\n    event RegisteredTeacher(address indexed teacher);\n\n    /**\n     * @dev register teacher\n     * @param _add teacher address\n     * @param _name teacher name\n     * @param _lastName teacher last name\n     * @param _region teacher region\n     * @param _topic teacher topic\n     */\n    function registerTeacher(address _add, string memory _name, string memory _lastName, string memory _region, string memory _topic) public {\n        require(_add != address(0), \"Invalid address\");\n        require(listedTeachers[_add] == 0, \"Teacher already registered\");\n\n        //add teacher\n        teachers[_add] = Teacher(_name, _lastName, _region, _topic);\n        //mark teacher listing in progress\n        listedTeachers[_add] = 2;\n\n        emit RegisteredTeacher(_add);\n    }            \n    \n    /**\n     * @dev whitelist a teacher\n     * @param _teacherAdd address of teacher\n     */\n    function whiteListTeacher(address _teacherAdd) external onlyOwner {\n        //require valid address\n        require(_teacherAdd != address(0), \"Invalid address\");\n        require((listedTeachers[_teacherAdd] == 1) || (listedTeachers[_teacherAdd] == 2), \"Teacher not found!\");\n        \n        //whitelist teacher\n        listedTeachers[_teacherAdd] = 3;\n\n        emit TeacherWhitelisted(_teacherAdd);\n    }\n\n    /**\n     * @dev blacklist a teacher\n     * @param _teacherAdd address of teacher\n     */\n    function blackListTeacher(address _teacherAdd) external onlyOwner {\n        //require valid address\n        require(_teacherAdd != address(0), \"Invalid address\");\n        //require that teacher is already whitelisted or in process\n        require((listedTeachers[_teacherAdd] == 3) || (listedTeachers[_teacherAdd] == 2), \"Teacher is not available\");\n        \n        //blacklist teacher\n        listedTeachers[_teacherAdd] = 1;\n\n        emit TeacherBlacklisted(_teacherAdd);\n    }\n\n    /**\n     * @dev withdraw money\n     * @param _teacher teacher address\n     * @param _amount amount to transfer in Wei\n     */\n    function withdraw(address _teacher, uint _amount) internal {\n        _teacher.transfer(_amount);\n        teacherBalance[_teacher] = teacherBalance[_teacher].sub(_amount);\n\n        emit Transfer(_teacher);\n    }\n\n}\n",
  "sourcePath": "/home/haythem96/Projects/Blockchain/Projects/Natanedu/smartcontractsdemo/contracts/NatanTeacher.sol",
  "compiler": {
    "name": "solc",
    "version": "0.4.24+commit.e67f0147.Emscripten.clang"
  },
  "schemaVersion": "2.0.1",
  "updatedAt": "2018-12-04T13:41:55.051Z"
}