{
  "contractName": "NatanStudent",
  "abi": [
    {
      "constant": true,
      "inputs": [
        {
          "name": "",
          "type": "address"
        }
      ],
      "name": "owners",
      "outputs": [
        {
          "name": "",
          "type": "bool"
        }
      ],
      "payable": false,
      "stateMutability": "view",
      "type": "function"
    },
    {
      "constant": false,
      "inputs": [],
      "name": "renounceOwnership",
      "outputs": [],
      "payable": false,
      "stateMutability": "nonpayable",
      "type": "function"
    },
    {
      "constant": true,
      "inputs": [
        {
          "name": "",
          "type": "address"
        }
      ],
      "name": "listedStudents",
      "outputs": [
        {
          "name": "",
          "type": "uint256"
        }
      ],
      "payable": false,
      "stateMutability": "view",
      "type": "function"
    },
    {
      "constant": true,
      "inputs": [
        {
          "name": "",
          "type": "address"
        }
      ],
      "name": "students",
      "outputs": [
        {
          "name": "firstName",
          "type": "string"
        },
        {
          "name": "lastName",
          "type": "string"
        }
      ],
      "payable": false,
      "stateMutability": "view",
      "type": "function"
    },
    {
      "anonymous": false,
      "inputs": [
        {
          "indexed": true,
          "name": "student",
          "type": "address"
        }
      ],
      "name": "StudentRegistered",
      "type": "event"
    },
    {
      "anonymous": false,
      "inputs": [
        {
          "indexed": true,
          "name": "student",
          "type": "address"
        }
      ],
      "name": "StudentWhitelisted",
      "type": "event"
    },
    {
      "anonymous": false,
      "inputs": [
        {
          "indexed": true,
          "name": "student",
          "type": "address"
        }
      ],
      "name": "StudentBlacklisted",
      "type": "event"
    },
    {
      "anonymous": false,
      "inputs": [
        {
          "indexed": true,
          "name": "previousOwner",
          "type": "address"
        }
      ],
      "name": "OwnershipRenounced",
      "type": "event"
    },
    {
      "anonymous": false,
      "inputs": [
        {
          "indexed": true,
          "name": "previousOwner",
          "type": "address"
        },
        {
          "indexed": true,
          "name": "newOwner",
          "type": "address"
        }
      ],
      "name": "OwnershipTransferred",
      "type": "event"
    },
    {
      "constant": false,
      "inputs": [
        {
          "name": "_add",
          "type": "address"
        },
        {
          "name": "_name",
          "type": "string"
        },
        {
          "name": "_lastName",
          "type": "string"
        }
      ],
      "name": "registerStudent",
      "outputs": [],
      "payable": false,
      "stateMutability": "nonpayable",
      "type": "function"
    },
    {
      "constant": false,
      "inputs": [
        {
          "name": "_studentAdd",
          "type": "address"
        }
      ],
      "name": "whiteListStudent",
      "outputs": [],
      "payable": false,
      "stateMutability": "nonpayable",
      "type": "function"
    },
    {
      "constant": false,
      "inputs": [
        {
          "name": "_studentAdd",
          "type": "address"
        }
      ],
      "name": "blackListStudent",
      "outputs": [],
      "payable": false,
      "stateMutability": "nonpayable",
      "type": "function"
    }
  ],
  "bytecode": "0x60806040908152336000908152602081905220805460ff19166001179055610af78061002c6000396000f3006080604052600436106100825763ffffffff7c0100000000000000000000000000000000000000000000000000000000600035041663022914a781146100875780632ae7b900146100bc578063715018a61461016357806372383696146101785780639549af3e14610199578063a6c807a9146101cc578063e49a5ab8146102cb575b600080fd5b34801561009357600080fd5b506100a8600160a060020a03600435166102ec565b604080519115158252519081900360200190f35b3480156100c857600080fd5b5060408051602060046024803582810135601f8101859004850286018501909652858552610161958335600160a060020a031695369560449491939091019190819084018382808284375050604080516020601f89358b018035918201839004830284018301909452808352979a9998810197919650918201945092508291508401838280828437509497506103019650505050505050565b005b34801561016f57600080fd5b50610161610474565b34801561018457600080fd5b50610161600160a060020a036004351661054a565b3480156101a557600080fd5b506101ba600160a060020a0360043516610717565b60408051918252519081900360200190f35b3480156101d857600080fd5b506101ed600160a060020a0360043516610729565b604051808060200180602001838103835285818151815260200191508051906020019080838360005b8381101561022e578181015183820152602001610216565b50505050905090810190601f16801561025b5780820380516001836020036101000a031916815260200191505b50838103825284518152845160209182019186019080838360005b8381101561028e578181015183820152602001610276565b50505050905090810190601f1680156102bb5780820380516001836020036101000a031916815260200191505b5094505050505060405180910390f35b3480156102d757600080fd5b50610161600160a060020a0360043516610863565b60006020819052908152604090205460ff1681565b600160a060020a0383161515610361576040805160e560020a62461bcd02815260206004820152600f60248201527f496e76616c696420616464726573730000000000000000000000000000000000604482015290519081900360640190fd5b600160a060020a038316600090815260026020526040902054156103cf576040805160e560020a62461bcd02815260206004820152601a60248201527f53747564656e7420616c72656164792072656769737465726564000000000000604482015290519081900360640190fd5b6040805180820182528381526020808201849052600160a060020a03861660009081526001825292909220815180519293919261040f9284920190610a30565b5060208281015180516104289260018501920190610a30565b505050600160a060020a038316600081815260026020819052604080832091909155517f413281c709cf2c555b5d6d90e43f841b9ed7d34daa82e221aedbb3773082fcc89190a2505050565b3360009081526020819052604090205460ff161515600114610506576040805160e560020a62461bcd02815260206004820152602b60248201527f74686973206163636f756e7420646f6573206e6f7420686176652061646d696e60448201527f2070726976696c65676573000000000000000000000000000000000000000000606482015290519081900360840190fd5b60405133907ff8df31144d9c2f0f6b59d69b8b98abd5459d07f2742c4df920b25aae33c6482090600090a2336000908152602081905260409020805460ff19169055565b3360009081526020819052604090205460ff1615156001146105dc576040805160e560020a62461bcd02815260206004820152602b60248201527f74686973206163636f756e7420646f6573206e6f7420686176652061646d696e60448201527f2070726976696c65676573000000000000000000000000000000000000000000606482015290519081900360840190fd5b600160a060020a038116151561063c576040805160e560020a62461bcd02815260206004820152600f60248201527f496e76616c696420616464726573730000000000000000000000000000000000604482015290519081900360640190fd5b600160a060020a0381166000908152600260205260409020546003148061067c5750600160a060020a038116600090815260026020819052604090912054145b15156106d2576040805160e560020a62461bcd02815260206004820152601860248201527f73747564656e74206973206e6f7420617661696c61626c650000000000000000604482015290519081900360640190fd5b600160a060020a03811660008181526002602052604080822060019055517fb158cb7e7ade33a18d48ec08211faabea461b04f67ac4cf80ba84e6fc54b11f09190a250565b60026020526000908152604090205481565b60016020818152600092835260409283902080548451600294821615610100026000190190911693909304601f81018390048302840183019094528383529283918301828280156107bb5780601f10610790576101008083540402835291602001916107bb565b820191906000526020600020905b81548152906001019060200180831161079e57829003601f168201915b505050505090806001018054600181600116156101000203166002900480601f0160208091040260200160405190810160405280929190818152602001828054600181600116156101000203166002900480156108595780601f1061082e57610100808354040283529160200191610859565b820191906000526020600020905b81548152906001019060200180831161083c57829003601f168201915b5050505050905082565b3360009081526020819052604090205460ff1615156001146108f5576040805160e560020a62461bcd02815260206004820152602b60248201527f74686973206163636f756e7420646f6573206e6f7420686176652061646d696e60448201527f2070726976696c65676573000000000000000000000000000000000000000000606482015290519081900360840190fd5b600160a060020a0381161515610955576040805160e560020a62461bcd02815260206004820152600f60248201527f496e76616c696420616464726573730000000000000000000000000000000000604482015290519081900360640190fd5b600160a060020a038116600090815260026020526040902054600114806109955750600160a060020a038116600090815260026020819052604090912054145b15156109eb576040805160e560020a62461bcd02815260206004820152601260248201527f53747564656e74206e6f7420666f756e64210000000000000000000000000000604482015290519081900360640190fd5b600160a060020a03811660008181526002602052604080822060039055517f79e4f6717fda32586e7b681a3af995b1f8a0af92c8c50c0d46866962f1bb83f09190a250565b828054600181600116156101000203166002900490600052602060002090601f016020900481019282601f10610a7157805160ff1916838001178555610a9e565b82800160010185558215610a9e579182015b82811115610a9e578251825591602001919060010190610a83565b50610aaa929150610aae565b5090565b610ac891905b80821115610aaa5760008155600101610ab4565b905600a165627a7a723058209b8a9b933574af2994c8a01b6867fd434cc7041d3cb572588dd842bdf8649d3e0029",
  "source": "pragma solidity 0.4.24;\n\nimport \"./utils/SafeMath.sol\";\nimport \"./utils/Control.sol\";\n\n/** @title NatanStudent */\ncontract NatanStudent is Control {\n\n    ///@notice student structure\n    struct Student {\n        string firstName;\n        string lastName;\n    }\n\n    ///@notice list of students\n    mapping(address => Student) public students; \n\n    ///@notice list of listed students: 1=blacklisted, 2=in process, 3=whitelisted \n    mapping(address => uint) public listedStudents;\n\n    event StudentRegistered(address indexed student);\n    event StudentWhitelisted(address indexed student);\n    event StudentBlacklisted(address indexed student);\n\n    /**\n     * @dev register student\n     * @param _add student address\n     * @param _name student name\n     * @param _lastName student last name\n     */\n    function registerStudent(address _add, string memory _name, string memory _lastName) public {\n        require(_add != address(0), \"Invalid address\");\n        require(listedStudents[_add] == 0, \"Student already registered\");\n\n        //add student\n        students[_add] = Student(_name, _lastName);\n        //mark student listing in progress\n        listedStudents[_add] = 2;\n\n        emit StudentRegistered(_add);\n    }\n\n    /**\n     * @dev whitelist student\n     * @param _studentAdd address of student\n     */\n    function whiteListStudent(address _studentAdd) external onlyOwner {\n        require(_studentAdd != address(0), \"Invalid address\");\n        require((listedStudents[_studentAdd] == 1) || (listedStudents[_studentAdd] == 2), \"Student not found!\");\n\n        listedStudents[_studentAdd] = 3;\n\n        emit StudentWhitelisted(_studentAdd);\n    }\n\n    /**\n     * @dev blacklist student\n     * @param _studentAdd address of student\n     */\n    function blackListStudent(address _studentAdd) external onlyOwner {\n        require(_studentAdd != address(0), \"Invalid address\");\n        require((listedStudents[_studentAdd] == 3) || (listedStudents[_studentAdd] == 2), \"student is not available\");\n        \n        listedStudents[_studentAdd] = 1;\n\n        emit StudentBlacklisted(_studentAdd);\n    }\n\n}\n",
  "sourcePath": "/home/haythem96/Projects/Blockchain/Projects/Natanedu/smartcontractsdemo/contracts/NatanStudent.sol",
  "compiler": {
    "name": "solc",
    "version": "0.4.24+commit.e67f0147.Emscripten.clang"
  },
  "schemaVersion": "2.0.1",
  "updatedAt": "2019-01-03T12:06:35.510Z"
}