{
  "contractName": "NatanStudent",
  "abi": [
    {
      "constant": true,
      "inputs": [
        {
          "name": "",
          "type": "address"
        }
      ],
      "name": "owners",
      "outputs": [
        {
          "name": "",
          "type": "bool"
        }
      ],
      "payable": false,
      "stateMutability": "view",
      "type": "function"
    },
    {
      "constant": true,
      "inputs": [
        {
          "name": "",
          "type": "uint256"
        }
      ],
      "name": "studentsAddress",
      "outputs": [
        {
          "name": "",
          "type": "address"
        }
      ],
      "payable": false,
      "stateMutability": "view",
      "type": "function"
    },
    {
      "constant": false,
      "inputs": [],
      "name": "renounceOwnership",
      "outputs": [],
      "payable": false,
      "stateMutability": "nonpayable",
      "type": "function"
    },
    {
      "constant": true,
      "inputs": [
        {
          "name": "",
          "type": "address"
        }
      ],
      "name": "listedStudents",
      "outputs": [
        {
          "name": "",
          "type": "uint256"
        }
      ],
      "payable": false,
      "stateMutability": "view",
      "type": "function"
    },
    {
      "constant": true,
      "inputs": [
        {
          "name": "",
          "type": "address"
        }
      ],
      "name": "students",
      "outputs": [
        {
          "name": "firstName",
          "type": "string"
        },
        {
          "name": "lastName",
          "type": "string"
        }
      ],
      "payable": false,
      "stateMutability": "view",
      "type": "function"
    },
    {
      "anonymous": false,
      "inputs": [
        {
          "indexed": true,
          "name": "student",
          "type": "address"
        }
      ],
      "name": "StudentRegistered",
      "type": "event"
    },
    {
      "anonymous": false,
      "inputs": [
        {
          "indexed": true,
          "name": "student",
          "type": "address"
        }
      ],
      "name": "StudentWhitelisted",
      "type": "event"
    },
    {
      "anonymous": false,
      "inputs": [
        {
          "indexed": true,
          "name": "student",
          "type": "address"
        }
      ],
      "name": "StudentBlacklisted",
      "type": "event"
    },
    {
      "anonymous": false,
      "inputs": [
        {
          "indexed": true,
          "name": "previousOwner",
          "type": "address"
        }
      ],
      "name": "OwnershipRenounced",
      "type": "event"
    },
    {
      "anonymous": false,
      "inputs": [
        {
          "indexed": true,
          "name": "previousOwner",
          "type": "address"
        },
        {
          "indexed": true,
          "name": "newOwner",
          "type": "address"
        }
      ],
      "name": "OwnershipTransferred",
      "type": "event"
    },
    {
      "constant": false,
      "inputs": [
        {
          "name": "_add",
          "type": "address"
        },
        {
          "name": "_name",
          "type": "string"
        },
        {
          "name": "_lastName",
          "type": "string"
        }
      ],
      "name": "registerStudent",
      "outputs": [],
      "payable": false,
      "stateMutability": "nonpayable",
      "type": "function"
    },
    {
      "constant": false,
      "inputs": [
        {
          "name": "_studentAdd",
          "type": "address"
        }
      ],
      "name": "whiteListStudent",
      "outputs": [],
      "payable": false,
      "stateMutability": "nonpayable",
      "type": "function"
    },
    {
      "constant": false,
      "inputs": [
        {
          "name": "_studentAdd",
          "type": "address"
        }
      ],
      "name": "blackListStudent",
      "outputs": [],
      "payable": false,
      "stateMutability": "nonpayable",
      "type": "function"
    },
    {
      "constant": true,
      "inputs": [],
      "name": "getStudentsCount",
      "outputs": [
        {
          "name": "",
          "type": "uint256"
        }
      ],
      "payable": false,
      "stateMutability": "view",
      "type": "function"
    }
  ],
  "bytecode": "0x60806040908152336000908152602081905220805460ff19166001179055610ce08061002c6000396000f3fe6080604052600436106100985763ffffffff7c0100000000000000000000000000000000000000000000000000000000600035041663022914a7811461009d5780632ae7b900146100e4578063499ab70014610230578063715018a614610276578063723836961461028b5780639549af3e146102be5780639828cd1514610303578063a6c807a914610318578063e49a5ab814610429575b600080fd5b3480156100a957600080fd5b506100d0600480360360208110156100c057600080fd5b5035600160a060020a031661045c565b604080519115158252519081900360200190f35b3480156100f057600080fd5b5061022e6004803603606081101561010757600080fd5b600160a060020a03823516919081019060408101602082013564010000000081111561013257600080fd5b82018360208201111561014457600080fd5b8035906020019184600183028401116401000000008311171561016657600080fd5b91908080601f01602080910402602001604051908101604052809392919081815260200183838082843760009201919091525092959493602081019350359150506401000000008111156101b957600080fd5b8201836020820111156101cb57600080fd5b803590602001918460018302840111640100000000831117156101ed57600080fd5b91908080601f016020809104026020016040519081016040528093929190818152602001838380828437600092019190915250929550610471945050505050565b005b34801561023c57600080fd5b5061025a6004803603602081101561025357600080fd5b5035610630565b60408051600160a060020a039092168252519081900360200190f35b34801561028257600080fd5b5061022e610658565b34801561029757600080fd5b5061022e600480360360208110156102ae57600080fd5b5035600160a060020a031661072e565b3480156102ca57600080fd5b506102f1600480360360208110156102e157600080fd5b5035600160a060020a03166108fb565b60408051918252519081900360200190f35b34801561030f57600080fd5b506102f161090d565b34801561032457600080fd5b5061034b6004803603602081101561033b57600080fd5b5035600160a060020a0316610914565b604051808060200180602001838103835285818151815260200191508051906020019080838360005b8381101561038c578181015183820152602001610374565b50505050905090810190601f1680156103b95780820380516001836020036101000a031916815260200191505b50838103825284518152845160209182019186019080838360005b838110156103ec5781810151838201526020016103d4565b50505050905090810190601f1680156104195780820380516001836020036101000a031916815260200191505b5094505050505060405180910390f35b34801561043557600080fd5b5061022e6004803603602081101561044c57600080fd5b5035600160a060020a0316610a4e565b60006020819052908152604090205460ff1681565b600160a060020a03831615156104d1576040805160e560020a62461bcd02815260206004820152600f60248201527f496e76616c696420616464726573730000000000000000000000000000000000604482015290519081900360640190fd5b600160a060020a0383166000908152600360205260409020541561053f576040805160e560020a62461bcd02815260206004820152601a60248201527f53747564656e7420616c72656164792072656769737465726564000000000000604482015290519081900360640190fd5b6040805180820182528381526020808201849052600160a060020a03861660009081526001825292909220815180519293919261057f9284920190610c1c565b5060208281015180516105989260018501920190610c1c565b5050600280546001810182557f405787fa12a823e0f2b7631cc41b3ba8828b3321ca811111fa75cd3aa3bb5ace01805473ffffffffffffffffffffffffffffffffffffffff1916600160a060020a0387169081179091556000818152600360205260408082209390935591519092507f413281c709cf2c555b5d6d90e43f841b9ed7d34daa82e221aedbb3773082fcc89190a2505050565b600280548290811061063e57fe5b600091825260209091200154600160a060020a0316905081565b3360009081526020819052604090205460ff1615156001146106ea576040805160e560020a62461bcd02815260206004820152602b60248201527f74686973206163636f756e7420646f6573206e6f7420686176652061646d696e60448201527f2070726976696c65676573000000000000000000000000000000000000000000606482015290519081900360840190fd5b60405133907ff8df31144d9c2f0f6b59d69b8b98abd5459d07f2742c4df920b25aae33c6482090600090a2336000908152602081905260409020805460ff19169055565b3360009081526020819052604090205460ff1615156001146107c0576040805160e560020a62461bcd02815260206004820152602b60248201527f74686973206163636f756e7420646f6573206e6f7420686176652061646d696e60448201527f2070726976696c65676573000000000000000000000000000000000000000000606482015290519081900360840190fd5b600160a060020a0381161515610820576040805160e560020a62461bcd02815260206004820152600f60248201527f496e76616c696420616464726573730000000000000000000000000000000000604482015290519081900360640190fd5b600160a060020a03811660009081526003602081905260409091205414806108605750600160a060020a0381166000908152600360205260409020546002145b15156108b6576040805160e560020a62461bcd02815260206004820152601860248201527f73747564656e74206973206e6f7420617661696c61626c650000000000000000604482015290519081900360640190fd5b600160a060020a03811660008181526003602052604080822060019055517fb158cb7e7ade33a18d48ec08211faabea461b04f67ac4cf80ba84e6fc54b11f09190a250565b60036020526000908152604090205481565b6002545b90565b60016020818152600092835260409283902080548451600294821615610100026000190190911693909304601f81018390048302840183019094528383529283918301828280156109a65780601f1061097b576101008083540402835291602001916109a6565b820191906000526020600020905b81548152906001019060200180831161098957829003601f168201915b505050505090806001018054600181600116156101000203166002900480601f016020809104026020016040519081016040528092919081815260200182805460018160011615610100020316600290048015610a445780601f10610a1957610100808354040283529160200191610a44565b820191906000526020600020905b815481529060010190602001808311610a2757829003601f168201915b5050505050905082565b3360009081526020819052604090205460ff161515600114610ae0576040805160e560020a62461bcd02815260206004820152602b60248201527f74686973206163636f756e7420646f6573206e6f7420686176652061646d696e60448201527f2070726976696c65676573000000000000000000000000000000000000000000606482015290519081900360840190fd5b600160a060020a0381161515610b40576040805160e560020a62461bcd02815260206004820152600f60248201527f496e76616c696420616464726573730000000000000000000000000000000000604482015290519081900360640190fd5b600160a060020a03811660009081526003602052604090205460011480610b7f5750600160a060020a0381166000908152600360205260409020546002145b1515610bd5576040805160e560020a62461bcd02815260206004820152601260248201527f53747564656e74206e6f7420666f756e64210000000000000000000000000000604482015290519081900360640190fd5b600160a060020a038116600081815260036020819052604080832091909155517f79e4f6717fda32586e7b681a3af995b1f8a0af92c8c50c0d46866962f1bb83f09190a250565b828054600181600116156101000203166002900490600052602060002090601f016020900481019282601f10610c5d57805160ff1916838001178555610c8a565b82800160010185558215610c8a579182015b82811115610c8a578251825591602001919060010190610c6f565b50610c96929150610c9a565b5090565b61091191905b80821115610c965760008155600101610ca056fea165627a7a7230582025a6a54740cf8166238a79069b73f5eeefafecf297900ebbbedc28b1083987760029",
  "source": "pragma solidity ^0.5.0;\n\nimport \"./utils/SafeMath.sol\";\nimport \"./utils/Control.sol\";\n\n/** @title NatanStudent */\ncontract NatanStudent is Control {\n\n    ///@notice student structure\n    struct Student {\n        string firstName;\n        string lastName;\n    }\n\n    ///@notice list of students\n    mapping(address => Student) public students; \n\n    address[] public studentsAddress;\n\n    ///@notice list of listed students: 1=blacklisted, 2=in process, 3=whitelisted \n    mapping(address => uint) public listedStudents;\n\n    event StudentRegistered(address indexed student);\n    event StudentWhitelisted(address indexed student);\n    event StudentBlacklisted(address indexed student);\n\n    /**\n     * @dev register student\n     * @param _add student address\n     * @param _name student name\n     * @param _lastName student last name\n     */\n    function registerStudent(address _add, string memory _name, string memory _lastName) public {\n        require(_add != address(0), \"Invalid address\");\n        require(listedStudents[_add] == 0, \"Student already registered\");\n\n        //add student\n        students[_add] = Student(_name, _lastName);\n        //save student address\n        studentsAddress.push(_add);\n        //mark student listing in progress\n        listedStudents[_add] = 2;\n\n        emit StudentRegistered(_add);\n    }\n\n    /**\n     * @dev whitelist student\n     * @param _studentAdd address of student\n     */\n    function whiteListStudent(address _studentAdd) external onlyOwner {\n        require(_studentAdd != address(0), \"Invalid address\");\n        require((listedStudents[_studentAdd] == 1) || (listedStudents[_studentAdd] == 2), \"Student not found!\");\n\n        listedStudents[_studentAdd] = 3;\n\n        emit StudentWhitelisted(_studentAdd);\n    }\n\n    /**\n     * @dev blacklist student\n     * @param _studentAdd address of student\n     */\n    function blackListStudent(address _studentAdd) external onlyOwner {\n        require(_studentAdd != address(0), \"Invalid address\");\n        require((listedStudents[_studentAdd] == 3) || (listedStudents[_studentAdd] == 2), \"student is not available\");\n        \n        listedStudents[_studentAdd] = 1;\n\n        emit StudentBlacklisted(_studentAdd);\n    }\n\n     /**\n     * @dev function that return number of student registered\n     * @return number of students\n     */\n    function getStudentsCount() external view returns (uint256) {\n        return studentsAddress.length;\n    }\n\n}\n",
  "sourcePath": "/home/haythem96/Projects/Blockchain/Projects/Natanedu/smartcontractsdemo/contracts/NatanStudent.sol",
  "compiler": {
    "name": "solc",
    "version": "0.5.0+commit.1d4f565a.Emscripten.clang"
  },
  "schemaVersion": "3.0.1",
  "updatedAt": "2019-02-03T10:36:07.708Z",
  "devdoc": {
    "methods": {
      "blackListStudent(address)": {
        "details": "blacklist student",
        "params": {
          "_studentAdd": "address of student"
        }
      },
      "getStudentsCount()": {
        "details": "function that return number of student registered",
        "return": "number of students"
      },
      "registerStudent(address,string,string)": {
        "details": "register student",
        "params": {
          "_add": "student address",
          "_lastName": "student last name",
          "_name": "student name"
        }
      },
      "renounceOwnership()": {
        "details": "Allows the current owner to relinquish control of the contract."
      },
      "whiteListStudent(address)": {
        "details": "whitelist student",
        "params": {
          "_studentAdd": "address of student"
        }
      }
    },
    "title": "NatanStudent "
  },
  "userdoc": {
    "methods": {}
  }
}