{
  "contractName": "NatanLecture",
  "abi": [
    {
      "constant": true,
      "inputs": [
        {
          "name": "",
          "type": "address"
        }
      ],
      "name": "owners",
      "outputs": [
        {
          "name": "",
          "type": "bool"
        }
      ],
      "payable": false,
      "stateMutability": "view",
      "type": "function",
      "signature": "0x022914a7"
    },
    {
      "constant": true,
      "inputs": [
        {
          "name": "_topic",
          "type": "string"
        }
      ],
      "name": "getByTopic",
      "outputs": [
        {
          "name": "",
          "type": "address[]"
        }
      ],
      "payable": false,
      "stateMutability": "view",
      "type": "function",
      "signature": "0x0284ef38"
    },
    {
      "constant": false,
      "inputs": [
        {
          "name": "_teacherAdd",
          "type": "address"
        }
      ],
      "name": "whiteListTeacher",
      "outputs": [],
      "payable": false,
      "stateMutability": "nonpayable",
      "type": "function",
      "signature": "0x0909e248"
    },
    {
      "constant": false,
      "inputs": [
        {
          "name": "_add",
          "type": "address"
        },
        {
          "name": "_name",
          "type": "string"
        },
        {
          "name": "_lastName",
          "type": "string"
        },
        {
          "name": "_region",
          "type": "string"
        },
        {
          "name": "_topic",
          "type": "string"
        },
        {
          "name": "_language",
          "type": "string"
        },
        {
          "name": "_minPrice",
          "type": "uint256"
        },
        {
          "name": "_maxPrice",
          "type": "uint256"
        }
      ],
      "name": "registerTeacher",
      "outputs": [],
      "payable": false,
      "stateMutability": "nonpayable",
      "type": "function",
      "signature": "0x2667b14a"
    },
    {
      "constant": false,
      "inputs": [
        {
          "name": "_add",
          "type": "address"
        },
        {
          "name": "_name",
          "type": "string"
        },
        {
          "name": "_lastName",
          "type": "string"
        }
      ],
      "name": "registerStudent",
      "outputs": [],
      "payable": false,
      "stateMutability": "nonpayable",
      "type": "function",
      "signature": "0x2ae7b900"
    },
    {
      "constant": true,
      "inputs": [
        {
          "name": "",
          "type": "uint256"
        }
      ],
      "name": "teachersAddress",
      "outputs": [
        {
          "name": "",
          "type": "address"
        }
      ],
      "payable": false,
      "stateMutability": "view",
      "type": "function",
      "signature": "0x4f2be468"
    },
    {
      "constant": false,
      "inputs": [
        {
          "name": "_teacherAdd",
          "type": "address"
        }
      ],
      "name": "blackListTeacher",
      "outputs": [],
      "payable": false,
      "stateMutability": "nonpayable",
      "type": "function",
      "signature": "0x63bad5ca"
    },
    {
      "constant": false,
      "inputs": [],
      "name": "renounceOwnership",
      "outputs": [],
      "payable": false,
      "stateMutability": "nonpayable",
      "type": "function",
      "signature": "0x715018a6"
    },
    {
      "constant": false,
      "inputs": [
        {
          "name": "_studentAdd",
          "type": "address"
        }
      ],
      "name": "blackListStudent",
      "outputs": [],
      "payable": false,
      "stateMutability": "nonpayable",
      "type": "function",
      "signature": "0x72383696"
    },
    {
      "constant": true,
      "inputs": [
        {
          "name": "",
          "type": "address"
        }
      ],
      "name": "listedTeachers",
      "outputs": [
        {
          "name": "",
          "type": "uint256"
        }
      ],
      "payable": false,
      "stateMutability": "view",
      "type": "function",
      "signature": "0x7f72e4d2"
    },
    {
      "constant": true,
      "inputs": [
        {
          "name": "_language",
          "type": "string"
        }
      ],
      "name": "getByLanguage",
      "outputs": [
        {
          "name": "",
          "type": "address[]"
        }
      ],
      "payable": false,
      "stateMutability": "view",
      "type": "function",
      "signature": "0x928a0276"
    },
    {
      "constant": true,
      "inputs": [
        {
          "name": "",
          "type": "address"
        }
      ],
      "name": "listedStudents",
      "outputs": [
        {
          "name": "",
          "type": "uint256"
        }
      ],
      "payable": false,
      "stateMutability": "view",
      "type": "function",
      "signature": "0x9549af3e"
    },
    {
      "constant": true,
      "inputs": [
        {
          "name": "",
          "type": "address"
        }
      ],
      "name": "students",
      "outputs": [
        {
          "name": "firstName",
          "type": "string"
        },
        {
          "name": "lastName",
          "type": "string"
        }
      ],
      "payable": false,
      "stateMutability": "view",
      "type": "function",
      "signature": "0xa6c807a9"
    },
    {
      "constant": true,
      "inputs": [
        {
          "name": "",
          "type": "address"
        }
      ],
      "name": "teacherBalance",
      "outputs": [
        {
          "name": "",
          "type": "uint256"
        }
      ],
      "payable": false,
      "stateMutability": "view",
      "type": "function",
      "signature": "0xaa1db8f6"
    },
    {
      "constant": true,
      "inputs": [],
      "name": "getTeachersCount",
      "outputs": [
        {
          "name": "",
          "type": "uint256"
        }
      ],
      "payable": false,
      "stateMutability": "view",
      "type": "function",
      "signature": "0xaace7180"
    },
    {
      "constant": true,
      "inputs": [],
      "name": "lecturesId",
      "outputs": [
        {
          "name": "",
          "type": "uint256"
        }
      ],
      "payable": false,
      "stateMutability": "view",
      "type": "function",
      "signature": "0xdd317fde"
    },
    {
      "constant": false,
      "inputs": [
        {
          "name": "_studentAdd",
          "type": "address"
        }
      ],
      "name": "whiteListStudent",
      "outputs": [],
      "payable": false,
      "stateMutability": "nonpayable",
      "type": "function",
      "signature": "0xe49a5ab8"
    },
    {
      "constant": true,
      "inputs": [
        {
          "name": "",
          "type": "address"
        }
      ],
      "name": "teachers",
      "outputs": [
        {
          "name": "firstName",
          "type": "string"
        },
        {
          "name": "lastName",
          "type": "string"
        },
        {
          "name": "region",
          "type": "string"
        },
        {
          "name": "topic",
          "type": "string"
        },
        {
          "name": "language",
          "type": "string"
        },
        {
          "name": "minPrice",
          "type": "uint256"
        },
        {
          "name": "maxPrice",
          "type": "uint256"
        }
      ],
      "payable": false,
      "stateMutability": "view",
      "type": "function",
      "signature": "0xf0a47f78"
    },
    {
      "constant": true,
      "inputs": [
        {
          "name": "_topic",
          "type": "string"
        },
        {
          "name": "_language",
          "type": "string"
        }
      ],
      "name": "getByTopicLanguage",
      "outputs": [
        {
          "name": "",
          "type": "address[]"
        }
      ],
      "payable": false,
      "stateMutability": "view",
      "type": "function",
      "signature": "0xffcc563c"
    },
    {
      "anonymous": false,
      "inputs": [
        {
          "indexed": true,
          "name": "teacher",
          "type": "address"
        },
        {
          "indexed": true,
          "name": "student",
          "type": "address"
        },
        {
          "indexed": false,
          "name": "lectureId",
          "type": "uint256"
        }
      ],
      "name": "lecturePaid",
      "type": "event",
      "signature": "0x0d6bf6e43205c432532b19e5291ba088ae756474670de6eb826382badf833402"
    },
    {
      "anonymous": false,
      "inputs": [
        {
          "indexed": true,
          "name": "teacher",
          "type": "address"
        }
      ],
      "name": "Transfer",
      "type": "event",
      "signature": "0x2d339b1e3334d3f43e7aa6d5b1fa3ca5e4228b2dd547d1710c726019d98e53fa"
    },
    {
      "anonymous": false,
      "inputs": [
        {
          "indexed": true,
          "name": "teacher",
          "type": "address"
        }
      ],
      "name": "TeacherWhitelisted",
      "type": "event",
      "signature": "0x60809b1f44f4a1a1316cf3fc1e6b860494e214ec345ad91e5ba0254a01f5a2b1"
    },
    {
      "anonymous": false,
      "inputs": [
        {
          "indexed": true,
          "name": "teacher",
          "type": "address"
        }
      ],
      "name": "TeacherBlacklisted",
      "type": "event",
      "signature": "0x431ae4a4895e482440703d9da4a23b1bdf6055cd269d2be49db69a18e5767452"
    },
    {
      "anonymous": false,
      "inputs": [
        {
          "indexed": true,
          "name": "teacher",
          "type": "address"
        }
      ],
      "name": "RegisteredTeacher",
      "type": "event",
      "signature": "0x00899eba62073a4a8b6878c7c1f8b7453a286cf4e095fa16a43e08d5235c9c7e"
    },
    {
      "anonymous": false,
      "inputs": [
        {
          "indexed": true,
          "name": "student",
          "type": "address"
        }
      ],
      "name": "StudentRegistered",
      "type": "event",
      "signature": "0x413281c709cf2c555b5d6d90e43f841b9ed7d34daa82e221aedbb3773082fcc8"
    },
    {
      "anonymous": false,
      "inputs": [
        {
          "indexed": true,
          "name": "student",
          "type": "address"
        }
      ],
      "name": "StudentWhitelisted",
      "type": "event",
      "signature": "0x79e4f6717fda32586e7b681a3af995b1f8a0af92c8c50c0d46866962f1bb83f0"
    },
    {
      "anonymous": false,
      "inputs": [
        {
          "indexed": true,
          "name": "student",
          "type": "address"
        }
      ],
      "name": "StudentBlacklisted",
      "type": "event",
      "signature": "0xb158cb7e7ade33a18d48ec08211faabea461b04f67ac4cf80ba84e6fc54b11f0"
    },
    {
      "anonymous": false,
      "inputs": [
        {
          "indexed": true,
          "name": "previousOwner",
          "type": "address"
        }
      ],
      "name": "OwnershipRenounced",
      "type": "event",
      "signature": "0xf8df31144d9c2f0f6b59d69b8b98abd5459d07f2742c4df920b25aae33c64820"
    },
    {
      "anonymous": false,
      "inputs": [
        {
          "indexed": true,
          "name": "previousOwner",
          "type": "address"
        },
        {
          "indexed": true,
          "name": "newOwner",
          "type": "address"
        }
      ],
      "name": "OwnershipTransferred",
      "type": "event",
      "signature": "0x8be0079c531659141344cd1fd0a4f28419497f9722a3daafe3b4186f6b6457e0"
    },
    {
      "constant": false,
      "inputs": [],
      "name": "generateLectureId",
      "outputs": [
        {
          "name": "",
          "type": "uint256"
        }
      ],
      "payable": false,
      "stateMutability": "nonpayable",
      "type": "function",
      "signature": "0x9771ad28"
    },
    {
      "constant": false,
      "inputs": [
        {
          "name": "_lectureId",
          "type": "uint256"
        },
        {
          "name": "_lecturePrice",
          "type": "uint256"
        },
        {
          "name": "_student",
          "type": "address"
        },
        {
          "name": "_teacher",
          "type": "address"
        }
      ],
      "name": "payLecture",
      "outputs": [],
      "payable": true,
      "stateMutability": "payable",
      "type": "function",
      "signature": "0x70690a72"
    },
    {
      "constant": false,
      "inputs": [
        {
          "name": "_amount",
          "type": "uint256"
        }
      ],
      "name": "transfer",
      "outputs": [],
      "payable": false,
      "stateMutability": "nonpayable",
      "type": "function",
      "signature": "0x12514bba"
    }
  ],
  "bytecode": "0x6080604090815260006007819055338152602081905220805460ff1916600117905561306a806100306000396000f3fe6080604052600436106101275763ffffffff7c0100000000000000000000000000000000000000000000000000000000600035041663022914a7811461012c5780630284ef38146101735780630909e2481461024057806312514bba146102755780632667b14a1461029f5780632ae7b900146105845780634f2be468146106ce57806363bad5ca1461071457806370690a7214610747578063715018a61461078157806372383696146107965780637f72e4d2146107c9578063928a02761461080e5780639549af3e1461088b5780639771ad28146108be578063a6c807a9146108d3578063aa1db8f6146109e4578063aace718014610a17578063dd317fde14610a2c578063e49a5ab814610a41578063f0a47f7814610a74578063ffcc563c14610cc5575b600080fd5b34801561013857600080fd5b5061015f6004803603602081101561014f57600080fd5b5035600160a060020a0316610d94565b604080519115158252519081900360200190f35b34801561017f57600080fd5b506101f06004803603602081101561019657600080fd5b8101906020810181356401000000008111156101b157600080fd5b8201836020820111156101c357600080fd5b803590602001918460018302840111640100000000831117156101e557600080fd5b509092509050610da9565b60408051602080825283518183015283519192839290830191858101910280838360005b8381101561022c578181015183820152602001610214565b505050509050019250505060405180910390f35b34801561024c57600080fd5b506102736004803603602081101561026357600080fd5b5035600160a060020a0316611240565b005b34801561028157600080fd5b506102736004803603602081101561029857600080fd5b50356113d6565b3480156102ab57600080fd5b5061027360048036036101008110156102c357600080fd5b600160a060020a0382351691908101906040810160208201356401000000008111156102ee57600080fd5b82018360208201111561030057600080fd5b8035906020019184600183028401116401000000008311171561032257600080fd5b91908080601f016020809104026020016040519081016040528093929190818152602001838380828437600092019190915250929594936020810193503591505064010000000081111561037557600080fd5b82018360208201111561038757600080fd5b803590602001918460018302840111640100000000831117156103a957600080fd5b91908080601f01602080910402602001604051908101604052809392919081815260200183838082843760009201919091525092959493602081019350359150506401000000008111156103fc57600080fd5b82018360208201111561040e57600080fd5b8035906020019184600183028401116401000000008311171561043057600080fd5b91908080601f016020809104026020016040519081016040528093929190818152602001838380828437600092019190915250929594936020810193503591505064010000000081111561048357600080fd5b82018360208201111561049557600080fd5b803590602001918460018302840111640100000000831117156104b757600080fd5b91908080601f016020809104026020016040519081016040528093929190818152602001838380828437600092019190915250929594936020810193503591505064010000000081111561050a57600080fd5b82018360208201111561051c57600080fd5b8035906020019184600183028401116401000000008311171561053e57600080fd5b91908080601f01602080910402602001604051908101604052809392919081815260200183838082843760009201919091525092955050823593505050602001356114b1565b34801561059057600080fd5b50610273600480360360608110156105a757600080fd5b600160a060020a0382351691908101906040810160208201356401000000008111156105d257600080fd5b8201836020820111156105e457600080fd5b8035906020019184600183028401116401000000008311171561060657600080fd5b91908080601f016020809104026020016040519081016040528093929190818152602001838380828437600092019190915250929594936020810193503591505064010000000081111561065957600080fd5b82018360208201111561066b57600080fd5b8035906020019184600183028401116401000000008311171561068d57600080fd5b91908080601f0160208091040260200160405190810160405280939291908181526020018383808284376000920191909152509295506116f1945050505050565b3480156106da57600080fd5b506106f8600480360360208110156106f157600080fd5b5035611852565b60408051600160a060020a039092168252519081900360200190f35b34801561072057600080fd5b506102736004803603602081101561073757600080fd5b5035600160a060020a031661187a565b6102736004803603608081101561075d57600080fd5b50803590602081013590600160a060020a0360408201358116916060013516611a10565b34801561078d57600080fd5b50610273611bef565b3480156107a257600080fd5b50610273600480360360208110156107b957600080fd5b5035600160a060020a0316611ca1565b3480156107d557600080fd5b506107fc600480360360208110156107ec57600080fd5b5035600160a060020a0316611e38565b60408051918252519081900360200190f35b34801561081a57600080fd5b506101f06004803603602081101561083157600080fd5b81019060208101813564010000000081111561084c57600080fd5b82018360208201111561085e57600080fd5b8035906020019184600183028401116401000000008311171561088057600080fd5b509092509050611e4a565b34801561089757600080fd5b506107fc600480360360208110156108ae57600080fd5b5035600160a060020a03166122d7565b3480156108ca57600080fd5b506107fc6122e9565b3480156108df57600080fd5b50610906600480360360208110156108f657600080fd5b5035600160a060020a031661230b565b604051808060200180602001838103835285818151815260200191508051906020019080838360005b8381101561094757818101518382015260200161092f565b50505050905090810190601f1680156109745780820380516001836020036101000a031916815260200191505b50838103825284518152845160209182019186019080838360005b838110156109a757818101518382015260200161098f565b50505050905090810190601f1680156109d45780820380516001836020036101000a031916815260200191505b5094505050505060405180910390f35b3480156109f057600080fd5b506107fc60048036036020811015610a0757600080fd5b5035600160a060020a0316612445565b348015610a2357600080fd5b506107fc612457565b348015610a3857600080fd5b506107fc61245d565b348015610a4d57600080fd5b5061027360048036036020811015610a6457600080fd5b5035600160a060020a0316612463565b348015610a8057600080fd5b50610aa760048036036020811015610a9757600080fd5b5035600160a060020a03166125fa565b60405180806020018060200180602001806020018060200188815260200187815260200186810386528d818151815260200191508051906020019080838360005b83811015610b00578181015183820152602001610ae8565b50505050905090810190601f168015610b2d5780820380516001836020036101000a031916815260200191505b5086810385528c5181528c516020918201918e019080838360005b83811015610b60578181015183820152602001610b48565b50505050905090810190601f168015610b8d5780820380516001836020036101000a031916815260200191505b5086810384528b5181528b516020918201918d019080838360005b83811015610bc0578181015183820152602001610ba8565b50505050905090810190601f168015610bed5780820380516001836020036101000a031916815260200191505b5086810383528a5181528a516020918201918c019080838360005b83811015610c20578181015183820152602001610c08565b50505050905090810190601f168015610c4d5780820380516001836020036101000a031916815260200191505b5086810382528951815289516020918201918b019080838360005b83811015610c80578181015183820152602001610c68565b50505050905090810190601f168015610cad5780820380516001836020036101000a031916815260200191505b509c5050505050505050505050505060405180910390f35b348015610cd157600080fd5b506101f060048036036040811015610ce857600080fd5b810190602081018135640100000000811115610d0357600080fd5b820183602082011115610d1557600080fd5b80359060200191846001830284011164010000000083111715610d3757600080fd5b919390929091602081019035640100000000811115610d5557600080fd5b820183602082011115610d6757600080fd5b80359060200191846001830284011164010000000083111715610d8957600080fd5b5090925090506128f7565b60006020819052908152604090205460ff1681565b606080600480549050604051908082528060200260200182016040528015610ddb578160200160208202803883390190505b5090506000805b60045481101561123657610df4612f08565b60036000600484815481101515610e0757fe5b600091825260208083209190910154600160a060020a031683528281019390935260409182019020815181546002610100600183161581026000190190921604601f81018690049095028201810190935260e081018481529093919284928491840182828015610eb85780601f10610e8d57610100808354040283529160200191610eb8565b820191906000526020600020905b815481529060010190602001808311610e9b57829003601f168201915b50505050508152602001600182018054600181600116156101000203166002900480601f016020809104026020016040519081016040528092919081815260200182805460018160011615610100020316600290048015610f5a5780601f10610f2f57610100808354040283529160200191610f5a565b820191906000526020600020905b815481529060010190602001808311610f3d57829003601f168201915b5050509183525050600282810180546040805160206001841615610100026000190190931694909404601f81018390048302850183019091528084529381019390830182828015610fec5780601f10610fc157610100808354040283529160200191610fec565b820191906000526020600020905b815481529060010190602001808311610fcf57829003601f168201915b505050918352505060038201805460408051602060026001851615610100026000190190941693909304601f81018490048402820184019092528181529382019392918301828280156110805780601f1061105557610100808354040283529160200191611080565b820191906000526020600020905b81548152906001019060200180831161106357829003601f168201915b505050918352505060048201805460408051602060026001851615610100026000190190941693909304601f81018490048402820184019092528181529382019392918301828280156111145780601f106110e957610100808354040283529160200191611114565b820191906000526020600020905b8154815290600101906020018083116110f757829003601f168201915b5050505050815260200160058201548152602001600682015481525050905086866040516020018083838082843780830192505050925050506040516020818303038152906040528051906020012081606001516040516020018082805190602001908083835b6020831061119a5780518252601f19909201916020918201910161117b565b6001836020036101000a03801982511681845116808217855250505050505090500191505060405160208183030381529060405280519060200120141561122d5760048054839081106111e957fe5b6000918252602090912001548451600160a060020a039091169085908590811061120f57fe5b600160a060020a039092166020928302909101909101526001909201915b50600101610de2565b5090949350505050565b3360009081526020819052604090205460ff1615156001146112ae576040805160e560020a62461bcd02815260206004820152602b6024820152600080516020612fff833981519152604482015260008051602061301f833981519152606482015290519081900360840190fd5b600160a060020a03811615156112fc576040805160e560020a62461bcd02815260206004820152600f6024820152600080516020612fdf833981519152604482015290519081900360640190fd5b600160a060020a0381166000908152600560205260409020546001148061133b5750600160a060020a0381166000908152600560205260409020546002145b1515611391576040805160e560020a62461bcd02815260206004820152601260248201527f54656163686572206e6f7420666f756e64210000000000000000000000000000604482015290519081900360640190fd5b600160a060020a03811660008181526005602052604080822060039055517f60809b1f44f4a1a1316cf3fc1e6b860494e214ec345ad91e5ba0254a01f5a2b19190a250565b3360009081526005602052604090205460031461143d576040805160e560020a62461bcd02815260206004820152601660248201527f54656163686572206e6f7420617574686f72697a656400000000000000000000604482015290519081900360640190fd5b336000908152600660205260409020548111156114a4576040805160e560020a62461bcd02815260206004820152601f60248201527f546561636865722062616c616e636520697320696e73756666696369656e7400604482015290519081900360640190fd5b6114ae3382612e3b565b50565b600160a060020a03881615156114ff576040805160e560020a62461bcd02815260206004820152600f6024820152600080516020612fdf833981519152604482015290519081900360640190fd5b600160a060020a0388166000908152600560205260409020541561156d576040805160e560020a62461bcd02815260206004820152601a60248201527f5465616368657220616c72656164792072656769737465726564000000000000604482015290519081900360640190fd5b6040805160e0810182528881526020808201899052818301889052606082018790526080820186905260a0820185905260c08201849052600160a060020a038b166000908152600382529290922081518051929391926115d09284920190612f46565b5060208281015180516115e99260018501920190612f46565b5060408201518051611605916002840191602090910190612f46565b5060608201518051611621916003840191602090910190612f46565b506080820151805161163d916004840191602090910190612f46565b5060a082015160058281019190915560c09092015160069091015560048054600181019091557f8a35acfbc15ff81a39ae7d344fd709f28e8600b4aa8c65c6b64bfe7fe36bd19b01805473ffffffffffffffffffffffffffffffffffffffff1916600160a060020a038b1690811790915560008181526020929092526040808320600290555190917e899eba62073a4a8b6878c7c1f8b7453a286cf4e095fa16a43e08d5235c9c7e91a25050505050505050565b600160a060020a038316151561173f576040805160e560020a62461bcd02815260206004820152600f6024820152600080516020612fdf833981519152604482015290519081900360640190fd5b600160a060020a038316600090815260026020526040902054156117ad576040805160e560020a62461bcd02815260206004820152601a60248201527f53747564656e7420616c72656164792072656769737465726564000000000000604482015290519081900360640190fd5b6040805180820182528381526020808201849052600160a060020a0386166000908152600182529290922081518051929391926117ed9284920190612f46565b5060208281015180516118069260018501920190612f46565b505050600160a060020a038316600081815260026020819052604080832091909155517f413281c709cf2c555b5d6d90e43f841b9ed7d34daa82e221aedbb3773082fcc89190a2505050565b600480548290811061186057fe5b600091825260209091200154600160a060020a0316905081565b3360009081526020819052604090205460ff1615156001146118e8576040805160e560020a62461bcd02815260206004820152602b6024820152600080516020612fff833981519152604482015260008051602061301f833981519152606482015290519081900360840190fd5b600160a060020a0381161515611936576040805160e560020a62461bcd02815260206004820152600f6024820152600080516020612fdf833981519152604482015290519081900360640190fd5b600160a060020a038116600090815260056020526040902054600314806119755750600160a060020a0381166000908152600560205260409020546002145b15156119cb576040805160e560020a62461bcd02815260206004820152601860248201527f54656163686572206973206e6f7420617661696c61626c650000000000000000604482015290519081900360640190fd5b600160a060020a03811660008181526005602052604080822060019055517f431ae4a4895e482440703d9da4a23b1bdf6055cd269d2be49db69a18e57674529190a250565b348314611a8d576040805160e560020a62461bcd02815260206004820152602e60248201527f696e73756666696369656e7420616d6f756e74206f6620657468657220666f7260448201527f206c656374757265207072696365000000000000000000000000000000000000606482015290519081900360840190fd5b600160a060020a0381161515611aed576040805160e560020a62461bcd02815260206004820152601760248201527f696e76616c696420746561636865722061646472657373000000000000000000604482015290519081900360640190fd5b600160a060020a038116600090815260056020526040902054600314611b5d576040805160e560020a62461bcd02815260206004820152601160248201527f74656163686572206e6f7420666f756e64000000000000000000000000000000604482015290519081900360640190fd5b6000848152600860209081526040808320600160a060020a03868116808652918452828520805460ff1916600117905585168085526006845293829020805460646003349081029190910490819003909101909155825189815292519094919391927f0d6bf6e43205c432532b19e5291ba088ae756474670de6eb826382badf83340292908290030190a35050505050565b3360009081526020819052604090205460ff161515600114611c5d576040805160e560020a62461bcd02815260206004820152602b6024820152600080516020612fff833981519152604482015260008051602061301f833981519152606482015290519081900360840190fd5b60405133907ff8df31144d9c2f0f6b59d69b8b98abd5459d07f2742c4df920b25aae33c6482090600090a2336000908152602081905260409020805460ff19169055565b3360009081526020819052604090205460ff161515600114611d0f576040805160e560020a62461bcd02815260206004820152602b6024820152600080516020612fff833981519152604482015260008051602061301f833981519152606482015290519081900360840190fd5b600160a060020a0381161515611d5d576040805160e560020a62461bcd02815260206004820152600f6024820152600080516020612fdf833981519152604482015290519081900360640190fd5b600160a060020a03811660009081526002602052604090205460031480611d9d5750600160a060020a038116600090815260026020819052604090912054145b1515611df3576040805160e560020a62461bcd02815260206004820152601860248201527f73747564656e74206973206e6f7420617661696c61626c650000000000000000604482015290519081900360640190fd5b600160a060020a03811660008181526002602052604080822060019055517fb158cb7e7ade33a18d48ec08211faabea461b04f67ac4cf80ba84e6fc54b11f09190a250565b60056020526000908152604090205481565b606080600480549050604051908082528060200260200182016040528015611e7c578160200160208202803883390190505b5090506000805b60045481101561123657611e95612f08565b60036000600484815481101515611ea857fe5b600091825260208083209190910154600160a060020a031683528281019390935260409182019020815181546002610100600183161581026000190190921604601f81018690049095028201810190935260e081018481529093919284928491840182828015611f595780601f10611f2e57610100808354040283529160200191611f59565b820191906000526020600020905b815481529060010190602001808311611f3c57829003601f168201915b50505050508152602001600182018054600181600116156101000203166002900480601f016020809104026020016040519081016040528092919081815260200182805460018160011615610100020316600290048015611ffb5780601f10611fd057610100808354040283529160200191611ffb565b820191906000526020600020905b815481529060010190602001808311611fde57829003601f168201915b5050509183525050600282810180546040805160206001841615610100026000190190931694909404601f8101839004830285018301909152808452938101939083018282801561208d5780601f106120625761010080835404028352916020019161208d565b820191906000526020600020905b81548152906001019060200180831161207057829003601f168201915b505050918352505060038201805460408051602060026001851615610100026000190190941693909304601f81018490048402820184019092528181529382019392918301828280156121215780601f106120f657610100808354040283529160200191612121565b820191906000526020600020905b81548152906001019060200180831161210457829003601f168201915b505050918352505060048201805460408051602060026001851615610100026000190190941693909304601f81018490048402820184019092528181529382019392918301828280156121b55780601f1061218a576101008083540402835291602001916121b5565b820191906000526020600020905b81548152906001019060200180831161219857829003601f168201915b5050505050815260200160058201548152602001600682015481525050905086866040516020018083838082843780830192505050925050506040516020818303038152906040528051906020012081608001516040516020018082805190602001908083835b6020831061223b5780518252601f19909201916020918201910161221c565b6001836020036101000a0380198251168184511680821785525050505050509050019150506040516020818303038152906040528051906020012014156122ce57600480548390811061228a57fe5b6000918252602090912001548451600160a060020a03909116908590859081106122b057fe5b600160a060020a039092166020928302909101909101526001909201915b50600101611e83565b60026020526000908152604090205481565b60075460009061230090600163ffffffff612ee316565b600781905590505b90565b60016020818152600092835260409283902080548451600294821615610100026000190190911693909304601f810183900483028401830190945283835292839183018282801561239d5780601f106123725761010080835404028352916020019161239d565b820191906000526020600020905b81548152906001019060200180831161238057829003601f168201915b505050505090806001018054600181600116156101000203166002900480601f01602080910402602001604051908101604052809291908181526020018280546001816001161561010002031660029004801561243b5780601f106124105761010080835404028352916020019161243b565b820191906000526020600020905b81548152906001019060200180831161241e57829003601f168201915b5050505050905082565b60066020526000908152604090205481565b60045490565b60075481565b3360009081526020819052604090205460ff1615156001146124d1576040805160e560020a62461bcd02815260206004820152602b6024820152600080516020612fff833981519152604482015260008051602061301f833981519152606482015290519081900360840190fd5b600160a060020a038116151561251f576040805160e560020a62461bcd02815260206004820152600f6024820152600080516020612fdf833981519152604482015290519081900360640190fd5b600160a060020a0381166000908152600260205260409020546001148061255f5750600160a060020a038116600090815260026020819052604090912054145b15156125b5576040805160e560020a62461bcd02815260206004820152601260248201527f53747564656e74206e6f7420666f756e64210000000000000000000000000000604482015290519081900360640190fd5b600160a060020a03811660008181526002602052604080822060039055517f79e4f6717fda32586e7b681a3af995b1f8a0af92c8c50c0d46866962f1bb83f09190a250565b60036020908152600091825260409182902080548351601f600260001961010060018616150201909316929092049182018490048402810184019094528084529092918391908301828280156126915780601f1061266657610100808354040283529160200191612691565b820191906000526020600020905b81548152906001019060200180831161267457829003601f168201915b505050505090806001018054600181600116156101000203166002900480601f01602080910402602001604051908101604052809291908181526020018280546001816001161561010002031660029004801561272f5780601f106127045761010080835404028352916020019161272f565b820191906000526020600020905b81548152906001019060200180831161271257829003601f168201915b50505060028085018054604080516020601f60001961010060018716150201909416959095049283018590048502810185019091528181529596959450909250908301828280156127c15780601f10612796576101008083540402835291602001916127c1565b820191906000526020600020905b8154815290600101906020018083116127a457829003601f168201915b5050505060038301805460408051602060026001851615610100026000190190941693909304601f81018490048402820184019092528181529495949350908301828280156128515780601f1061282657610100808354040283529160200191612851565b820191906000526020600020905b81548152906001019060200180831161283457829003601f168201915b5050505060048301805460408051602060026001851615610100026000190190941693909304601f81018490048402820184019092528181529495949350908301828280156128e15780601f106128b6576101008083540402835291602001916128e1565b820191906000526020600020905b8154815290600101906020018083116128c457829003601f168201915b5050505050908060050154908060060154905087565b606080600480549050604051908082528060200260200182016040528015612929578160200160208202803883390190505b5090506000805b600454811015612e2f57612942612f08565b6003600060048481548110151561295557fe5b600091825260208083209190910154600160a060020a031683528281019390935260409182019020815181546002610100600183161581026000190190921604601f81018690049095028201810190935260e081018481529093919284928491840182828015612a065780601f106129db57610100808354040283529160200191612a06565b820191906000526020600020905b8154815290600101906020018083116129e957829003601f168201915b50505050508152602001600182018054600181600116156101000203166002900480601f016020809104026020016040519081016040528092919081815260200182805460018160011615610100020316600290048015612aa85780601f10612a7d57610100808354040283529160200191612aa8565b820191906000526020600020905b815481529060010190602001808311612a8b57829003601f168201915b5050509183525050600282810180546040805160206001841615610100026000190190931694909404601f81018390048302850183019091528084529381019390830182828015612b3a5780601f10612b0f57610100808354040283529160200191612b3a565b820191906000526020600020905b815481529060010190602001808311612b1d57829003601f168201915b505050918352505060038201805460408051602060026001851615610100026000190190941693909304601f8101849004840282018401909252818152938201939291830182828015612bce5780601f10612ba357610100808354040283529160200191612bce565b820191906000526020600020905b815481529060010190602001808311612bb157829003601f168201915b505050918352505060048201805460408051602060026001851615610100026000190190941693909304601f8101849004840282018401909252818152938201939291830182828015612c625780601f10612c3757610100808354040283529160200191612c62565b820191906000526020600020905b815481529060010190602001808311612c4557829003601f168201915b5050505050815260200160058201548152602001600682015481525050905088886040516020018083838082843780830192505050925050506040516020818303038152906040528051906020012081606001516040516020018082805190602001908083835b60208310612ce85780518252601f199092019160209182019101612cc9565b6001836020036101000a03801982511681845116808217855250505050505090500191505060405160208183030381529060405280519060200120148015612dcf575086866040516020018083838082843780830192505050925050506040516020818303038152906040528051906020012081608001516040516020018082805190602001908083835b60208310612d925780518252601f199092019160209182019101612d73565b6001836020036101000a03801982511681845116808217855250505050505090500191505060405160208183030381529060405280519060200120145b15612e26576004805483908110612de257fe5b6000918252602090912001548451600160a060020a0390911690859085908110612e0857fe5b600160a060020a039092166020928302909101909101526001909201915b50600101612930565b50909695505050505050565b604051600160a060020a0383169082156108fc029083906000818181858888f19350505050158015612e71573d6000803e3d6000fd5b50600160a060020a038216600090815260066020526040902054612e9b908263ffffffff612ef616565b600160a060020a03831660008181526006602052604080822093909355915190917f2d339b1e3334d3f43e7aa6d5b1fa3ca5e4228b2dd547d1710c726019d98e53fa91a25050565b81810182811015612ef057fe5b92915050565b600082821115612f0257fe5b50900390565b60e060405190810160405280606081526020016060815260200160608152602001606081526020016060815260200160008152602001600081525090565b828054600181600116156101000203166002900490600052602060002090601f016020900481019282601f10612f8757805160ff1916838001178555612fb4565b82800160010185558215612fb4579182015b82811115612fb4578251825591602001919060010190612f99565b50612fc0929150612fc4565b5090565b61230891905b80821115612fc05760008155600101612fca56fe496e76616c69642061646472657373000000000000000000000000000000000074686973206163636f756e7420646f6573206e6f7420686176652061646d696e2070726976696c65676573000000000000000000000000000000000000000000a165627a7a72305820ec6c92f2e7d1a66fa75763cdde63da9ca755bb76e6edff67ce03a3437bef6a190029",
  "source": "pragma solidity ^0.5.0;\n\nimport \"./utils/SafeMath.sol\";\nimport \"./NatanStudent.sol\";\nimport \"./NatanTeacher.sol\";\n\n/** @title NatanLecture */\ncontract NatanLecture is NatanStudent, NatanTeacher {\n\n    using SafeMath for uint256;\n\n    ///@notice lecture id counter\n    uint256 public lecturesId = 0; \n\n    ///@notice list of paid lectures\n    mapping(uint => mapping(address => bool)) paidLecture; \n    ///@notice list of recorded lectures on IPFS    \n    mapping(uint => bytes) recordedLecture;             \n    ///@notice list of lectures owners       \n    mapping(uint => mapping(address => bool)) accessLecture;\n\n    event lecturePaid(address indexed teacher, address indexed student, uint256 lectureId);    \n\n    /**\n     * @dev generate lecture id\n     * @return lecturesId lecture id\n     */\n    function generateLectureId() public returns (uint256) {\n        lecturesId = lecturesId.add(1);\n        return lecturesId;\n    }\n\n    /**\n     * @dev pay for lecture\n     * @param _lectureId id of lecture\n     * @param _lecturePrice price of lecture\n     * @param _teacher address of the lecture's teacher\n     */\n    function payLecture(uint _lectureId, uint _lecturePrice,address _student, address _teacher) public payable {\n        require(msg.value == _lecturePrice, \"insufficient amount of ether for lecture price\");\n        require(_teacher != address(0), \"invalid teacher address\");\n        require(listedTeachers[_teacher] == 3, \"teacher not found\");\n\n        //Mark lecture paid by student\n        paidLecture[_lectureId][_student] = true;\n        //Natanedu 3% fee per lecture\n        uint natanFee = (msg.value * 3) / 100;\n        //Transfer 97% to teacher balance\n        teacherBalance[_teacher] += msg.value - natanFee;\n\n        emit lecturePaid(_teacher, _student, _lectureId);\n    }\n\n    /**\n     * @dev store IPFS hash of a recorded lecture\n     * @param _lectureId id of lecture\n     * @param _ipfsHash IPFS hash\n     */\n    function saveRecordedLecture(uint _lectureId, bytes memory _ipfsHash) internal {\n        recordedLecture[_lectureId] = _ipfsHash;\n        //restrict lecture access\n        accessLecture[_lectureId][msg.sender] = true;\n    }\n\n    /**\n     * @dev get IPFS hash of a recorded lecture\n     * @param _lectureId id of lecture\n     * @return IPFS hash\n     */\n    function getRecordedLecture(uint _lectureId) internal view returns(bytes memory) {\n        require(accessLecture[_lectureId][msg.sender], \"no permission to access this lecture\");\n        return recordedLecture[_lectureId];\n    }\n\n    /**\n     * @dev tranfer money to specified teacher address\n     * @param _amount amount to transfer in Wei\n     */\n    function transfer(uint _amount) public {\n        require(listedTeachers[msg.sender] == 3, \"Teacher not authorized\");\n        require(teacherBalance[msg.sender] >= _amount, \"Teacher balance is insufficient\");\n\n        withdraw(msg.sender, _amount);\n    }\n\n}\n",
  "sourcePath": "/home/haythem96/Projects/Blockchain/Projects/Natanedu/smartcontractsdemo/contracts/NatanLecture.sol",
  "compiler": {
    "name": "solc",
    "version": "0.5.0+commit.1d4f565a.Emscripten.clang"
  },
  "schemaVersion": "3.0.1",
  "updatedAt": "2019-01-26T18:21:34.035Z",
  "devdoc": {
    "methods": {
      "blackListStudent(address)": {
        "details": "blacklist student",
        "params": {
          "_studentAdd": "address of student"
        }
      },
      "blackListTeacher(address)": {
        "details": "blacklist a teacher",
        "params": {
          "_teacherAdd": "address of teacher"
        }
      },
      "generateLectureId()": {
        "details": "generate lecture id",
        "return": "lecturesId lecture id"
      },
      "getByLanguage(string)": {
        "details": "function that return teachers address for a specific language",
        "params": {
          "_language": "specific language"
        },
        "return": "list of teachers addresses"
      },
      "getByTopic(string)": {
        "details": "function that return teachers address for a specific topic",
        "params": {
          "_topic": "specific topic"
        },
        "return": "list of teachers addresses"
      },
      "getByTopicLanguage(string,string)": {
        "details": "function that return teachers address for a specific topic and language",
        "params": {
          "_language": "specific language",
          "_topic": "specific topic"
        },
        "return": "list of teachers addresses"
      },
      "getTeachersCount()": {
        "details": "function that return number of teachers registered",
        "return": "number of teachers"
      },
      "payLecture(uint256,uint256,address,address)": {
        "details": "pay for lecture",
        "params": {
          "_lectureId": "id of lecture",
          "_lecturePrice": "price of lecture",
          "_teacher": "address of the lecture's teacher"
        }
      },
      "registerStudent(address,string,string)": {
        "details": "register student",
        "params": {
          "_add": "student address",
          "_lastName": "student last name",
          "_name": "student name"
        }
      },
      "registerTeacher(address,string,string,string,string,string,uint256,uint256)": {
        "details": "register teacher",
        "params": {
          "_add": "teacher address",
          "_lastName": "teacher last name",
          "_name": "teacher name",
          "_region": "teacher region",
          "_topic": "teacher topic"
        }
      },
      "renounceOwnership()": {
        "details": "Allows the current owner to relinquish control of the contract."
      },
      "transfer(uint256)": {
        "details": "tranfer money to specified teacher address",
        "params": {
          "_amount": "amount to transfer in Wei"
        }
      },
      "whiteListStudent(address)": {
        "details": "whitelist student",
        "params": {
          "_studentAdd": "address of student"
        }
      },
      "whiteListTeacher(address)": {
        "details": "whitelist a teacher",
        "params": {
          "_teacherAdd": "address of teacher"
        }
      }
    },
    "title": "NatanLecture "
  },
  "userdoc": {
    "methods": {}
  }
}