{
  "contractName": "NatanLecture",
  "abi": [
    {
      "constant": true,
      "inputs": [
        {
          "name": "",
          "type": "address"
        }
      ],
      "name": "owners",
      "outputs": [
        {
          "name": "",
          "type": "bool"
        }
      ],
      "payable": false,
      "stateMutability": "view",
      "type": "function",
      "signature": "0x022914a7"
    },
    {
      "constant": true,
      "inputs": [
        {
          "name": "_topic",
          "type": "string"
        }
      ],
      "name": "getByTopic",
      "outputs": [
        {
          "name": "",
          "type": "address[]"
        }
      ],
      "payable": false,
      "stateMutability": "view",
      "type": "function",
      "signature": "0x0284ef38"
    },
    {
      "constant": false,
      "inputs": [
        {
          "name": "_teacherAdd",
          "type": "address"
        }
      ],
      "name": "whiteListTeacher",
      "outputs": [],
      "payable": false,
      "stateMutability": "nonpayable",
      "type": "function",
      "signature": "0x0909e248"
    },
    {
      "constant": false,
      "inputs": [
        {
          "name": "_add",
          "type": "address"
        },
        {
          "name": "_name",
          "type": "string"
        },
        {
          "name": "_lastName",
          "type": "string"
        },
        {
          "name": "_region",
          "type": "string"
        },
        {
          "name": "_topic",
          "type": "string"
        },
        {
          "name": "_language",
          "type": "string"
        },
        {
          "name": "_minPrice",
          "type": "uint256"
        },
        {
          "name": "_maxPrice",
          "type": "uint256"
        }
      ],
      "name": "registerTeacher",
      "outputs": [],
      "payable": false,
      "stateMutability": "nonpayable",
      "type": "function",
      "signature": "0x2667b14a"
    },
    {
      "constant": false,
      "inputs": [
        {
          "name": "_add",
          "type": "address"
        },
        {
          "name": "_name",
          "type": "string"
        },
        {
          "name": "_lastName",
          "type": "string"
        }
      ],
      "name": "registerStudent",
      "outputs": [],
      "payable": false,
      "stateMutability": "nonpayable",
      "type": "function",
      "signature": "0x2ae7b900"
    },
    {
      "constant": true,
      "inputs": [
        {
          "name": "",
          "type": "uint256"
        }
      ],
      "name": "studentsAddress",
      "outputs": [
        {
          "name": "",
          "type": "address"
        }
      ],
      "payable": false,
      "stateMutability": "view",
      "type": "function",
      "signature": "0x499ab700"
    },
    {
      "constant": true,
      "inputs": [
        {
          "name": "",
          "type": "uint256"
        }
      ],
      "name": "teachersAddress",
      "outputs": [
        {
          "name": "",
          "type": "address"
        }
      ],
      "payable": false,
      "stateMutability": "view",
      "type": "function",
      "signature": "0x4f2be468"
    },
    {
      "constant": false,
      "inputs": [
        {
          "name": "_teacherAdd",
          "type": "address"
        }
      ],
      "name": "blackListTeacher",
      "outputs": [],
      "payable": false,
      "stateMutability": "nonpayable",
      "type": "function",
      "signature": "0x63bad5ca"
    },
    {
      "constant": false,
      "inputs": [],
      "name": "renounceOwnership",
      "outputs": [],
      "payable": false,
      "stateMutability": "nonpayable",
      "type": "function",
      "signature": "0x715018a6"
    },
    {
      "constant": false,
      "inputs": [
        {
          "name": "_studentAdd",
          "type": "address"
        }
      ],
      "name": "blackListStudent",
      "outputs": [],
      "payable": false,
      "stateMutability": "nonpayable",
      "type": "function",
      "signature": "0x72383696"
    },
    {
      "constant": true,
      "inputs": [
        {
          "name": "",
          "type": "address"
        }
      ],
      "name": "listedTeachers",
      "outputs": [
        {
          "name": "",
          "type": "uint256"
        }
      ],
      "payable": false,
      "stateMutability": "view",
      "type": "function",
      "signature": "0x7f72e4d2"
    },
    {
      "constant": true,
      "inputs": [
        {
          "name": "_language",
          "type": "string"
        }
      ],
      "name": "getByLanguage",
      "outputs": [
        {
          "name": "",
          "type": "address[]"
        }
      ],
      "payable": false,
      "stateMutability": "view",
      "type": "function",
      "signature": "0x928a0276"
    },
    {
      "constant": true,
      "inputs": [
        {
          "name": "",
          "type": "address"
        }
      ],
      "name": "listedStudents",
      "outputs": [
        {
          "name": "",
          "type": "uint256"
        }
      ],
      "payable": false,
      "stateMutability": "view",
      "type": "function",
      "signature": "0x9549af3e"
    },
    {
      "constant": true,
      "inputs": [],
      "name": "getStudentsCount",
      "outputs": [
        {
          "name": "",
          "type": "uint256"
        }
      ],
      "payable": false,
      "stateMutability": "view",
      "type": "function",
      "signature": "0x9828cd15"
    },
    {
      "constant": true,
      "inputs": [
        {
          "name": "",
          "type": "address"
        }
      ],
      "name": "students",
      "outputs": [
        {
          "name": "firstName",
          "type": "string"
        },
        {
          "name": "lastName",
          "type": "string"
        }
      ],
      "payable": false,
      "stateMutability": "view",
      "type": "function",
      "signature": "0xa6c807a9"
    },
    {
      "constant": true,
      "inputs": [
        {
          "name": "",
          "type": "address"
        }
      ],
      "name": "teacherBalance",
      "outputs": [
        {
          "name": "",
          "type": "uint256"
        }
      ],
      "payable": false,
      "stateMutability": "view",
      "type": "function",
      "signature": "0xaa1db8f6"
    },
    {
      "constant": true,
      "inputs": [],
      "name": "getTeachersCount",
      "outputs": [
        {
          "name": "",
          "type": "uint256"
        }
      ],
      "payable": false,
      "stateMutability": "view",
      "type": "function",
      "signature": "0xaace7180"
    },
    {
      "constant": true,
      "inputs": [],
      "name": "lecturesId",
      "outputs": [
        {
          "name": "",
          "type": "uint256"
        }
      ],
      "payable": false,
      "stateMutability": "view",
      "type": "function",
      "signature": "0xdd317fde"
    },
    {
      "constant": false,
      "inputs": [
        {
          "name": "_studentAdd",
          "type": "address"
        }
      ],
      "name": "whiteListStudent",
      "outputs": [],
      "payable": false,
      "stateMutability": "nonpayable",
      "type": "function",
      "signature": "0xe49a5ab8"
    },
    {
      "constant": true,
      "inputs": [
        {
          "name": "",
          "type": "address"
        }
      ],
      "name": "teachers",
      "outputs": [
        {
          "name": "firstName",
          "type": "string"
        },
        {
          "name": "lastName",
          "type": "string"
        },
        {
          "name": "region",
          "type": "string"
        },
        {
          "name": "topic",
          "type": "string"
        },
        {
          "name": "language",
          "type": "string"
        },
        {
          "name": "minPrice",
          "type": "uint256"
        },
        {
          "name": "maxPrice",
          "type": "uint256"
        }
      ],
      "payable": false,
      "stateMutability": "view",
      "type": "function",
      "signature": "0xf0a47f78"
    },
    {
      "constant": true,
      "inputs": [
        {
          "name": "_topic",
          "type": "string"
        },
        {
          "name": "_language",
          "type": "string"
        }
      ],
      "name": "getByTopicLanguage",
      "outputs": [
        {
          "name": "",
          "type": "address[]"
        }
      ],
      "payable": false,
      "stateMutability": "view",
      "type": "function",
      "signature": "0xffcc563c"
    },
    {
      "anonymous": false,
      "inputs": [
        {
          "indexed": true,
          "name": "teacher",
          "type": "address"
        },
        {
          "indexed": true,
          "name": "student",
          "type": "address"
        },
        {
          "indexed": false,
          "name": "lectureId",
          "type": "uint256"
        }
      ],
      "name": "lecturePaid",
      "type": "event",
      "signature": "0x0d6bf6e43205c432532b19e5291ba088ae756474670de6eb826382badf833402"
    },
    {
      "anonymous": false,
      "inputs": [
        {
          "indexed": true,
          "name": "teacher",
          "type": "address"
        }
      ],
      "name": "Transfer",
      "type": "event",
      "signature": "0x2d339b1e3334d3f43e7aa6d5b1fa3ca5e4228b2dd547d1710c726019d98e53fa"
    },
    {
      "anonymous": false,
      "inputs": [
        {
          "indexed": true,
          "name": "teacher",
          "type": "address"
        }
      ],
      "name": "TeacherWhitelisted",
      "type": "event",
      "signature": "0x60809b1f44f4a1a1316cf3fc1e6b860494e214ec345ad91e5ba0254a01f5a2b1"
    },
    {
      "anonymous": false,
      "inputs": [
        {
          "indexed": true,
          "name": "teacher",
          "type": "address"
        }
      ],
      "name": "TeacherBlacklisted",
      "type": "event",
      "signature": "0x431ae4a4895e482440703d9da4a23b1bdf6055cd269d2be49db69a18e5767452"
    },
    {
      "anonymous": false,
      "inputs": [
        {
          "indexed": true,
          "name": "teacher",
          "type": "address"
        }
      ],
      "name": "RegisteredTeacher",
      "type": "event",
      "signature": "0x00899eba62073a4a8b6878c7c1f8b7453a286cf4e095fa16a43e08d5235c9c7e"
    },
    {
      "anonymous": false,
      "inputs": [
        {
          "indexed": true,
          "name": "student",
          "type": "address"
        }
      ],
      "name": "StudentRegistered",
      "type": "event",
      "signature": "0x413281c709cf2c555b5d6d90e43f841b9ed7d34daa82e221aedbb3773082fcc8"
    },
    {
      "anonymous": false,
      "inputs": [
        {
          "indexed": true,
          "name": "student",
          "type": "address"
        }
      ],
      "name": "StudentWhitelisted",
      "type": "event",
      "signature": "0x79e4f6717fda32586e7b681a3af995b1f8a0af92c8c50c0d46866962f1bb83f0"
    },
    {
      "anonymous": false,
      "inputs": [
        {
          "indexed": true,
          "name": "student",
          "type": "address"
        }
      ],
      "name": "StudentBlacklisted",
      "type": "event",
      "signature": "0xb158cb7e7ade33a18d48ec08211faabea461b04f67ac4cf80ba84e6fc54b11f0"
    },
    {
      "anonymous": false,
      "inputs": [
        {
          "indexed": true,
          "name": "previousOwner",
          "type": "address"
        }
      ],
      "name": "OwnershipRenounced",
      "type": "event",
      "signature": "0xf8df31144d9c2f0f6b59d69b8b98abd5459d07f2742c4df920b25aae33c64820"
    },
    {
      "anonymous": false,
      "inputs": [
        {
          "indexed": true,
          "name": "previousOwner",
          "type": "address"
        },
        {
          "indexed": true,
          "name": "newOwner",
          "type": "address"
        }
      ],
      "name": "OwnershipTransferred",
      "type": "event",
      "signature": "0x8be0079c531659141344cd1fd0a4f28419497f9722a3daafe3b4186f6b6457e0"
    },
    {
      "constant": false,
      "inputs": [],
      "name": "generateLectureId",
      "outputs": [
        {
          "name": "",
          "type": "uint256"
        }
      ],
      "payable": false,
      "stateMutability": "nonpayable",
      "type": "function",
      "signature": "0x9771ad28"
    },
    {
      "constant": false,
      "inputs": [
        {
          "name": "_lectureId",
          "type": "uint256"
        },
        {
          "name": "_lecturePrice",
          "type": "uint256"
        },
        {
          "name": "_student",
          "type": "address"
        },
        {
          "name": "_teacher",
          "type": "address"
        }
      ],
      "name": "payLecture",
      "outputs": [],
      "payable": true,
      "stateMutability": "payable",
      "type": "function",
      "signature": "0x70690a72"
    },
    {
      "constant": false,
      "inputs": [
        {
          "name": "_amount",
          "type": "uint256"
        }
      ],
      "name": "transfer",
      "outputs": [],
      "payable": false,
      "stateMutability": "nonpayable",
      "type": "function",
      "signature": "0x12514bba"
    }
  ],
  "bytecode": "0x6080604090815260006008819055338152602081905220805460ff19166001179055613121806100306000396000f3fe60806040526004361061013d5763ffffffff7c0100000000000000000000000000000000000000000000000000000000600035041663022914a781146101425780630284ef38146101895780630909e2481461025657806312514bba1461028b5780632667b14a146102b55780632ae7b9001461059a578063499ab700146106e45780634f2be4681461072a57806363bad5ca1461075457806370690a7214610787578063715018a6146107c157806372383696146107d65780637f72e4d214610809578063928a02761461084e5780639549af3e146108cb5780639771ad28146108fe5780639828cd1514610913578063a6c807a914610928578063aa1db8f614610a39578063aace718014610a6c578063dd317fde14610a81578063e49a5ab814610a96578063f0a47f7814610ac9578063ffcc563c14610d1a575b600080fd5b34801561014e57600080fd5b506101756004803603602081101561016557600080fd5b5035600160a060020a0316610de9565b604080519115158252519081900360200190f35b34801561019557600080fd5b50610206600480360360208110156101ac57600080fd5b8101906020810181356401000000008111156101c757600080fd5b8201836020820111156101d957600080fd5b803590602001918460018302840111640100000000831117156101fb57600080fd5b509092509050610dfe565b60408051602080825283518183015283519192839290830191858101910280838360005b8381101561024257818101518382015260200161022a565b505050509050019250505060405180910390f35b34801561026257600080fd5b506102896004803603602081101561027957600080fd5b5035600160a060020a0316611295565b005b34801561029757600080fd5b50610289600480360360208110156102ae57600080fd5b503561142b565b3480156102c157600080fd5b5061028960048036036101008110156102d957600080fd5b600160a060020a03823516919081019060408101602082013564010000000081111561030457600080fd5b82018360208201111561031657600080fd5b8035906020019184600183028401116401000000008311171561033857600080fd5b91908080601f016020809104026020016040519081016040528093929190818152602001838380828437600092019190915250929594936020810193503591505064010000000081111561038b57600080fd5b82018360208201111561039d57600080fd5b803590602001918460018302840111640100000000831117156103bf57600080fd5b91908080601f016020809104026020016040519081016040528093929190818152602001838380828437600092019190915250929594936020810193503591505064010000000081111561041257600080fd5b82018360208201111561042457600080fd5b8035906020019184600183028401116401000000008311171561044657600080fd5b91908080601f016020809104026020016040519081016040528093929190818152602001838380828437600092019190915250929594936020810193503591505064010000000081111561049957600080fd5b8201836020820111156104ab57600080fd5b803590602001918460018302840111640100000000831117156104cd57600080fd5b91908080601f016020809104026020016040519081016040528093929190818152602001838380828437600092019190915250929594936020810193503591505064010000000081111561052057600080fd5b82018360208201111561053257600080fd5b8035906020019184600183028401116401000000008311171561055457600080fd5b91908080601f0160208091040260200160405190810160405280939291908181526020018383808284376000920191909152509295505082359350505060200135611506565b3480156105a657600080fd5b50610289600480360360608110156105bd57600080fd5b600160a060020a0382351691908101906040810160208201356401000000008111156105e857600080fd5b8201836020820111156105fa57600080fd5b8035906020019184600183028401116401000000008311171561061c57600080fd5b91908080601f016020809104026020016040519081016040528093929190818152602001838380828437600092019190915250929594936020810193503591505064010000000081111561066f57600080fd5b82018360208201111561068157600080fd5b803590602001918460018302840111640100000000831117156106a357600080fd5b91908080601f016020809104026020016040519081016040528093929190818152602001838380828437600092019190915250929550611746945050505050565b3480156106f057600080fd5b5061070e6004803603602081101561070757600080fd5b50356118f4565b60408051600160a060020a039092168252519081900360200190f35b34801561073657600080fd5b5061070e6004803603602081101561074d57600080fd5b503561191c565b34801561076057600080fd5b506102896004803603602081101561077757600080fd5b5035600160a060020a031661192a565b6102896004803603608081101561079d57600080fd5b50803590602081013590600160a060020a0360408201358116916060013516611ac0565b3480156107cd57600080fd5b50610289611c9f565b3480156107e257600080fd5b50610289600480360360208110156107f957600080fd5b5035600160a060020a0316611d51565b34801561081557600080fd5b5061083c6004803603602081101561082c57600080fd5b5035600160a060020a0316611ee8565b60408051918252519081900360200190f35b34801561085a57600080fd5b506102066004803603602081101561087157600080fd5b81019060208101813564010000000081111561088c57600080fd5b82018360208201111561089e57600080fd5b803590602001918460018302840111640100000000831117156108c057600080fd5b509092509050611efa565b3480156108d757600080fd5b5061083c600480360360208110156108ee57600080fd5b5035600160a060020a0316612387565b34801561090a57600080fd5b5061083c612399565b34801561091f57600080fd5b5061083c6123bb565b34801561093457600080fd5b5061095b6004803603602081101561094b57600080fd5b5035600160a060020a03166123c1565b604051808060200180602001838103835285818151815260200191508051906020019080838360005b8381101561099c578181015183820152602001610984565b50505050905090810190601f1680156109c95780820380516001836020036101000a031916815260200191505b50838103825284518152845160209182019186019080838360005b838110156109fc5781810151838201526020016109e4565b50505050905090810190601f168015610a295780820380516001836020036101000a031916815260200191505b5094505050505060405180910390f35b348015610a4557600080fd5b5061083c60048036036020811015610a5c57600080fd5b5035600160a060020a03166124fb565b348015610a7857600080fd5b5061083c61250d565b348015610a8d57600080fd5b5061083c612513565b348015610aa257600080fd5b5061028960048036036020811015610ab957600080fd5b5035600160a060020a0316612519565b348015610ad557600080fd5b50610afc60048036036020811015610aec57600080fd5b5035600160a060020a03166126b1565b60405180806020018060200180602001806020018060200188815260200187815260200186810386528d818151815260200191508051906020019080838360005b83811015610b55578181015183820152602001610b3d565b50505050905090810190601f168015610b825780820380516001836020036101000a031916815260200191505b5086810385528c5181528c516020918201918e019080838360005b83811015610bb5578181015183820152602001610b9d565b50505050905090810190601f168015610be25780820380516001836020036101000a031916815260200191505b5086810384528b5181528b516020918201918d019080838360005b83811015610c15578181015183820152602001610bfd565b50505050905090810190601f168015610c425780820380516001836020036101000a031916815260200191505b5086810383528a5181528a516020918201918c019080838360005b83811015610c75578181015183820152602001610c5d565b50505050905090810190601f168015610ca25780820380516001836020036101000a031916815260200191505b5086810382528951815289516020918201918b019080838360005b83811015610cd5578181015183820152602001610cbd565b50505050905090810190601f168015610d025780820380516001836020036101000a031916815260200191505b509c5050505050505050505050505060405180910390f35b348015610d2657600080fd5b5061020660048036036040811015610d3d57600080fd5b810190602081018135640100000000811115610d5857600080fd5b820183602082011115610d6a57600080fd5b80359060200191846001830284011164010000000083111715610d8c57600080fd5b919390929091602081019035640100000000811115610daa57600080fd5b820183602082011115610dbc57600080fd5b80359060200191846001830284011164010000000083111715610dde57600080fd5b5090925090506129ae565b60006020819052908152604090205460ff1681565b606080600580549050604051908082528060200260200182016040528015610e30578160200160208202803883390190505b5090506000805b60055481101561128b57610e49612fbf565b60046000600584815481101515610e5c57fe5b600091825260208083209190910154600160a060020a031683528281019390935260409182019020815181546002610100600183161581026000190190921604601f81018690049095028201810190935260e081018481529093919284928491840182828015610f0d5780601f10610ee257610100808354040283529160200191610f0d565b820191906000526020600020905b815481529060010190602001808311610ef057829003601f168201915b50505050508152602001600182018054600181600116156101000203166002900480601f016020809104026020016040519081016040528092919081815260200182805460018160011615610100020316600290048015610faf5780601f10610f8457610100808354040283529160200191610faf565b820191906000526020600020905b815481529060010190602001808311610f9257829003601f168201915b5050509183525050600282810180546040805160206001841615610100026000190190931694909404601f810183900483028501830190915280845293810193908301828280156110415780601f1061101657610100808354040283529160200191611041565b820191906000526020600020905b81548152906001019060200180831161102457829003601f168201915b505050918352505060038201805460408051602060026001851615610100026000190190941693909304601f81018490048402820184019092528181529382019392918301828280156110d55780601f106110aa576101008083540402835291602001916110d5565b820191906000526020600020905b8154815290600101906020018083116110b857829003601f168201915b505050918352505060048201805460408051602060026001851615610100026000190190941693909304601f81018490048402820184019092528181529382019392918301828280156111695780601f1061113e57610100808354040283529160200191611169565b820191906000526020600020905b81548152906001019060200180831161114c57829003601f168201915b5050505050815260200160058201548152602001600682015481525050905086866040516020018083838082843780830192505050925050506040516020818303038152906040528051906020012081606001516040516020018082805190602001908083835b602083106111ef5780518252601f1990920191602091820191016111d0565b6001836020036101000a03801982511681845116808217855250505050505090500191505060405160208183030381529060405280519060200120141561128257600580548390811061123e57fe5b6000918252602090912001548451600160a060020a039091169085908590811061126457fe5b600160a060020a039092166020928302909101909101526001909201915b50600101610e37565b5090949350505050565b3360009081526020819052604090205460ff161515600114611303576040805160e560020a62461bcd02815260206004820152602b60248201526000805160206130b683398151915260448201526000805160206130d6833981519152606482015290519081900360840190fd5b600160a060020a0381161515611351576040805160e560020a62461bcd02815260206004820152600f6024820152600080516020613096833981519152604482015290519081900360640190fd5b600160a060020a038116600090815260066020526040902054600114806113905750600160a060020a0381166000908152600660205260409020546002145b15156113e6576040805160e560020a62461bcd02815260206004820152601260248201527f54656163686572206e6f7420666f756e64210000000000000000000000000000604482015290519081900360640190fd5b600160a060020a03811660008181526006602052604080822060039055517f60809b1f44f4a1a1316cf3fc1e6b860494e214ec345ad91e5ba0254a01f5a2b19190a250565b33600090815260066020526040902054600314611492576040805160e560020a62461bcd02815260206004820152601660248201527f54656163686572206e6f7420617574686f72697a656400000000000000000000604482015290519081900360640190fd5b336000908152600760205260409020548111156114f9576040805160e560020a62461bcd02815260206004820152601f60248201527f546561636865722062616c616e636520697320696e73756666696369656e7400604482015290519081900360640190fd5b6115033382612ef2565b50565b600160a060020a0388161515611554576040805160e560020a62461bcd02815260206004820152600f6024820152600080516020613096833981519152604482015290519081900360640190fd5b600160a060020a038816600090815260066020526040902054156115c2576040805160e560020a62461bcd02815260206004820152601a60248201527f5465616368657220616c72656164792072656769737465726564000000000000604482015290519081900360640190fd5b6040805160e0810182528881526020808201899052818301889052606082018790526080820186905260a0820185905260c08201849052600160a060020a038b166000908152600482529290922081518051929391926116259284920190612ffd565b50602082810151805161163e9260018501920190612ffd565b506040820151805161165a916002840191602090910190612ffd565b5060608201518051611676916003840191602090910190612ffd565b5060808201518051611692916004840191602090910190612ffd565b5060a082015160058281019190915560c0909201516006918201558154600181019092557f036b6384b5eca791c62761152d0c79bb0604c104a5fb6f4eb0703f3154bb3db0909101805473ffffffffffffffffffffffffffffffffffffffff1916600160a060020a038b1690811790915560008181526020929092526040808320600390555190917e899eba62073a4a8b6878c7c1f8b7453a286cf4e095fa16a43e08d5235c9c7e91a25050505050505050565b600160a060020a0383161515611794576040805160e560020a62461bcd02815260206004820152600f6024820152600080516020613096833981519152604482015290519081900360640190fd5b600160a060020a03831660009081526003602052604090205415611802576040805160e560020a62461bcd02815260206004820152601a60248201527f53747564656e7420616c72656164792072656769737465726564000000000000604482015290519081900360640190fd5b6040805180820182528381526020808201849052600160a060020a0386166000908152600182529290922081518051929391926118429284920190612ffd565b50602082810151805161185b9260018501920190612ffd565b505060028054600181019091557f405787fa12a823e0f2b7631cc41b3ba8828b3321ca811111fa75cd3aa3bb5ace01805473ffffffffffffffffffffffffffffffffffffffff1916600160a060020a038616908117909155600081815260036020819052604080832091909155519192507f413281c709cf2c555b5d6d90e43f841b9ed7d34daa82e221aedbb3773082fcc891a2505050565b600280548290811061190257fe5b600091825260209091200154600160a060020a0316905081565b600580548290811061190257fe5b3360009081526020819052604090205460ff161515600114611998576040805160e560020a62461bcd02815260206004820152602b60248201526000805160206130b683398151915260448201526000805160206130d6833981519152606482015290519081900360840190fd5b600160a060020a03811615156119e6576040805160e560020a62461bcd02815260206004820152600f6024820152600080516020613096833981519152604482015290519081900360640190fd5b600160a060020a03811660009081526006602052604090205460031480611a255750600160a060020a0381166000908152600660205260409020546002145b1515611a7b576040805160e560020a62461bcd02815260206004820152601860248201527f54656163686572206973206e6f7420617661696c61626c650000000000000000604482015290519081900360640190fd5b600160a060020a03811660008181526006602052604080822060019055517f431ae4a4895e482440703d9da4a23b1bdf6055cd269d2be49db69a18e57674529190a250565b348314611b3d576040805160e560020a62461bcd02815260206004820152602e60248201527f696e73756666696369656e7420616d6f756e74206f6620657468657220666f7260448201527f206c656374757265207072696365000000000000000000000000000000000000606482015290519081900360840190fd5b600160a060020a0381161515611b9d576040805160e560020a62461bcd02815260206004820152601760248201527f696e76616c696420746561636865722061646472657373000000000000000000604482015290519081900360640190fd5b600160a060020a038116600090815260066020526040902054600314611c0d576040805160e560020a62461bcd02815260206004820152601160248201527f74656163686572206e6f7420666f756e64000000000000000000000000000000604482015290519081900360640190fd5b6000848152600960209081526040808320600160a060020a03868116808652918452828520805460ff1916600117905585168085526007845293829020805460646003349081029190910490819003909101909155825189815292519094919391927f0d6bf6e43205c432532b19e5291ba088ae756474670de6eb826382badf83340292908290030190a35050505050565b3360009081526020819052604090205460ff161515600114611d0d576040805160e560020a62461bcd02815260206004820152602b60248201526000805160206130b683398151915260448201526000805160206130d6833981519152606482015290519081900360840190fd5b60405133907ff8df31144d9c2f0f6b59d69b8b98abd5459d07f2742c4df920b25aae33c6482090600090a2336000908152602081905260409020805460ff19169055565b3360009081526020819052604090205460ff161515600114611dbf576040805160e560020a62461bcd02815260206004820152602b60248201526000805160206130b683398151915260448201526000805160206130d6833981519152606482015290519081900360840190fd5b600160a060020a0381161515611e0d576040805160e560020a62461bcd02815260206004820152600f6024820152600080516020613096833981519152604482015290519081900360640190fd5b600160a060020a0381166000908152600360208190526040909120541480611e4d5750600160a060020a0381166000908152600360205260409020546002145b1515611ea3576040805160e560020a62461bcd02815260206004820152601860248201527f73747564656e74206973206e6f7420617661696c61626c650000000000000000604482015290519081900360640190fd5b600160a060020a03811660008181526003602052604080822060019055517fb158cb7e7ade33a18d48ec08211faabea461b04f67ac4cf80ba84e6fc54b11f09190a250565b60066020526000908152604090205481565b606080600580549050604051908082528060200260200182016040528015611f2c578160200160208202803883390190505b5090506000805b60055481101561128b57611f45612fbf565b60046000600584815481101515611f5857fe5b600091825260208083209190910154600160a060020a031683528281019390935260409182019020815181546002610100600183161581026000190190921604601f81018690049095028201810190935260e0810184815290939192849284918401828280156120095780601f10611fde57610100808354040283529160200191612009565b820191906000526020600020905b815481529060010190602001808311611fec57829003601f168201915b50505050508152602001600182018054600181600116156101000203166002900480601f0160208091040260200160405190810160405280929190818152602001828054600181600116156101000203166002900480156120ab5780601f10612080576101008083540402835291602001916120ab565b820191906000526020600020905b81548152906001019060200180831161208e57829003601f168201915b5050509183525050600282810180546040805160206001841615610100026000190190931694909404601f8101839004830285018301909152808452938101939083018282801561213d5780601f106121125761010080835404028352916020019161213d565b820191906000526020600020905b81548152906001019060200180831161212057829003601f168201915b505050918352505060038201805460408051602060026001851615610100026000190190941693909304601f81018490048402820184019092528181529382019392918301828280156121d15780601f106121a6576101008083540402835291602001916121d1565b820191906000526020600020905b8154815290600101906020018083116121b457829003601f168201915b505050918352505060048201805460408051602060026001851615610100026000190190941693909304601f81018490048402820184019092528181529382019392918301828280156122655780601f1061223a57610100808354040283529160200191612265565b820191906000526020600020905b81548152906001019060200180831161224857829003601f168201915b5050505050815260200160058201548152602001600682015481525050905086866040516020018083838082843780830192505050925050506040516020818303038152906040528051906020012081608001516040516020018082805190602001908083835b602083106122eb5780518252601f1990920191602091820191016122cc565b6001836020036101000a03801982511681845116808217855250505050505090500191505060405160208183030381529060405280519060200120141561237e57600580548390811061233a57fe5b6000918252602090912001548451600160a060020a039091169085908590811061236057fe5b600160a060020a039092166020928302909101909101526001909201915b50600101611f33565b60036020526000908152604090205481565b6008546000906123b090600163ffffffff612f9a16565b600881905590505b90565b60025490565b60016020818152600092835260409283902080548451600294821615610100026000190190911693909304601f81018390048302840183019094528383529283918301828280156124535780601f1061242857610100808354040283529160200191612453565b820191906000526020600020905b81548152906001019060200180831161243657829003601f168201915b505050505090806001018054600181600116156101000203166002900480601f0160208091040260200160405190810160405280929190818152602001828054600181600116156101000203166002900480156124f15780601f106124c6576101008083540402835291602001916124f1565b820191906000526020600020905b8154815290600101906020018083116124d457829003601f168201915b5050505050905082565b60076020526000908152604090205481565b60055490565b60085481565b3360009081526020819052604090205460ff161515600114612587576040805160e560020a62461bcd02815260206004820152602b60248201526000805160206130b683398151915260448201526000805160206130d6833981519152606482015290519081900360840190fd5b600160a060020a03811615156125d5576040805160e560020a62461bcd02815260206004820152600f6024820152600080516020613096833981519152604482015290519081900360640190fd5b600160a060020a038116600090815260036020526040902054600114806126145750600160a060020a0381166000908152600360205260409020546002145b151561266a576040805160e560020a62461bcd02815260206004820152601260248201527f53747564656e74206e6f7420666f756e64210000000000000000000000000000604482015290519081900360640190fd5b600160a060020a038116600081815260036020819052604080832091909155517f79e4f6717fda32586e7b681a3af995b1f8a0af92c8c50c0d46866962f1bb83f09190a250565b60046020908152600091825260409182902080548351601f600260001961010060018616150201909316929092049182018490048402810184019094528084529092918391908301828280156127485780601f1061271d57610100808354040283529160200191612748565b820191906000526020600020905b81548152906001019060200180831161272b57829003601f168201915b505050505090806001018054600181600116156101000203166002900480601f0160208091040260200160405190810160405280929190818152602001828054600181600116156101000203166002900480156127e65780601f106127bb576101008083540402835291602001916127e6565b820191906000526020600020905b8154815290600101906020018083116127c957829003601f168201915b50505060028085018054604080516020601f60001961010060018716150201909416959095049283018590048502810185019091528181529596959450909250908301828280156128785780601f1061284d57610100808354040283529160200191612878565b820191906000526020600020905b81548152906001019060200180831161285b57829003601f168201915b5050505060038301805460408051602060026001851615610100026000190190941693909304601f81018490048402820184019092528181529495949350908301828280156129085780601f106128dd57610100808354040283529160200191612908565b820191906000526020600020905b8154815290600101906020018083116128eb57829003601f168201915b5050505060048301805460408051602060026001851615610100026000190190941693909304601f81018490048402820184019092528181529495949350908301828280156129985780601f1061296d57610100808354040283529160200191612998565b820191906000526020600020905b81548152906001019060200180831161297b57829003601f168201915b5050505050908060050154908060060154905087565b6060806005805490506040519080825280602002602001820160405280156129e0578160200160208202803883390190505b5090506000805b600554811015612ee6576129f9612fbf565b60046000600584815481101515612a0c57fe5b600091825260208083209190910154600160a060020a031683528281019390935260409182019020815181546002610100600183161581026000190190921604601f81018690049095028201810190935260e081018481529093919284928491840182828015612abd5780601f10612a9257610100808354040283529160200191612abd565b820191906000526020600020905b815481529060010190602001808311612aa057829003601f168201915b50505050508152602001600182018054600181600116156101000203166002900480601f016020809104026020016040519081016040528092919081815260200182805460018160011615610100020316600290048015612b5f5780601f10612b3457610100808354040283529160200191612b5f565b820191906000526020600020905b815481529060010190602001808311612b4257829003601f168201915b5050509183525050600282810180546040805160206001841615610100026000190190931694909404601f81018390048302850183019091528084529381019390830182828015612bf15780601f10612bc657610100808354040283529160200191612bf1565b820191906000526020600020905b815481529060010190602001808311612bd457829003601f168201915b505050918352505060038201805460408051602060026001851615610100026000190190941693909304601f8101849004840282018401909252818152938201939291830182828015612c855780601f10612c5a57610100808354040283529160200191612c85565b820191906000526020600020905b815481529060010190602001808311612c6857829003601f168201915b505050918352505060048201805460408051602060026001851615610100026000190190941693909304601f8101849004840282018401909252818152938201939291830182828015612d195780601f10612cee57610100808354040283529160200191612d19565b820191906000526020600020905b815481529060010190602001808311612cfc57829003601f168201915b5050505050815260200160058201548152602001600682015481525050905088886040516020018083838082843780830192505050925050506040516020818303038152906040528051906020012081606001516040516020018082805190602001908083835b60208310612d9f5780518252601f199092019160209182019101612d80565b6001836020036101000a03801982511681845116808217855250505050505090500191505060405160208183030381529060405280519060200120148015612e86575086866040516020018083838082843780830192505050925050506040516020818303038152906040528051906020012081608001516040516020018082805190602001908083835b60208310612e495780518252601f199092019160209182019101612e2a565b6001836020036101000a03801982511681845116808217855250505050505090500191505060405160208183030381529060405280519060200120145b15612edd576005805483908110612e9957fe5b6000918252602090912001548451600160a060020a0390911690859085908110612ebf57fe5b600160a060020a039092166020928302909101909101526001909201915b506001016129e7565b50909695505050505050565b604051600160a060020a0383169082156108fc029083906000818181858888f19350505050158015612f28573d6000803e3d6000fd5b50600160a060020a038216600090815260076020526040902054612f52908263ffffffff612fad16565b600160a060020a03831660008181526007602052604080822093909355915190917f2d339b1e3334d3f43e7aa6d5b1fa3ca5e4228b2dd547d1710c726019d98e53fa91a25050565b81810182811015612fa757fe5b92915050565b600082821115612fb957fe5b50900390565b60e060405190810160405280606081526020016060815260200160608152602001606081526020016060815260200160008152602001600081525090565b828054600181600116156101000203166002900490600052602060002090601f016020900481019282601f1061303e57805160ff191683800117855561306b565b8280016001018555821561306b579182015b8281111561306b578251825591602001919060010190613050565b5061307792915061307b565b5090565b6123b891905b80821115613077576000815560010161308156fe496e76616c69642061646472657373000000000000000000000000000000000074686973206163636f756e7420646f6573206e6f7420686176652061646d696e2070726976696c65676573000000000000000000000000000000000000000000a165627a7a72305820e756431c73c1ce7016e925c977e5d7974dbdb2fad9fb1b51e58dd381455025c20029",
  "source": "pragma solidity ^0.5.0;\n\nimport \"./utils/SafeMath.sol\";\nimport \"./NatanStudent.sol\";\nimport \"./NatanTeacher.sol\";\n\n/** @title NatanLecture */\ncontract NatanLecture is NatanStudent, NatanTeacher {\n\n    using SafeMath for uint256;\n\n    ///@notice lecture id counter\n    uint256 public lecturesId = 0; \n\n    ///@notice list of paid lectures\n    mapping(uint => mapping(address => bool)) paidLecture; \n    ///@notice list of recorded lectures on IPFS    \n    mapping(uint => bytes) recordedLecture;             \n    ///@notice list of lectures owners       \n    mapping(uint => mapping(address => bool)) accessLecture;\n\n    event lecturePaid(address indexed teacher, address indexed student, uint256 lectureId);    \n\n    /**\n     * @dev generate lecture id\n     * @return lecturesId lecture id\n     */\n    function generateLectureId() public returns (uint256) {\n        lecturesId = lecturesId.add(1);\n        return lecturesId;\n    }\n\n    /**\n     * @dev pay for lecture\n     * @param _lectureId id of lecture\n     * @param _lecturePrice price of lecture\n     * @param _teacher address of the lecture's teacher\n     */\n    function payLecture(uint _lectureId, uint _lecturePrice,address _student, address _teacher) public payable {\n        require(msg.value == _lecturePrice, \"insufficient amount of ether for lecture price\");\n        require(_teacher != address(0), \"invalid teacher address\");\n        require(listedTeachers[_teacher] == 3, \"teacher not found\");\n\n        //Mark lecture paid by student\n        paidLecture[_lectureId][_student] = true;\n        //Natanedu 3% fee per lecture\n        uint natanFee = (msg.value * 3) / 100;\n        //Transfer 97% to teacher balance\n        teacherBalance[_teacher] += msg.value - natanFee;\n\n        emit lecturePaid(_teacher, _student, _lectureId);\n    }\n\n    /**\n     * @dev store IPFS hash of a recorded lecture\n     * @param _lectureId id of lecture\n     * @param _ipfsHash IPFS hash\n     */\n    function saveRecordedLecture(uint _lectureId, bytes memory _ipfsHash) internal {\n        recordedLecture[_lectureId] = _ipfsHash;\n        //restrict lecture access\n        accessLecture[_lectureId][msg.sender] = true;\n    }\n\n    /**\n     * @dev get IPFS hash of a recorded lecture\n     * @param _lectureId id of lecture\n     * @return IPFS hash\n     */\n    function getRecordedLecture(uint _lectureId) internal view returns(bytes memory) {\n        require(accessLecture[_lectureId][msg.sender], \"no permission to access this lecture\");\n        return recordedLecture[_lectureId];\n    }\n\n    /**\n     * @dev tranfer money to specified teacher address\n     * @param _amount amount to transfer in Wei\n     */\n    function transfer(uint _amount) public {\n        require(listedTeachers[msg.sender] == 3, \"Teacher not authorized\");\n        require(teacherBalance[msg.sender] >= _amount, \"Teacher balance is insufficient\");\n\n        withdraw(msg.sender, _amount);\n    }\n\n}\n",
  "sourcePath": "/home/haythem96/Projects/Blockchain/Projects/Natanedu/smartcontractsdemo/contracts/NatanLecture.sol",
  "compiler": {
    "name": "solc",
    "version": "0.5.0+commit.1d4f565a.Emscripten.clang"
  },
  "schemaVersion": "3.0.1",
  "updatedAt": "2019-02-04T15:44:02.242Z",
  "devdoc": {
    "methods": {
      "blackListStudent(address)": {
        "details": "blacklist student",
        "params": {
          "_studentAdd": "address of student"
        }
      },
      "blackListTeacher(address)": {
        "details": "blacklist a teacher",
        "params": {
          "_teacherAdd": "address of teacher"
        }
      },
      "generateLectureId()": {
        "details": "generate lecture id",
        "return": "lecturesId lecture id"
      },
      "getByLanguage(string)": {
        "details": "function that return teachers address for a specific language",
        "params": {
          "_language": "specific language"
        },
        "return": "list of teachers addresses"
      },
      "getByTopic(string)": {
        "details": "function that return teachers address for a specific topic",
        "params": {
          "_topic": "specific topic"
        },
        "return": "list of teachers addresses"
      },
      "getByTopicLanguage(string,string)": {
        "details": "function that return teachers address for a specific topic and language",
        "params": {
          "_language": "specific language",
          "_topic": "specific topic"
        },
        "return": "list of teachers addresses"
      },
      "getStudentsCount()": {
        "details": "function that return number of student registered",
        "return": "number of students"
      },
      "getTeachersCount()": {
        "details": "function that return number of teachers registered",
        "return": "number of teachers"
      },
      "payLecture(uint256,uint256,address,address)": {
        "details": "pay for lecture",
        "params": {
          "_lectureId": "id of lecture",
          "_lecturePrice": "price of lecture",
          "_teacher": "address of the lecture's teacher"
        }
      },
      "registerStudent(address,string,string)": {
        "details": "register student",
        "params": {
          "_add": "student address",
          "_lastName": "student last name",
          "_name": "student name"
        }
      },
      "registerTeacher(address,string,string,string,string,string,uint256,uint256)": {
        "details": "register teacher",
        "params": {
          "_add": "teacher address",
          "_lastName": "teacher last name",
          "_name": "teacher name",
          "_region": "teacher region",
          "_topic": "teacher topic"
        }
      },
      "renounceOwnership()": {
        "details": "Allows the current owner to relinquish control of the contract."
      },
      "transfer(uint256)": {
        "details": "tranfer money to specified teacher address",
        "params": {
          "_amount": "amount to transfer in Wei"
        }
      },
      "whiteListStudent(address)": {
        "details": "whitelist student",
        "params": {
          "_studentAdd": "address of student"
        }
      },
      "whiteListTeacher(address)": {
        "details": "whitelist a teacher",
        "params": {
          "_teacherAdd": "address of teacher"
        }
      }
    },
    "title": "NatanLecture "
  },
  "userdoc": {
    "methods": {}
  }
}