{
  "contractName": "NatanLecture",
  "abi": [
    {
      "constant": true,
      "inputs": [
        {
          "name": "",
          "type": "address"
        }
      ],
      "name": "owners",
      "outputs": [
        {
          "name": "",
          "type": "bool"
        }
      ],
      "payable": false,
      "stateMutability": "view",
      "type": "function",
      "signature": "0x022914a7"
    },
    {
      "constant": true,
      "inputs": [
        {
          "name": "_topic",
          "type": "string"
        }
      ],
      "name": "getByTopic",
      "outputs": [
        {
          "name": "",
          "type": "address[]"
        }
      ],
      "payable": false,
      "stateMutability": "view",
      "type": "function",
      "signature": "0x0284ef38"
    },
    {
      "constant": false,
      "inputs": [
        {
          "name": "_teacherAdd",
          "type": "address"
        }
      ],
      "name": "whiteListTeacher",
      "outputs": [],
      "payable": false,
      "stateMutability": "nonpayable",
      "type": "function",
      "signature": "0x0909e248"
    },
    {
      "constant": false,
      "inputs": [
        {
          "name": "_add",
          "type": "address"
        },
        {
          "name": "_name",
          "type": "string"
        },
        {
          "name": "_lastName",
          "type": "string"
        }
      ],
      "name": "registerStudent",
      "outputs": [],
      "payable": false,
      "stateMutability": "nonpayable",
      "type": "function",
      "signature": "0x2ae7b900"
    },
    {
      "constant": true,
      "inputs": [
        {
          "name": "",
          "type": "uint256"
        }
      ],
      "name": "teachersAddress",
      "outputs": [
        {
          "name": "",
          "type": "address"
        }
      ],
      "payable": false,
      "stateMutability": "view",
      "type": "function",
      "signature": "0x4f2be468"
    },
    {
      "constant": false,
      "inputs": [
        {
          "name": "_teacherAdd",
          "type": "address"
        }
      ],
      "name": "blackListTeacher",
      "outputs": [],
      "payable": false,
      "stateMutability": "nonpayable",
      "type": "function",
      "signature": "0x63bad5ca"
    },
    {
      "constant": false,
      "inputs": [],
      "name": "renounceOwnership",
      "outputs": [],
      "payable": false,
      "stateMutability": "nonpayable",
      "type": "function",
      "signature": "0x715018a6"
    },
    {
      "constant": false,
      "inputs": [
        {
          "name": "_studentAdd",
          "type": "address"
        }
      ],
      "name": "blackListStudent",
      "outputs": [],
      "payable": false,
      "stateMutability": "nonpayable",
      "type": "function",
      "signature": "0x72383696"
    },
    {
      "constant": true,
      "inputs": [
        {
          "name": "",
          "type": "address"
        }
      ],
      "name": "listedTeachers",
      "outputs": [
        {
          "name": "",
          "type": "uint256"
        }
      ],
      "payable": false,
      "stateMutability": "view",
      "type": "function",
      "signature": "0x7f72e4d2"
    },
    {
      "constant": true,
      "inputs": [
        {
          "name": "_language",
          "type": "string"
        }
      ],
      "name": "getByLanguage",
      "outputs": [
        {
          "name": "",
          "type": "address[]"
        }
      ],
      "payable": false,
      "stateMutability": "view",
      "type": "function",
      "signature": "0x928a0276"
    },
    {
      "constant": true,
      "inputs": [
        {
          "name": "",
          "type": "address"
        }
      ],
      "name": "listedStudents",
      "outputs": [
        {
          "name": "",
          "type": "uint256"
        }
      ],
      "payable": false,
      "stateMutability": "view",
      "type": "function",
      "signature": "0x9549af3e"
    },
    {
      "constant": true,
      "inputs": [
        {
          "name": "",
          "type": "address"
        }
      ],
      "name": "students",
      "outputs": [
        {
          "name": "firstName",
          "type": "string"
        },
        {
          "name": "lastName",
          "type": "string"
        }
      ],
      "payable": false,
      "stateMutability": "view",
      "type": "function",
      "signature": "0xa6c807a9"
    },
    {
      "constant": true,
      "inputs": [
        {
          "name": "",
          "type": "address"
        }
      ],
      "name": "teacherBalance",
      "outputs": [
        {
          "name": "",
          "type": "uint256"
        }
      ],
      "payable": false,
      "stateMutability": "view",
      "type": "function",
      "signature": "0xaa1db8f6"
    },
    {
      "constant": false,
      "inputs": [
        {
          "name": "_add",
          "type": "address"
        },
        {
          "name": "_name",
          "type": "string"
        },
        {
          "name": "_lastName",
          "type": "string"
        },
        {
          "name": "_region",
          "type": "string"
        },
        {
          "name": "_topic",
          "type": "string"
        },
        {
          "name": "_language",
          "type": "string"
        }
      ],
      "name": "registerTeacher",
      "outputs": [],
      "payable": false,
      "stateMutability": "nonpayable",
      "type": "function",
      "signature": "0xc7736878"
    },
    {
      "constant": true,
      "inputs": [],
      "name": "lecturesId",
      "outputs": [
        {
          "name": "",
          "type": "uint256"
        }
      ],
      "payable": false,
      "stateMutability": "view",
      "type": "function",
      "signature": "0xdd317fde"
    },
    {
      "constant": false,
      "inputs": [
        {
          "name": "_studentAdd",
          "type": "address"
        }
      ],
      "name": "whiteListStudent",
      "outputs": [],
      "payable": false,
      "stateMutability": "nonpayable",
      "type": "function",
      "signature": "0xe49a5ab8"
    },
    {
      "constant": true,
      "inputs": [
        {
          "name": "",
          "type": "address"
        }
      ],
      "name": "teachers",
      "outputs": [
        {
          "name": "firstName",
          "type": "string"
        },
        {
          "name": "lastName",
          "type": "string"
        },
        {
          "name": "region",
          "type": "string"
        },
        {
          "name": "topic",
          "type": "string"
        },
        {
          "name": "language",
          "type": "string"
        }
      ],
      "payable": false,
      "stateMutability": "view",
      "type": "function",
      "signature": "0xf0a47f78"
    },
    {
      "constant": true,
      "inputs": [
        {
          "name": "_topic",
          "type": "string"
        },
        {
          "name": "_language",
          "type": "string"
        }
      ],
      "name": "getByTopicLanguage",
      "outputs": [
        {
          "name": "",
          "type": "address[]"
        }
      ],
      "payable": false,
      "stateMutability": "view",
      "type": "function",
      "signature": "0xffcc563c"
    },
    {
      "anonymous": false,
      "inputs": [
        {
          "indexed": true,
          "name": "teacher",
          "type": "address"
        },
        {
          "indexed": true,
          "name": "student",
          "type": "address"
        },
        {
          "indexed": false,
          "name": "lectureId",
          "type": "uint256"
        }
      ],
      "name": "lecturePaid",
      "type": "event",
      "signature": "0x0d6bf6e43205c432532b19e5291ba088ae756474670de6eb826382badf833402"
    },
    {
      "anonymous": false,
      "inputs": [
        {
          "indexed": true,
          "name": "teacher",
          "type": "address"
        }
      ],
      "name": "Transfer",
      "type": "event",
      "signature": "0x2d339b1e3334d3f43e7aa6d5b1fa3ca5e4228b2dd547d1710c726019d98e53fa"
    },
    {
      "anonymous": false,
      "inputs": [
        {
          "indexed": true,
          "name": "teacher",
          "type": "address"
        }
      ],
      "name": "TeacherWhitelisted",
      "type": "event",
      "signature": "0x60809b1f44f4a1a1316cf3fc1e6b860494e214ec345ad91e5ba0254a01f5a2b1"
    },
    {
      "anonymous": false,
      "inputs": [
        {
          "indexed": true,
          "name": "teacher",
          "type": "address"
        }
      ],
      "name": "TeacherBlacklisted",
      "type": "event",
      "signature": "0x431ae4a4895e482440703d9da4a23b1bdf6055cd269d2be49db69a18e5767452"
    },
    {
      "anonymous": false,
      "inputs": [
        {
          "indexed": true,
          "name": "teacher",
          "type": "address"
        }
      ],
      "name": "RegisteredTeacher",
      "type": "event",
      "signature": "0x00899eba62073a4a8b6878c7c1f8b7453a286cf4e095fa16a43e08d5235c9c7e"
    },
    {
      "anonymous": false,
      "inputs": [
        {
          "indexed": true,
          "name": "student",
          "type": "address"
        }
      ],
      "name": "StudentRegistered",
      "type": "event",
      "signature": "0x413281c709cf2c555b5d6d90e43f841b9ed7d34daa82e221aedbb3773082fcc8"
    },
    {
      "anonymous": false,
      "inputs": [
        {
          "indexed": true,
          "name": "student",
          "type": "address"
        }
      ],
      "name": "StudentWhitelisted",
      "type": "event",
      "signature": "0x79e4f6717fda32586e7b681a3af995b1f8a0af92c8c50c0d46866962f1bb83f0"
    },
    {
      "anonymous": false,
      "inputs": [
        {
          "indexed": true,
          "name": "student",
          "type": "address"
        }
      ],
      "name": "StudentBlacklisted",
      "type": "event",
      "signature": "0xb158cb7e7ade33a18d48ec08211faabea461b04f67ac4cf80ba84e6fc54b11f0"
    },
    {
      "anonymous": false,
      "inputs": [
        {
          "indexed": true,
          "name": "previousOwner",
          "type": "address"
        }
      ],
      "name": "OwnershipRenounced",
      "type": "event",
      "signature": "0xf8df31144d9c2f0f6b59d69b8b98abd5459d07f2742c4df920b25aae33c64820"
    },
    {
      "anonymous": false,
      "inputs": [
        {
          "indexed": true,
          "name": "previousOwner",
          "type": "address"
        },
        {
          "indexed": true,
          "name": "newOwner",
          "type": "address"
        }
      ],
      "name": "OwnershipTransferred",
      "type": "event",
      "signature": "0x8be0079c531659141344cd1fd0a4f28419497f9722a3daafe3b4186f6b6457e0"
    },
    {
      "constant": false,
      "inputs": [],
      "name": "generateLectureId",
      "outputs": [
        {
          "name": "",
          "type": "uint256"
        }
      ],
      "payable": false,
      "stateMutability": "nonpayable",
      "type": "function",
      "signature": "0x9771ad28"
    },
    {
      "constant": false,
      "inputs": [
        {
          "name": "_lectureId",
          "type": "uint256"
        },
        {
          "name": "_lecturePrice",
          "type": "uint256"
        },
        {
          "name": "_teacher",
          "type": "address"
        }
      ],
      "name": "payLecture",
      "outputs": [],
      "payable": true,
      "stateMutability": "payable",
      "type": "function",
      "signature": "0xffc88355"
    },
    {
      "constant": false,
      "inputs": [
        {
          "name": "_amount",
          "type": "uint256"
        }
      ],
      "name": "transfer",
      "outputs": [],
      "payable": false,
      "stateMutability": "nonpayable",
      "type": "function",
      "signature": "0x12514bba"
    }
  ],
  "bytecode": "0x6080604090815260006007819055338152602081905220805460ff19166001179055612fb0806100306000396000f3fe60806040526004361061011c5763ffffffff7c0100000000000000000000000000000000000000000000000000000000600035041663022914a781146101215780630284ef38146101685780630909e2481461023557806312514bba1461026a5780632ae7b900146102945780634f2be468146103de57806363bad5ca14610424578063715018a614610457578063723836961461046c5780637f72e4d21461049f578063928a0276146104e45780639549af3e146105615780639771ad2814610594578063a6c807a9146105a9578063aa1db8f6146106ba578063c7736878146106ed578063dd317fde146109cc578063e49a5ab8146109e1578063f0a47f7814610a14578063ffc8835514610c57578063ffcc563c14610c89575b600080fd5b34801561012d57600080fd5b506101546004803603602081101561014457600080fd5b5035600160a060020a0316610d58565b604080519115158252519081900360200190f35b34801561017457600080fd5b506101e56004803603602081101561018b57600080fd5b8101906020810181356401000000008111156101a657600080fd5b8201836020820111156101b857600080fd5b803590602001918460018302840111640100000000831117156101da57600080fd5b509092509050610d6d565b60408051602080825283518183015283519192839290830191858101910280838360005b83811015610221578181015183820152602001610209565b505050509050019250505060405180910390f35b34801561024157600080fd5b506102686004803603602081101561025857600080fd5b5035600160a060020a03166111f2565b005b34801561027657600080fd5b506102686004803603602081101561028d57600080fd5b5035611388565b3480156102a057600080fd5b50610268600480360360608110156102b757600080fd5b600160a060020a0382351691908101906040810160208201356401000000008111156102e257600080fd5b8201836020820111156102f457600080fd5b8035906020019184600183028401116401000000008311171561031657600080fd5b91908080601f016020809104026020016040519081016040528093929190818152602001838380828437600092019190915250929594936020810193503591505064010000000081111561036957600080fd5b82018360208201111561037b57600080fd5b8035906020019184600183028401116401000000008311171561039d57600080fd5b91908080601f016020809104026020016040519081016040528093929190818152602001838380828437600092019190915250929550611463945050505050565b3480156103ea57600080fd5b506104086004803603602081101561040157600080fd5b50356115c4565b60408051600160a060020a039092168252519081900360200190f35b34801561043057600080fd5b506102686004803603602081101561044757600080fd5b5035600160a060020a03166115ec565b34801561046357600080fd5b50610268611782565b34801561047857600080fd5b506102686004803603602081101561048f57600080fd5b5035600160a060020a0316611834565b3480156104ab57600080fd5b506104d2600480360360208110156104c257600080fd5b5035600160a060020a03166119cb565b60408051918252519081900360200190f35b3480156104f057600080fd5b506101e56004803603602081101561050757600080fd5b81019060208101813564010000000081111561052257600080fd5b82018360208201111561053457600080fd5b8035906020019184600183028401116401000000008311171561055657600080fd5b5090925090506119dd565b34801561056d57600080fd5b506104d26004803603602081101561058457600080fd5b5035600160a060020a0316611e58565b3480156105a057600080fd5b506104d2611e6a565b3480156105b557600080fd5b506105dc600480360360208110156105cc57600080fd5b5035600160a060020a0316611e8c565b604051808060200180602001838103835285818151815260200191508051906020019080838360005b8381101561061d578181015183820152602001610605565b50505050905090810190601f16801561064a5780820380516001836020036101000a031916815260200191505b50838103825284518152845160209182019186019080838360005b8381101561067d578181015183820152602001610665565b50505050905090810190601f1680156106aa5780820380516001836020036101000a031916815260200191505b5094505050505060405180910390f35b3480156106c657600080fd5b506104d2600480360360208110156106dd57600080fd5b5035600160a060020a0316611fc6565b3480156106f957600080fd5b50610268600480360360c081101561071057600080fd5b600160a060020a03823516919081019060408101602082013564010000000081111561073b57600080fd5b82018360208201111561074d57600080fd5b8035906020019184600183028401116401000000008311171561076f57600080fd5b91908080601f01602080910402602001604051908101604052809392919081815260200183838082843760009201919091525092959493602081019350359150506401000000008111156107c257600080fd5b8201836020820111156107d457600080fd5b803590602001918460018302840111640100000000831117156107f657600080fd5b91908080601f016020809104026020016040519081016040528093929190818152602001838380828437600092019190915250929594936020810193503591505064010000000081111561084957600080fd5b82018360208201111561085b57600080fd5b8035906020019184600183028401116401000000008311171561087d57600080fd5b91908080601f01602080910402602001604051908101604052809392919081815260200183838082843760009201919091525092959493602081019350359150506401000000008111156108d057600080fd5b8201836020820111156108e257600080fd5b8035906020019184600183028401116401000000008311171561090457600080fd5b91908080601f016020809104026020016040519081016040528093929190818152602001838380828437600092019190915250929594936020810193503591505064010000000081111561095757600080fd5b82018360208201111561096957600080fd5b8035906020019184600183028401116401000000008311171561098b57600080fd5b91908080601f016020809104026020016040519081016040528093929190818152602001838380828437600092019190915250929550611fd8945050505050565b3480156109d857600080fd5b506104d26121ef565b3480156109ed57600080fd5b5061026860048036036020811015610a0457600080fd5b5035600160a060020a03166121f5565b348015610a2057600080fd5b50610a4760048036036020811015610a3757600080fd5b5035600160a060020a031661238c565b60405180806020018060200180602001806020018060200186810386528b818151815260200191508051906020019080838360005b83811015610a94578181015183820152602001610a7c565b50505050905090810190601f168015610ac15780820380516001836020036101000a031916815260200191505b5086810385528a5181528a516020918201918c019080838360005b83811015610af4578181015183820152602001610adc565b50505050905090810190601f168015610b215780820380516001836020036101000a031916815260200191505b5086810384528951815289516020918201918b019080838360005b83811015610b54578181015183820152602001610b3c565b50505050905090810190601f168015610b815780820380516001836020036101000a031916815260200191505b5086810383528851815288516020918201918a019080838360005b83811015610bb4578181015183820152602001610b9c565b50505050905090810190601f168015610be15780820380516001836020036101000a031916815260200191505b50868103825287518152875160209182019189019080838360005b83811015610c14578181015183820152602001610bfc565b50505050905090810190601f168015610c415780820380516001836020036101000a031916815260200191505b509a505050505050505050505060405180910390f35b61026860048036036060811015610c6d57600080fd5b5080359060208101359060400135600160a060020a031661267d565b348015610c9557600080fd5b506101e560048036036040811015610cac57600080fd5b810190602081018135640100000000811115610cc757600080fd5b820183602082011115610cd957600080fd5b80359060200191846001830284011164010000000083111715610cfb57600080fd5b919390929091602081019035640100000000811115610d1957600080fd5b820183602082011115610d2b57600080fd5b80359060200191846001830284011164010000000083111715610d4d57600080fd5b50909250905061285d565b60006020819052908152604090205460ff1681565b606080600480549050604051908082528060200260200182016040528015610d9f578160200160208202803883390190505b5090506000805b6004548110156111e857610db8612e5c565b60036000600484815481101515610dcb57fe5b600091825260208083209190910154600160a060020a0316835282810193909352604091820190208151815460026101006001831615026000190190911604601f8101859004909402810160c090810190935260a081018481529093919284928491840182828015610e7e5780601f10610e5357610100808354040283529160200191610e7e565b820191906000526020600020905b815481529060010190602001808311610e6157829003601f168201915b50505050508152602001600182018054600181600116156101000203166002900480601f016020809104026020016040519081016040528092919081815260200182805460018160011615610100020316600290048015610f205780601f10610ef557610100808354040283529160200191610f20565b820191906000526020600020905b815481529060010190602001808311610f0357829003601f168201915b5050509183525050600282810180546040805160206001841615610100026000190190931694909404601f81018390048302850183019091528084529381019390830182828015610fb25780601f10610f8757610100808354040283529160200191610fb2565b820191906000526020600020905b815481529060010190602001808311610f9557829003601f168201915b505050918352505060038201805460408051602060026001851615610100026000190190941693909304601f81018490048402820184019092528181529382019392918301828280156110465780601f1061101b57610100808354040283529160200191611046565b820191906000526020600020905b81548152906001019060200180831161102957829003601f168201915b505050918352505060048201805460408051602060026001851615610100026000190190941693909304601f81018490048402820184019092528181529382019392918301828280156110da5780601f106110af576101008083540402835291602001916110da565b820191906000526020600020905b8154815290600101906020018083116110bd57829003601f168201915b505050505081525050905086866040516020018083838082843780830192505050925050506040516020818303038152906040528051906020012081606001516040516020018082805190602001908083835b6020831061114c5780518252601f19909201916020918201910161112d565b6001836020036101000a0380198251168184511680821785525050505050509050019150506040516020818303038152906040528051906020012014156111df57600480548390811061119b57fe5b6000918252602090912001548451600160a060020a03909116908590859081106111c157fe5b600160a060020a039092166020928302909101909101526001909201915b50600101610da6565b5090949350505050565b3360009081526020819052604090205460ff161515600114611260576040805160e560020a62461bcd02815260206004820152602b6024820152600080516020612f458339815191526044820152600080516020612f65833981519152606482015290519081900360840190fd5b600160a060020a03811615156112ae576040805160e560020a62461bcd02815260206004820152600f6024820152600080516020612f25833981519152604482015290519081900360640190fd5b600160a060020a038116600090815260056020526040902054600114806112ed5750600160a060020a0381166000908152600560205260409020546002145b1515611343576040805160e560020a62461bcd02815260206004820152601260248201527f54656163686572206e6f7420666f756e64210000000000000000000000000000604482015290519081900360640190fd5b600160a060020a03811660008181526005602052604080822060039055517f60809b1f44f4a1a1316cf3fc1e6b860494e214ec345ad91e5ba0254a01f5a2b19190a250565b336000908152600560205260409020546003146113ef576040805160e560020a62461bcd02815260206004820152601660248201527f54656163686572206e6f7420617574686f72697a656400000000000000000000604482015290519081900360640190fd5b33600090815260066020526040902054811115611456576040805160e560020a62461bcd02815260206004820152601f60248201527f546561636865722062616c616e636520697320696e73756666696369656e7400604482015290519081900360640190fd5b6114603382612d8f565b50565b600160a060020a03831615156114b1576040805160e560020a62461bcd02815260206004820152600f6024820152600080516020612f25833981519152604482015290519081900360640190fd5b600160a060020a0383166000908152600260205260409020541561151f576040805160e560020a62461bcd02815260206004820152601a60248201527f53747564656e7420616c72656164792072656769737465726564000000000000604482015290519081900360640190fd5b6040805180820182528381526020808201849052600160a060020a03861660009081526001825292909220815180519293919261155f9284920190612e8c565b5060208281015180516115789260018501920190612e8c565b505050600160a060020a038316600081815260026020819052604080832091909155517f413281c709cf2c555b5d6d90e43f841b9ed7d34daa82e221aedbb3773082fcc89190a2505050565b60048054829081106115d257fe5b600091825260209091200154600160a060020a0316905081565b3360009081526020819052604090205460ff16151560011461165a576040805160e560020a62461bcd02815260206004820152602b6024820152600080516020612f458339815191526044820152600080516020612f65833981519152606482015290519081900360840190fd5b600160a060020a03811615156116a8576040805160e560020a62461bcd02815260206004820152600f6024820152600080516020612f25833981519152604482015290519081900360640190fd5b600160a060020a038116600090815260056020526040902054600314806116e75750600160a060020a0381166000908152600560205260409020546002145b151561173d576040805160e560020a62461bcd02815260206004820152601860248201527f54656163686572206973206e6f7420617661696c61626c650000000000000000604482015290519081900360640190fd5b600160a060020a03811660008181526005602052604080822060019055517f431ae4a4895e482440703d9da4a23b1bdf6055cd269d2be49db69a18e57674529190a250565b3360009081526020819052604090205460ff1615156001146117f0576040805160e560020a62461bcd02815260206004820152602b6024820152600080516020612f458339815191526044820152600080516020612f65833981519152606482015290519081900360840190fd5b60405133907ff8df31144d9c2f0f6b59d69b8b98abd5459d07f2742c4df920b25aae33c6482090600090a2336000908152602081905260409020805460ff19169055565b3360009081526020819052604090205460ff1615156001146118a2576040805160e560020a62461bcd02815260206004820152602b6024820152600080516020612f458339815191526044820152600080516020612f65833981519152606482015290519081900360840190fd5b600160a060020a03811615156118f0576040805160e560020a62461bcd02815260206004820152600f6024820152600080516020612f25833981519152604482015290519081900360640190fd5b600160a060020a038116600090815260026020526040902054600314806119305750600160a060020a038116600090815260026020819052604090912054145b1515611986576040805160e560020a62461bcd02815260206004820152601860248201527f73747564656e74206973206e6f7420617661696c61626c650000000000000000604482015290519081900360640190fd5b600160a060020a03811660008181526002602052604080822060019055517fb158cb7e7ade33a18d48ec08211faabea461b04f67ac4cf80ba84e6fc54b11f09190a250565b60056020526000908152604090205481565b606080600480549050604051908082528060200260200182016040528015611a0f578160200160208202803883390190505b5090506000805b6004548110156111e857611a28612e5c565b60036000600484815481101515611a3b57fe5b600091825260208083209190910154600160a060020a0316835282810193909352604091820190208151815460026101006001831615026000190190911604601f8101859004909402810160c090810190935260a081018481529093919284928491840182828015611aee5780601f10611ac357610100808354040283529160200191611aee565b820191906000526020600020905b815481529060010190602001808311611ad157829003601f168201915b50505050508152602001600182018054600181600116156101000203166002900480601f016020809104026020016040519081016040528092919081815260200182805460018160011615610100020316600290048015611b905780601f10611b6557610100808354040283529160200191611b90565b820191906000526020600020905b815481529060010190602001808311611b7357829003601f168201915b5050509183525050600282810180546040805160206001841615610100026000190190931694909404601f81018390048302850183019091528084529381019390830182828015611c225780601f10611bf757610100808354040283529160200191611c22565b820191906000526020600020905b815481529060010190602001808311611c0557829003601f168201915b505050918352505060038201805460408051602060026001851615610100026000190190941693909304601f8101849004840282018401909252818152938201939291830182828015611cb65780601f10611c8b57610100808354040283529160200191611cb6565b820191906000526020600020905b815481529060010190602001808311611c9957829003601f168201915b505050918352505060048201805460408051602060026001851615610100026000190190941693909304601f8101849004840282018401909252818152938201939291830182828015611d4a5780601f10611d1f57610100808354040283529160200191611d4a565b820191906000526020600020905b815481529060010190602001808311611d2d57829003601f168201915b505050505081525050905086866040516020018083838082843780830192505050925050506040516020818303038152906040528051906020012081608001516040516020018082805190602001908083835b60208310611dbc5780518252601f199092019160209182019101611d9d565b6001836020036101000a038019825116818451168082178552505050505050905001915050604051602081830303815290604052805190602001201415611e4f576004805483908110611e0b57fe5b6000918252602090912001548451600160a060020a0390911690859085908110611e3157fe5b600160a060020a039092166020928302909101909101526001909201915b50600101611a16565b60026020526000908152604090205481565b600754600090611e8190600163ffffffff612e3716565b600781905590505b90565b60016020818152600092835260409283902080548451600294821615610100026000190190911693909304601f8101839004830284018301909452838352928391830182828015611f1e5780601f10611ef357610100808354040283529160200191611f1e565b820191906000526020600020905b815481529060010190602001808311611f0157829003601f168201915b505050505090806001018054600181600116156101000203166002900480601f016020809104026020016040519081016040528092919081815260200182805460018160011615610100020316600290048015611fbc5780601f10611f9157610100808354040283529160200191611fbc565b820191906000526020600020905b815481529060010190602001808311611f9f57829003601f168201915b5050505050905082565b60066020526000908152604090205481565b600160a060020a0386161515612026576040805160e560020a62461bcd02815260206004820152600f6024820152600080516020612f25833981519152604482015290519081900360640190fd5b600160a060020a03861660009081526005602052604090205415612094576040805160e560020a62461bcd02815260206004820152601a60248201527f5465616368657220616c72656164792072656769737465726564000000000000604482015290519081900360640190fd5b6040805160a08101825286815260208082018790528183018690526060820185905260808201849052600160a060020a0389166000908152600382529290922081518051929391926120e99284920190612e8c565b5060208281015180516121029260018501920190612e8c565b506040820151805161211e916002840191602090910190612e8c565b506060820151805161213a916003840191602090910190612e8c565b5060808201518051612156916004840191602090910190612e8c565b505060048054600181019091557f8a35acfbc15ff81a39ae7d344fd709f28e8600b4aa8c65c6b64bfe7fe36bd19b01805473ffffffffffffffffffffffffffffffffffffffff1916600160a060020a03891690811790915560008181526005602052604080822060029055519192507e899eba62073a4a8b6878c7c1f8b7453a286cf4e095fa16a43e08d5235c9c7e91a2505050505050565b60075481565b3360009081526020819052604090205460ff161515600114612263576040805160e560020a62461bcd02815260206004820152602b6024820152600080516020612f458339815191526044820152600080516020612f65833981519152606482015290519081900360840190fd5b600160a060020a03811615156122b1576040805160e560020a62461bcd02815260206004820152600f6024820152600080516020612f25833981519152604482015290519081900360640190fd5b600160a060020a038116600090815260026020526040902054600114806122f15750600160a060020a038116600090815260026020819052604090912054145b1515612347576040805160e560020a62461bcd02815260206004820152601260248201527f53747564656e74206e6f7420666f756e64210000000000000000000000000000604482015290519081900360640190fd5b600160a060020a03811660008181526002602052604080822060039055517f79e4f6717fda32586e7b681a3af995b1f8a0af92c8c50c0d46866962f1bb83f09190a250565b60036020908152600091825260409182902080548351601f600260001961010060018616150201909316929092049182018490048402810184019094528084529092918391908301828280156124235780601f106123f857610100808354040283529160200191612423565b820191906000526020600020905b81548152906001019060200180831161240657829003601f168201915b505050505090806001018054600181600116156101000203166002900480601f0160208091040260200160405190810160405280929190818152602001828054600181600116156101000203166002900480156124c15780601f10612496576101008083540402835291602001916124c1565b820191906000526020600020905b8154815290600101906020018083116124a457829003601f168201915b50505060028085018054604080516020601f60001961010060018716150201909416959095049283018590048502810185019091528181529596959450909250908301828280156125535780601f1061252857610100808354040283529160200191612553565b820191906000526020600020905b81548152906001019060200180831161253657829003601f168201915b5050505060038301805460408051602060026001851615610100026000190190941693909304601f81018490048402820184019092528181529495949350908301828280156125e35780601f106125b8576101008083540402835291602001916125e3565b820191906000526020600020905b8154815290600101906020018083116125c657829003601f168201915b5050505060048301805460408051602060026001851615610100026000190190941693909304601f81018490048402820184019092528181529495949350908301828280156126735780601f1061264857610100808354040283529160200191612673565b820191906000526020600020905b81548152906001019060200180831161265657829003601f168201915b5050505050905085565b3482146126fa576040805160e560020a62461bcd02815260206004820152602e60248201527f696e73756666696369656e7420616d6f756e74206f6620657468657220666f7260448201527f206c656374757265207072696365000000000000000000000000000000000000606482015290519081900360840190fd5b600160a060020a038116151561275a576040805160e560020a62461bcd02815260206004820152601760248201527f696e76616c696420746561636865722061646472657373000000000000000000604482015290519081900360640190fd5b600160a060020a0381166000908152600560205260409020546003146127ca576040805160e560020a62461bcd02815260206004820152601160248201527f74656163686572206e6f7420666f756e64000000000000000000000000000000604482015290519081900360640190fd5b60008381526008602090815260408083203384529091528120805460ff19166001179055606460033402600160a060020a0384166000818152600660209081526040918290208054959094043481900390950190935580518881529051939450339391927f0d6bf6e43205c432532b19e5291ba088ae756474670de6eb826382badf83340292918290030190a350505050565b60608060048054905060405190808252806020026020018201604052801561288f578160200160208202803883390190505b5090506000805b600454811015612d83576128a8612e5c565b600360006004848154811015156128bb57fe5b600091825260208083209190910154600160a060020a0316835282810193909352604091820190208151815460026101006001831615026000190190911604601f8101859004909402810160c090810190935260a08101848152909391928492849184018282801561296e5780601f106129435761010080835404028352916020019161296e565b820191906000526020600020905b81548152906001019060200180831161295157829003601f168201915b50505050508152602001600182018054600181600116156101000203166002900480601f016020809104026020016040519081016040528092919081815260200182805460018160011615610100020316600290048015612a105780601f106129e557610100808354040283529160200191612a10565b820191906000526020600020905b8154815290600101906020018083116129f357829003601f168201915b5050509183525050600282810180546040805160206001841615610100026000190190931694909404601f81018390048302850183019091528084529381019390830182828015612aa25780601f10612a7757610100808354040283529160200191612aa2565b820191906000526020600020905b815481529060010190602001808311612a8557829003601f168201915b505050918352505060038201805460408051602060026001851615610100026000190190941693909304601f8101849004840282018401909252818152938201939291830182828015612b365780601f10612b0b57610100808354040283529160200191612b36565b820191906000526020600020905b815481529060010190602001808311612b1957829003601f168201915b505050918352505060048201805460408051602060026001851615610100026000190190941693909304601f8101849004840282018401909252818152938201939291830182828015612bca5780601f10612b9f57610100808354040283529160200191612bca565b820191906000526020600020905b815481529060010190602001808311612bad57829003601f168201915b505050505081525050905088886040516020018083838082843780830192505050925050506040516020818303038152906040528051906020012081606001516040516020018082805190602001908083835b60208310612c3c5780518252601f199092019160209182019101612c1d565b6001836020036101000a03801982511681845116808217855250505050505090500191505060405160208183030381529060405280519060200120148015612d23575086866040516020018083838082843780830192505050925050506040516020818303038152906040528051906020012081608001516040516020018082805190602001908083835b60208310612ce65780518252601f199092019160209182019101612cc7565b6001836020036101000a03801982511681845116808217855250505050505090500191505060405160208183030381529060405280519060200120145b15612d7a576004805483908110612d3657fe5b6000918252602090912001548451600160a060020a0390911690859085908110612d5c57fe5b600160a060020a039092166020928302909101909101526001909201915b50600101612896565b50909695505050505050565b604051600160a060020a0383169082156108fc029083906000818181858888f19350505050158015612dc5573d6000803e3d6000fd5b50600160a060020a038216600090815260066020526040902054612def908263ffffffff612e4a16565b600160a060020a03831660008181526006602052604080822093909355915190917f2d339b1e3334d3f43e7aa6d5b1fa3ca5e4228b2dd547d1710c726019d98e53fa91a25050565b81810182811015612e4457fe5b92915050565b600082821115612e5657fe5b50900390565b60a06040519081016040528060608152602001606081526020016060815260200160608152602001606081525090565b828054600181600116156101000203166002900490600052602060002090601f016020900481019282601f10612ecd57805160ff1916838001178555612efa565b82800160010185558215612efa579182015b82811115612efa578251825591602001919060010190612edf565b50612f06929150612f0a565b5090565b611e8991905b80821115612f065760008155600101612f1056fe496e76616c69642061646472657373000000000000000000000000000000000074686973206163636f756e7420646f6573206e6f7420686176652061646d696e2070726976696c65676573000000000000000000000000000000000000000000a165627a7a723058206b86b56c2d848db4b9c8421f81e343775ad0a5dcece2d31757ce76731ef1fa930029",
  "source": "pragma solidity ^0.5.0;\n\nimport \"./utils/SafeMath.sol\";\nimport \"./NatanStudent.sol\";\nimport \"./NatanTeacher.sol\";\n\n/** @title NatanLecture */\ncontract NatanLecture is NatanStudent, NatanTeacher {\n\n    using SafeMath for uint256;\n\n    ///@notice lecture id counter\n    uint256 public lecturesId = 0; \n\n    ///@notice list of paid lectures\n    mapping(uint => mapping(address => bool)) paidLecture; \n    ///@notice list of recorded lectures on IPFS    \n    mapping(uint => bytes) recordedLecture;             \n    ///@notice list of lectures owners       \n    mapping(uint => mapping(address => bool)) accessLecture;\n\n    event lecturePaid(address indexed teacher, address indexed student, uint256 lectureId);    \n\n    /**\n     * @dev generate lecture id\n     * @return lecturesId lecture id\n     */\n    function generateLectureId() public returns (uint256) {\n        lecturesId = lecturesId.add(1);\n        return lecturesId;\n    }\n\n    /**\n     * @dev pay for lecture\n     * @param _lectureId id of lecture\n     * @param _lecturePrice price of lecture\n     * @param _teacher address of the lecture's teacher\n     */\n    function payLecture(uint _lectureId, uint _lecturePrice, address _teacher) public payable {\n        require(msg.value == _lecturePrice, \"insufficient amount of ether for lecture price\");\n        require(_teacher != address(0), \"invalid teacher address\");\n        require(listedTeachers[_teacher] == 3, \"teacher not found\");\n\n        //Mark lecture paid by student\n        paidLecture[_lectureId][msg.sender] = true;\n        //Natanedu 3% fee per lecture\n        uint natanFee = (msg.value * 3) / 100;\n        //Transfer 97% to teacher balance\n        teacherBalance[_teacher] += msg.value - natanFee;\n\n        emit lecturePaid(_teacher, msg.sender, _lectureId);\n    }\n\n    /**\n     * @dev store IPFS hash of a recorded lecture\n     * @param _lectureId id of lecture\n     * @param _ipfsHash IPFS hash\n     */\n    function saveRecordedLecture(uint _lectureId, bytes memory _ipfsHash) internal {\n        recordedLecture[_lectureId] = _ipfsHash;\n        //restrict lecture access\n        accessLecture[_lectureId][msg.sender] = true;\n    }\n\n    /**\n     * @dev get IPFS hash of a recorded lecture\n     * @param _lectureId id of lecture\n     * @return IPFS hash\n     */\n    function getRecordedLecture(uint _lectureId) internal view returns(bytes memory) {\n        require(accessLecture[_lectureId][msg.sender], \"no permission to access this lecture\");\n        return recordedLecture[_lectureId];\n    }\n\n    /**\n     * @dev tranfer money to specified teacher address\n     * @param _amount amount to transfer in Wei\n     */\n    function transfer(uint _amount) public {\n        require(listedTeachers[msg.sender] == 3, \"Teacher not authorized\");\n        require(teacherBalance[msg.sender] >= _amount, \"Teacher balance is insufficient\");\n\n        withdraw(msg.sender, _amount);\n    }\n\n}\n",
  "sourcePath": "/home/haythem96/Projects/Blockchain/Projects/Natanedu/smartcontractsdemo/contracts/NatanLecture.sol",
  "compiler": {
    "name": "solc",
    "version": "0.5.0+commit.1d4f565a.Emscripten.clang"
  },
  "schemaVersion": "3.0.1",
  "updatedAt": "2019-01-23T12:40:24.740Z",
  "devdoc": {
    "methods": {
      "blackListStudent(address)": {
        "details": "blacklist student",
        "params": {
          "_studentAdd": "address of student"
        }
      },
      "blackListTeacher(address)": {
        "details": "blacklist a teacher",
        "params": {
          "_teacherAdd": "address of teacher"
        }
      },
      "generateLectureId()": {
        "details": "generate lecture id",
        "return": "lecturesId lecture id"
      },
      "getByLanguage(string)": {
        "details": "function that return teachers address for a specific language",
        "params": {
          "_language": "specific language"
        },
        "return": "list of teachers addresses"
      },
      "getByTopic(string)": {
        "details": "function that return teachers address for a specific topic",
        "params": {
          "_topic": "specific topic"
        },
        "return": "list of teachers addresses"
      },
      "getByTopicLanguage(string,string)": {
        "details": "function that return teachers address for a specific topic and language",
        "params": {
          "_language": "specific language",
          "_topic": "specific topic"
        },
        "return": "list of teachers addresses"
      },
      "payLecture(uint256,uint256,address)": {
        "details": "pay for lecture",
        "params": {
          "_lectureId": "id of lecture",
          "_lecturePrice": "price of lecture",
          "_teacher": "address of the lecture's teacher"
        }
      },
      "registerStudent(address,string,string)": {
        "details": "register student",
        "params": {
          "_add": "student address",
          "_lastName": "student last name",
          "_name": "student name"
        }
      },
      "registerTeacher(address,string,string,string,string,string)": {
        "details": "register teacher",
        "params": {
          "_add": "teacher address",
          "_lastName": "teacher last name",
          "_name": "teacher name",
          "_region": "teacher region",
          "_topic": "teacher topic"
        }
      },
      "renounceOwnership()": {
        "details": "Allows the current owner to relinquish control of the contract."
      },
      "transfer(uint256)": {
        "details": "tranfer money to specified teacher address",
        "params": {
          "_amount": "amount to transfer in Wei"
        }
      },
      "whiteListStudent(address)": {
        "details": "whitelist student",
        "params": {
          "_studentAdd": "address of student"
        }
      },
      "whiteListTeacher(address)": {
        "details": "whitelist a teacher",
        "params": {
          "_teacherAdd": "address of teacher"
        }
      }
    },
    "title": "NatanLecture "
  },
  "userdoc": {
    "methods": {}
  }
}