{
  "contractName": "NatanTeacher",
  "abi": [
    {
      "constant": true,
      "inputs": [
        {
          "name": "",
          "type": "address"
        }
      ],
      "name": "owners",
      "outputs": [
        {
          "name": "",
          "type": "bool"
        }
      ],
      "payable": false,
      "stateMutability": "view",
      "type": "function"
    },
    {
      "constant": true,
      "inputs": [
        {
          "name": "",
          "type": "uint256"
        }
      ],
      "name": "teachersAddress",
      "outputs": [
        {
          "name": "",
          "type": "address"
        }
      ],
      "payable": false,
      "stateMutability": "view",
      "type": "function"
    },
    {
      "constant": false,
      "inputs": [],
      "name": "renounceOwnership",
      "outputs": [],
      "payable": false,
      "stateMutability": "nonpayable",
      "type": "function"
    },
    {
      "constant": true,
      "inputs": [
        {
          "name": "",
          "type": "address"
        }
      ],
      "name": "listedTeachers",
      "outputs": [
        {
          "name": "",
          "type": "uint256"
        }
      ],
      "payable": false,
      "stateMutability": "view",
      "type": "function"
    },
    {
      "constant": true,
      "inputs": [
        {
          "name": "",
          "type": "address"
        }
      ],
      "name": "teacherBalance",
      "outputs": [
        {
          "name": "",
          "type": "uint256"
        }
      ],
      "payable": false,
      "stateMutability": "view",
      "type": "function"
    },
    {
      "constant": true,
      "inputs": [
        {
          "name": "",
          "type": "address"
        }
      ],
      "name": "teachers",
      "outputs": [
        {
          "name": "firstName",
          "type": "string"
        },
        {
          "name": "lastName",
          "type": "string"
        },
        {
          "name": "region",
          "type": "string"
        },
        {
          "name": "topic",
          "type": "string"
        },
        {
          "name": "language",
          "type": "string"
        }
      ],
      "payable": false,
      "stateMutability": "view",
      "type": "function"
    },
    {
      "anonymous": false,
      "inputs": [
        {
          "indexed": true,
          "name": "teacher",
          "type": "address"
        }
      ],
      "name": "Transfer",
      "type": "event"
    },
    {
      "anonymous": false,
      "inputs": [
        {
          "indexed": true,
          "name": "teacher",
          "type": "address"
        }
      ],
      "name": "TeacherWhitelisted",
      "type": "event"
    },
    {
      "anonymous": false,
      "inputs": [
        {
          "indexed": true,
          "name": "teacher",
          "type": "address"
        }
      ],
      "name": "TeacherBlacklisted",
      "type": "event"
    },
    {
      "anonymous": false,
      "inputs": [
        {
          "indexed": true,
          "name": "teacher",
          "type": "address"
        }
      ],
      "name": "RegisteredTeacher",
      "type": "event"
    },
    {
      "anonymous": false,
      "inputs": [
        {
          "indexed": true,
          "name": "previousOwner",
          "type": "address"
        }
      ],
      "name": "OwnershipRenounced",
      "type": "event"
    },
    {
      "anonymous": false,
      "inputs": [
        {
          "indexed": true,
          "name": "previousOwner",
          "type": "address"
        },
        {
          "indexed": true,
          "name": "newOwner",
          "type": "address"
        }
      ],
      "name": "OwnershipTransferred",
      "type": "event"
    },
    {
      "constant": false,
      "inputs": [
        {
          "name": "_add",
          "type": "address"
        },
        {
          "name": "_name",
          "type": "string"
        },
        {
          "name": "_lastName",
          "type": "string"
        },
        {
          "name": "_region",
          "type": "string"
        },
        {
          "name": "_topic",
          "type": "string"
        },
        {
          "name": "_language",
          "type": "string"
        }
      ],
      "name": "registerTeacher",
      "outputs": [],
      "payable": false,
      "stateMutability": "nonpayable",
      "type": "function"
    },
    {
      "constant": false,
      "inputs": [
        {
          "name": "_teacherAdd",
          "type": "address"
        }
      ],
      "name": "whiteListTeacher",
      "outputs": [],
      "payable": false,
      "stateMutability": "nonpayable",
      "type": "function"
    },
    {
      "constant": false,
      "inputs": [
        {
          "name": "_teacherAdd",
          "type": "address"
        }
      ],
      "name": "blackListTeacher",
      "outputs": [],
      "payable": false,
      "stateMutability": "nonpayable",
      "type": "function"
    },
    {
      "constant": true,
      "inputs": [
        {
          "name": "_topic",
          "type": "string"
        }
      ],
      "name": "getByTopic",
      "outputs": [
        {
          "name": "",
          "type": "address[]"
        }
      ],
      "payable": false,
      "stateMutability": "view",
      "type": "function"
    },
    {
      "constant": true,
      "inputs": [
        {
          "name": "_language",
          "type": "string"
        }
      ],
      "name": "getByLanguage",
      "outputs": [
        {
          "name": "",
          "type": "address[]"
        }
      ],
      "payable": false,
      "stateMutability": "view",
      "type": "function"
    },
    {
      "constant": true,
      "inputs": [
        {
          "name": "_topic",
          "type": "string"
        },
        {
          "name": "_language",
          "type": "string"
        }
      ],
      "name": "getByTopicLanguage",
      "outputs": [
        {
          "name": "",
          "type": "address[]"
        }
      ],
      "payable": false,
      "stateMutability": "view",
      "type": "function"
    }
  ],
  "bytecode": "0x60806040908152336000908152602081905220805460ff1916600117905561228c8061002c6000396000f3fe6080604052600436106100b95763ffffffff7c0100000000000000000000000000000000000000000000000000000000600035041663022914a781146100be5780630284ef38146101055780630909e248146101d25780634f2be4681461020757806363bad5ca1461024d578063715018a6146102805780637f72e4d214610295578063928a0276146102da578063aa1db8f614610357578063c77368781461038a578063f0a47f7814610669578063ffcc563c146108ac575b600080fd5b3480156100ca57600080fd5b506100f1600480360360208110156100e157600080fd5b5035600160a060020a031661097b565b604080519115158252519081900360200190f35b34801561011157600080fd5b506101826004803603602081101561012857600080fd5b81019060208101813564010000000081111561014357600080fd5b82018360208201111561015557600080fd5b8035906020019184600183028401116401000000008311171561017757600080fd5b509092509050610990565b60408051602080825283518183015283519192839290830191858101910280838360005b838110156101be5781810151838201526020016101a6565b505050509050019250505060405180910390f35b3480156101de57600080fd5b50610205600480360360208110156101f557600080fd5b5035600160a060020a0316610e15565b005b34801561021357600080fd5b506102316004803603602081101561022a57600080fd5b5035610fe3565b60408051600160a060020a039092168252519081900360200190f35b34801561025957600080fd5b506102056004803603602081101561027057600080fd5b5035600160a060020a031661100b565b34801561028c57600080fd5b506102056111d8565b3480156102a157600080fd5b506102c8600480360360208110156102b857600080fd5b5035600160a060020a03166112ae565b60408051918252519081900360200190f35b3480156102e657600080fd5b50610182600480360360208110156102fd57600080fd5b81019060208101813564010000000081111561031857600080fd5b82018360208201111561032a57600080fd5b8035906020019184600183028401116401000000008311171561034c57600080fd5b5090925090506112c0565b34801561036357600080fd5b506102c86004803603602081101561037a57600080fd5b5035600160a060020a031661173b565b34801561039657600080fd5b50610205600480360360c08110156103ad57600080fd5b600160a060020a0382351691908101906040810160208201356401000000008111156103d857600080fd5b8201836020820111156103ea57600080fd5b8035906020019184600183028401116401000000008311171561040c57600080fd5b91908080601f016020809104026020016040519081016040528093929190818152602001838380828437600092019190915250929594936020810193503591505064010000000081111561045f57600080fd5b82018360208201111561047157600080fd5b8035906020019184600183028401116401000000008311171561049357600080fd5b91908080601f01602080910402602001604051908101604052809392919081815260200183838082843760009201919091525092959493602081019350359150506401000000008111156104e657600080fd5b8201836020820111156104f857600080fd5b8035906020019184600183028401116401000000008311171561051a57600080fd5b91908080601f016020809104026020016040519081016040528093929190818152602001838380828437600092019190915250929594936020810193503591505064010000000081111561056d57600080fd5b82018360208201111561057f57600080fd5b803590602001918460018302840111640100000000831117156105a157600080fd5b91908080601f01602080910402602001604051908101604052809392919081815260200183838082843760009201919091525092959493602081019350359150506401000000008111156105f457600080fd5b82018360208201111561060657600080fd5b8035906020019184600183028401116401000000008311171561062857600080fd5b91908080601f01602080910402602001604051908101604052809392919081815260200183838082843760009201919091525092955061174d945050505050565b34801561067557600080fd5b5061069c6004803603602081101561068c57600080fd5b5035600160a060020a0316611977565b60405180806020018060200180602001806020018060200186810386528b818151815260200191508051906020019080838360005b838110156106e95781810151838201526020016106d1565b50505050905090810190601f1680156107165780820380516001836020036101000a031916815260200191505b5086810385528a5181528a516020918201918c019080838360005b83811015610749578181015183820152602001610731565b50505050905090810190601f1680156107765780820380516001836020036101000a031916815260200191505b5086810384528951815289516020918201918b019080838360005b838110156107a9578181015183820152602001610791565b50505050905090810190601f1680156107d65780820380516001836020036101000a031916815260200191505b5086810383528851815288516020918201918a019080838360005b838110156108095781810151838201526020016107f1565b50505050905090810190601f1680156108365780820380516001836020036101000a031916815260200191505b50868103825287518152875160209182019189019080838360005b83811015610869578181015183820152602001610851565b50505050905090810190601f1680156108965780820380516001836020036101000a031916815260200191505b509a505050505050505050505060405180910390f35b3480156108b857600080fd5b50610182600480360360408110156108cf57600080fd5b8101906020810181356401000000008111156108ea57600080fd5b8201836020820111156108fc57600080fd5b8035906020019184600183028401116401000000008311171561091e57600080fd5b91939092909160208101903564010000000081111561093c57600080fd5b82018360208201111561094e57600080fd5b8035906020019184600183028401116401000000008311171561097057600080fd5b509092509050611c63565b60006020819052908152604090205460ff1681565b6060806002805490506040519080825280602002602001820160405280156109c2578160200160208202803883390190505b5090506000805b600254811015610e0b576109db612195565b600160006002848154811015156109ee57fe5b600091825260208083209190910154600160a060020a0316835282810193909352604091820190208151815460026101006001831615026000190190911604601f8101859004909402810160c090810190935260a081018481529093919284928491840182828015610aa15780601f10610a7657610100808354040283529160200191610aa1565b820191906000526020600020905b815481529060010190602001808311610a8457829003601f168201915b50505050508152602001600182018054600181600116156101000203166002900480601f016020809104026020016040519081016040528092919081815260200182805460018160011615610100020316600290048015610b435780601f10610b1857610100808354040283529160200191610b43565b820191906000526020600020905b815481529060010190602001808311610b2657829003601f168201915b5050509183525050600282810180546040805160206001841615610100026000190190931694909404601f81018390048302850183019091528084529381019390830182828015610bd55780601f10610baa57610100808354040283529160200191610bd5565b820191906000526020600020905b815481529060010190602001808311610bb857829003601f168201915b505050918352505060038201805460408051602060026001851615610100026000190190941693909304601f8101849004840282018401909252818152938201939291830182828015610c695780601f10610c3e57610100808354040283529160200191610c69565b820191906000526020600020905b815481529060010190602001808311610c4c57829003601f168201915b505050918352505060048201805460408051602060026001851615610100026000190190941693909304601f8101849004840282018401909252818152938201939291830182828015610cfd5780601f10610cd257610100808354040283529160200191610cfd565b820191906000526020600020905b815481529060010190602001808311610ce057829003601f168201915b505050505081525050905086866040516020018083838082843780830192505050925050506040516020818303038152906040528051906020012081606001516040516020018082805190602001908083835b60208310610d6f5780518252601f199092019160209182019101610d50565b6001836020036101000a038019825116818451168082178552505050505050905001915050604051602081830303815290604052805190602001201415610e02576002805483908110610dbe57fe5b6000918252602090912001548451600160a060020a0390911690859085908110610de457fe5b600160a060020a039092166020928302909101909101526001909201915b506001016109c9565b5090949350505050565b3360009081526020819052604090205460ff161515600114610ea7576040805160e560020a62461bcd02815260206004820152602b60248201527f74686973206163636f756e7420646f6573206e6f7420686176652061646d696e60448201527f2070726976696c65676573000000000000000000000000000000000000000000606482015290519081900360840190fd5b600160a060020a0381161515610f07576040805160e560020a62461bcd02815260206004820152600f60248201527f496e76616c696420616464726573730000000000000000000000000000000000604482015290519081900360640190fd5b600160a060020a03811660009081526003602052604090205460011480610f465750600160a060020a0381166000908152600360205260409020546002145b1515610f9c576040805160e560020a62461bcd02815260206004820152601260248201527f54656163686572206e6f7420666f756e64210000000000000000000000000000604482015290519081900360640190fd5b600160a060020a038116600081815260036020819052604080832091909155517f60809b1f44f4a1a1316cf3fc1e6b860494e214ec345ad91e5ba0254a01f5a2b19190a250565b6002805482908110610ff157fe5b600091825260209091200154600160a060020a0316905081565b3360009081526020819052604090205460ff16151560011461109d576040805160e560020a62461bcd02815260206004820152602b60248201527f74686973206163636f756e7420646f6573206e6f7420686176652061646d696e60448201527f2070726976696c65676573000000000000000000000000000000000000000000606482015290519081900360840190fd5b600160a060020a03811615156110fd576040805160e560020a62461bcd02815260206004820152600f60248201527f496e76616c696420616464726573730000000000000000000000000000000000604482015290519081900360640190fd5b600160a060020a038116600090815260036020819052604090912054148061113d5750600160a060020a0381166000908152600360205260409020546002145b1515611193576040805160e560020a62461bcd02815260206004820152601860248201527f54656163686572206973206e6f7420617661696c61626c650000000000000000604482015290519081900360640190fd5b600160a060020a03811660008181526003602052604080822060019055517f431ae4a4895e482440703d9da4a23b1bdf6055cd269d2be49db69a18e57674529190a250565b3360009081526020819052604090205460ff16151560011461126a576040805160e560020a62461bcd02815260206004820152602b60248201527f74686973206163636f756e7420646f6573206e6f7420686176652061646d696e60448201527f2070726976696c65676573000000000000000000000000000000000000000000606482015290519081900360840190fd5b60405133907ff8df31144d9c2f0f6b59d69b8b98abd5459d07f2742c4df920b25aae33c6482090600090a2336000908152602081905260409020805460ff19169055565b60036020526000908152604090205481565b6060806002805490506040519080825280602002602001820160405280156112f2578160200160208202803883390190505b5090506000805b600254811015610e0b5761130b612195565b6001600060028481548110151561131e57fe5b600091825260208083209190910154600160a060020a0316835282810193909352604091820190208151815460026101006001831615026000190190911604601f8101859004909402810160c090810190935260a0810184815290939192849284918401828280156113d15780601f106113a6576101008083540402835291602001916113d1565b820191906000526020600020905b8154815290600101906020018083116113b457829003601f168201915b50505050508152602001600182018054600181600116156101000203166002900480601f0160208091040260200160405190810160405280929190818152602001828054600181600116156101000203166002900480156114735780601f1061144857610100808354040283529160200191611473565b820191906000526020600020905b81548152906001019060200180831161145657829003601f168201915b5050509183525050600282810180546040805160206001841615610100026000190190931694909404601f810183900483028501830190915280845293810193908301828280156115055780601f106114da57610100808354040283529160200191611505565b820191906000526020600020905b8154815290600101906020018083116114e857829003601f168201915b505050918352505060038201805460408051602060026001851615610100026000190190941693909304601f81018490048402820184019092528181529382019392918301828280156115995780601f1061156e57610100808354040283529160200191611599565b820191906000526020600020905b81548152906001019060200180831161157c57829003601f168201915b505050918352505060048201805460408051602060026001851615610100026000190190941693909304601f810184900484028201840190925281815293820193929183018282801561162d5780601f106116025761010080835404028352916020019161162d565b820191906000526020600020905b81548152906001019060200180831161161057829003601f168201915b505050505081525050905086866040516020018083838082843780830192505050925050506040516020818303038152906040528051906020012081608001516040516020018082805190602001908083835b6020831061169f5780518252601f199092019160209182019101611680565b6001836020036101000a0380198251168184511680821785525050505050509050019150506040516020818303038152906040528051906020012014156117325760028054839081106116ee57fe5b6000918252602090912001548451600160a060020a039091169085908590811061171457fe5b600160a060020a039092166020928302909101909101526001909201915b506001016112f9565b60046020526000908152604090205481565b600160a060020a03861615156117ad576040805160e560020a62461bcd02815260206004820152600f60248201527f496e76616c696420616464726573730000000000000000000000000000000000604482015290519081900360640190fd5b600160a060020a0386166000908152600360205260409020541561181b576040805160e560020a62461bcd02815260206004820152601a60248201527f5465616368657220616c72656164792072656769737465726564000000000000604482015290519081900360640190fd5b6040805160a08101825286815260208082018790528183018690526060820185905260808201849052600160a060020a03891660009081526001825292909220815180519293919261187092849201906121c5565b50602082810151805161188992600185019201906121c5565b50604082015180516118a59160028401916020909101906121c5565b50606082015180516118c19160038401916020909101906121c5565b50608082015180516118dd9160048401916020909101906121c5565b5050600280546001810182557f405787fa12a823e0f2b7631cc41b3ba8828b3321ca811111fa75cd3aa3bb5ace01805473ffffffffffffffffffffffffffffffffffffffff1916600160a060020a038a169081179091556000818152600360205260408082209390935591519092507e899eba62073a4a8b6878c7c1f8b7453a286cf4e095fa16a43e08d5235c9c7e9190a2505050505050565b60016020818152600092835260409283902080548451600294821615610100026000190190911693909304601f8101839004830284018301909452838352928391830182828015611a095780601f106119de57610100808354040283529160200191611a09565b820191906000526020600020905b8154815290600101906020018083116119ec57829003601f168201915b505050505090806001018054600181600116156101000203166002900480601f016020809104026020016040519081016040528092919081815260200182805460018160011615610100020316600290048015611aa75780601f10611a7c57610100808354040283529160200191611aa7565b820191906000526020600020905b815481529060010190602001808311611a8a57829003601f168201915b50505060028085018054604080516020601f6000196101006001871615020190941695909504928301859004850281018501909152818152959695945090925090830182828015611b395780601f10611b0e57610100808354040283529160200191611b39565b820191906000526020600020905b815481529060010190602001808311611b1c57829003601f168201915b5050505060038301805460408051602060026001851615610100026000190190941693909304601f8101849004840282018401909252818152949594935090830182828015611bc95780601f10611b9e57610100808354040283529160200191611bc9565b820191906000526020600020905b815481529060010190602001808311611bac57829003601f168201915b5050505060048301805460408051602060026001851615610100026000190190941693909304601f8101849004840282018401909252818152949594935090830182828015611c595780601f10611c2e57610100808354040283529160200191611c59565b820191906000526020600020905b815481529060010190602001808311611c3c57829003601f168201915b5050505050905085565b606080600280549050604051908082528060200260200182016040528015611c95578160200160208202803883390190505b5090506000805b60025481101561218957611cae612195565b60016000600284815481101515611cc157fe5b600091825260208083209190910154600160a060020a0316835282810193909352604091820190208151815460026101006001831615026000190190911604601f8101859004909402810160c090810190935260a081018481529093919284928491840182828015611d745780601f10611d4957610100808354040283529160200191611d74565b820191906000526020600020905b815481529060010190602001808311611d5757829003601f168201915b50505050508152602001600182018054600181600116156101000203166002900480601f016020809104026020016040519081016040528092919081815260200182805460018160011615610100020316600290048015611e165780601f10611deb57610100808354040283529160200191611e16565b820191906000526020600020905b815481529060010190602001808311611df957829003601f168201915b5050509183525050600282810180546040805160206001841615610100026000190190931694909404601f81018390048302850183019091528084529381019390830182828015611ea85780601f10611e7d57610100808354040283529160200191611ea8565b820191906000526020600020905b815481529060010190602001808311611e8b57829003601f168201915b505050918352505060038201805460408051602060026001851615610100026000190190941693909304601f8101849004840282018401909252818152938201939291830182828015611f3c5780601f10611f1157610100808354040283529160200191611f3c565b820191906000526020600020905b815481529060010190602001808311611f1f57829003601f168201915b505050918352505060048201805460408051602060026001851615610100026000190190941693909304601f8101849004840282018401909252818152938201939291830182828015611fd05780601f10611fa557610100808354040283529160200191611fd0565b820191906000526020600020905b815481529060010190602001808311611fb357829003601f168201915b505050505081525050905088886040516020018083838082843780830192505050925050506040516020818303038152906040528051906020012081606001516040516020018082805190602001908083835b602083106120425780518252601f199092019160209182019101612023565b6001836020036101000a03801982511681845116808217855250505050505090500191505060405160208183030381529060405280519060200120148015612129575086866040516020018083838082843780830192505050925050506040516020818303038152906040528051906020012081608001516040516020018082805190602001908083835b602083106120ec5780518252601f1990920191602091820191016120cd565b6001836020036101000a03801982511681845116808217855250505050505090500191505060405160208183030381529060405280519060200120145b1561218057600280548390811061213c57fe5b6000918252602090912001548451600160a060020a039091169085908590811061216257fe5b600160a060020a039092166020928302909101909101526001909201915b50600101611c9c565b50909695505050505050565b60a06040519081016040528060608152602001606081526020016060815260200160608152602001606081525090565b828054600181600116156101000203166002900490600052602060002090601f016020900481019282601f1061220657805160ff1916838001178555612233565b82800160010185558215612233579182015b82811115612233578251825591602001919060010190612218565b5061223f929150612243565b5090565b61225d91905b8082111561223f5760008155600101612249565b9056fea165627a7a723058200760a72c3f0e9462d33bb1f5e4ef692d05bd123d7840ee79dba95e3d62b3388b0029",
  "source": "pragma solidity ^0.5.0;\n\n\nimport \"./utils/SafeMath.sol\";\nimport \"./utils/Control.sol\";\n\n/** @title NatanTeacher */\ncontract NatanTeacher is Control {\n\n    using SafeMath for uint256;\n\n    ///@notice teacher structure\n    struct Teacher {\n        string firstName;\n        string lastName;\n        string region;\n        string topic;\n        string language;\n    }\n\n    ///@notice List of teachers\n    mapping(address => Teacher) public teachers;\n\n    ///\n    address[] public teachersAddress;\n\n    ///@notice list of listed teachers: 1=blacklisted, 2=in process, 3=whitelisted\n    mapping(address => uint) public listedTeachers;\n\n    ///@notice list of teacher's balance\n    mapping(address => uint256) public teacherBalance;\n\n    event Transfer(address indexed teacher);\n    event TeacherWhitelisted(address indexed teacher);\n    event TeacherBlacklisted(address indexed teacher);\n    event RegisteredTeacher(address indexed teacher);\n\n    /**\n     * @dev register teacher\n     * @param _add teacher address\n     * @param _name teacher name\n     * @param _lastName teacher last name\n     * @param _region teacher region\n     * @param _topic teacher topic\n     */\n    function registerTeacher(\n        address _add,\n        string memory _name,\n        string memory _lastName,\n        string memory _region,\n        string memory _topic,\n        string memory _language\n    ) public {\n        require(_add != address(0), \"Invalid address\");\n        require(listedTeachers[_add] == 0, \"Teacher already registered\");\n\n        //add teacher\n        teachers[_add] = Teacher(_name, _lastName, _region, _topic, _language);\n        //save teacher address\n        teachersAddress.push(_add);\n        //mark teacher listing in progress\n        listedTeachers[_add] = 2;\n\n        emit RegisteredTeacher(_add);\n    }\n\n    /**\n     * @dev whitelist a teacher\n     * @param _teacherAdd address of teacher\n     */\n    function whiteListTeacher(address _teacherAdd) external onlyOwner {\n        //require valid address\n        require(_teacherAdd != address(0), \"Invalid address\");\n        require((listedTeachers[_teacherAdd] == 1) || (listedTeachers[_teacherAdd] == 2), \"Teacher not found!\");\n\n        //whitelist teacher\n        listedTeachers[_teacherAdd] = 3;\n\n        emit TeacherWhitelisted(_teacherAdd);\n    }\n\n    /**\n     * @dev blacklist a teacher\n     * @param _teacherAdd address of teacher\n     */\n    function blackListTeacher(address _teacherAdd) external onlyOwner {\n        //require valid address\n        require(_teacherAdd != address(0), \"Invalid address\");\n        //require that teacher is already whitelisted or in process\n        require((listedTeachers[_teacherAdd] == 3) || (listedTeachers[_teacherAdd] == 2), \"Teacher is not available\");\n\n        //blacklist teacher\n        listedTeachers[_teacherAdd] = 1;\n\n        emit TeacherBlacklisted(_teacherAdd);\n    }\n\n    /**\n     * @dev withdraw money\n     * @param _teacher teacher address\n     * @param _amount amount to transfer in Wei\n     */\n    function withdraw(address payable _teacher, uint _amount) internal {\n        _teacher.transfer(_amount);\n        teacherBalance[_teacher] = teacherBalance[_teacher].sub(_amount);\n\n        emit Transfer(_teacher);\n    }\n\n    /**\n     * @dev function that return teachers address for a specific topic\n     * @param _topic specific topic\n     * @return list of teachers addresses\n     */\n    function getByTopic(string calldata _topic) external view returns(address[] memory) {\n        address[] memory teacherByTopic = new address[](teachersAddress.length);\n        uint counter = 0;\n        for(uint i = 0; i < teachersAddress.length; i++) {\n            Teacher memory t = teachers[teachersAddress[i]];\n            if(keccak256(abi.encodePacked(t.topic)) == keccak256(abi.encodePacked(_topic))) {\n                teacherByTopic[counter] = teachersAddress[i];\n                counter++;\n            }\n        }\n        return teacherByTopic;\n    }\n\n    /**\n     * @dev function that return teachers address for a specific language\n     * @param _language specific language\n     * @return list of teachers addresses\n     */\n    function getByLanguage(string calldata _language) external view returns(address[] memory) {\n        address[] memory teacherByLanguage = new address[](teachersAddress.length);\n        uint counter = 0;\n        for(uint i = 0; i < teachersAddress.length; i++) {\n            Teacher memory t = teachers[teachersAddress[i]];\n            if(keccak256(abi.encodePacked(t.language)) == keccak256(abi.encodePacked(_language))) {\n                teacherByLanguage[counter] = teachersAddress[i];\n                counter++;\n            }\n        }\n        return teacherByLanguage;\n    }\n\n    /**\n     * @dev function that return teachers address for a specific topic and language\n     * @param _topic specific topic\n     * @param _language specific language\n     * @return list of teachers addresses\n     */\n    function getByTopicLanguage(string calldata _topic, string calldata _language) external view returns(address[] memory) {\n        address[] memory teachersByTopicAndLanguage = new address[](teachersAddress.length);\n        uint counter = 0;\n        for(uint i = 0; i < teachersAddress.length; i++) {\n            Teacher memory t = teachers[teachersAddress[i]];\n            if(\n                (keccak256(abi.encodePacked(t.topic)) == keccak256(abi.encodePacked(_topic))) &&\n                (keccak256(abi.encodePacked(t.language)) == keccak256(abi.encodePacked(_language)))\n            ) {\n                teachersByTopicAndLanguage[counter] = teachersAddress[i];\n                counter++;\n            }\n        }\n        return teachersByTopicAndLanguage;\n    }\n\n\n}\n",
  "sourcePath": "/home/haythem96/Projects/Blockchain/Projects/Natanedu/smartcontractsdemo/contracts/NatanTeacher.sol",
  "compiler": {
    "name": "solc",
    "version": "0.5.0+commit.1d4f565a.Emscripten.clang"
  },
  "schemaVersion": "3.0.1",
  "updatedAt": "2019-01-23T12:33:46.879Z",
  "devdoc": {
    "methods": {
      "blackListTeacher(address)": {
        "details": "blacklist a teacher",
        "params": {
          "_teacherAdd": "address of teacher"
        }
      },
      "getByLanguage(string)": {
        "details": "function that return teachers address for a specific language",
        "params": {
          "_language": "specific language"
        },
        "return": "list of teachers addresses"
      },
      "getByTopic(string)": {
        "details": "function that return teachers address for a specific topic",
        "params": {
          "_topic": "specific topic"
        },
        "return": "list of teachers addresses"
      },
      "getByTopicLanguage(string,string)": {
        "details": "function that return teachers address for a specific topic and language",
        "params": {
          "_language": "specific language",
          "_topic": "specific topic"
        },
        "return": "list of teachers addresses"
      },
      "registerTeacher(address,string,string,string,string,string)": {
        "details": "register teacher",
        "params": {
          "_add": "teacher address",
          "_lastName": "teacher last name",
          "_name": "teacher name",
          "_region": "teacher region",
          "_topic": "teacher topic"
        }
      },
      "renounceOwnership()": {
        "details": "Allows the current owner to relinquish control of the contract."
      },
      "whiteListTeacher(address)": {
        "details": "whitelist a teacher",
        "params": {
          "_teacherAdd": "address of teacher"
        }
      }
    },
    "title": "NatanTeacher "
  },
  "userdoc": {
    "methods": {}
  }
}