{
  "contractName": "Validator",
  "abi": [
    {
      "constant": false,
      "inputs": [
        {
          "name": "_lectureId",
          "type": "uint256"
        },
        {
          "name": "nonce",
          "type": "uint256"
        },
        {
          "name": "sig",
          "type": "bytes"
        }
      ],
      "name": "isSigned",
      "outputs": [],
      "payable": false,
      "stateMutability": "nonpayable",
      "type": "function",
      "signature": "0xedef8a63"
    }
  ],
  "bytecode": "0x608060405234801561001057600080fd5b50610412806100206000396000f3fe6080604052600436106100405763ffffffff7c0100000000000000000000000000000000000000000000000000000000600035041663edef8a638114610045575b600080fd5b34801561005157600080fd5b506101046004803603606081101561006857600080fd5b81359160208101359181019060608101604082013564010000000081111561008f57600080fd5b8201836020820111156100a157600080fd5b803590602001918460018302840111640100000000831117156100c357600080fd5b91908080601f016020809104026020016040519081016040528093929190818152602001838380828437600092019190915250929550610106945050505050565b005b60008281526020819052604090205460ff161561018457604080517f08c379a000000000000000000000000000000000000000000000000000000000815260206004820152601060248201527f7265706c61796564206d65737361676500000000000000000000000000000000604482015290519081900360640190fd5b600082815260208181526040808320805460ff1916600117905580516c010000000000000000000000003381028285015260348201889052605482018790523002607482015281516068818303018152608890910190915280519101206101ea9061027f565b9050336101f782846102d0565b73ffffffffffffffffffffffffffffffffffffffff161461027957604080517f08c379a000000000000000000000000000000000000000000000000000000000815260206004820181905260248201527f74686973206973206e6f7420746865206d6573736167652773207369676e6572604482015290519081900360640190fd5b50505050565b604080517f19457468657265756d205369676e6564204d6573736167653a0a333200000000602080830191909152603c8083019490945282518083039094018452605c909101909152815191012090565b6000806000806102df85610353565b604080516000815260208082018084528c905260ff8616828401526060820185905260808201849052915194975092955090935060019260a080840193601f198301929081900390910190855afa15801561033e573d6000803e3d6000fd5b5050604051601f190151979650505050505050565b6000806000835160411415156103ca57604080517f08c379a000000000000000000000000000000000000000000000000000000000815260206004820152601860248201527f696e76616c6964207369676e6174757265206c656e6774680000000000000000604482015290519081900360640190fd5b5050506020810151604082015160609092015160001a9290919056fea165627a7a72305820c8494f71f2536c333b2389cbe9b187ec40b902562fa4a4cdc8ac126bb1041c1d0029",
  "source": "pragma solidity ^0.5.0;\n\n\n/** @title Validator */\ncontract Validator {\n\n    ///@notice list of used nonces\n    mapping(uint256 => bool) usedNonces;\n\n    /**\n     * @dev generate a prefixed hash to mimic the behavior of eth_sign\n     * @param hash hashed message\n     */\n    function prefixed(bytes32 hash) internal pure returns (bytes32) {\n        return keccak256(abi.encodePacked(\"\\x19Ethereum Signed Message:\\n32\", hash));\n    }\n\n    /**\n     * @dev Check if an address signed a message\n     * @param _lectureId lecture id\n     * @param nonce random number to protect against replay attacks\n     * @param sig the signed hash\n     */\n    function isSigned(uint _lectureId, uint256 nonce, bytes memory sig) public {\n        require(!usedNonces[nonce], \"replayed message\");\n        usedNonces[nonce] = true;\n\n        // This recreates the message that was signed on the client.\n        bytes32 message = prefixed(keccak256(abi.encodePacked(msg.sender, _lectureId, nonce, this)));\n\n        require(recoverSigner(message, sig) == msg.sender, \"this is not the message's signer\");\n    }\n\n    /**\n     * @dev function to get the address of the signer who signed the message\n     * @param message the signed message\n     * @param sig the signature\n     * @return signer address\n     */\n    function recoverSigner(bytes32 message, bytes memory sig) internal pure returns (address) {\n        \n        uint8 v;\n        bytes32 r;\n        bytes32 s;\n\n        (v, r, s) = splitSignature(sig);\n\n        return ecrecover(message, v, r, s);\n    }\n\n    /**\n     * @dev Function to split the signature\n     * @param sig the signature\n     * @return bytes\n     */\n    function splitSignature(bytes memory sig) internal pure returns (uint8, bytes32, bytes32) {\n        require(sig.length == 65, \"invalid signature length\");\n        \n        bytes32 r;\n        bytes32 s;\n        uint8 v;\n\n        assembly {\n            // first 32 bytes, after the length prefix\n            r := mload(add(sig, 32))\n            // second 32 bytes\n            s := mload(add(sig, 64))\n            // final byte (first byte of the next 32 bytes)\n            v := byte(0, mload(add(sig, 96)))\n        }\n\n        return (v, r, s);\n    }\n\n\n}\n",
  "sourcePath": "/home/haythem96/Projects/Blockchain/Projects/Natanedu/smartcontractsdemo/contracts/utils/Validator.sol",
  "compiler": {
    "name": "solc",
    "version": "0.5.0+commit.1d4f565a.Emscripten.clang"
  },
  "schemaVersion": "3.0.1",
  "updatedAt": "2019-02-04T12:10:36.725Z",
  "devdoc": {
    "methods": {
      "isSigned(uint256,uint256,bytes)": {
        "details": "Check if an address signed a message",
        "params": {
          "_lectureId": "lecture id",
          "nonce": "random number to protect against replay attacks",
          "sig": "the signed hash"
        }
      }
    },
    "title": "Validator "
  },
  "userdoc": {
    "methods": {}
  }
}