{
  "contractName": "Validator",
  "abi": [
    {
      "constant": false,
      "inputs": [
        {
          "name": "_lectureId",
          "type": "uint256"
        },
        {
          "name": "nonce",
          "type": "uint256"
        },
        {
          "name": "sig",
          "type": "bytes"
        }
      ],
      "name": "isSigned",
      "outputs": [],
      "payable": false,
      "stateMutability": "nonpayable",
      "type": "function"
    }
  ],
  "bytecode": "0x608060405234801561001057600080fd5b5061046f806100206000396000f3006080604052600436106100405763ffffffff7c0100000000000000000000000000000000000000000000000000000000600035041663edef8a638114610045575b600080fd5b34801561005157600080fd5b50604080516020600460443581810135601f81018490048402850184019095528484526100a59482359460248035953695946064949201919081908401838280828437509497506100a79650505050505050565b005b60008281526020819052604081205460ff161561012557604080517f08c379a000000000000000000000000000000000000000000000000000000000815260206004820152601060248201527f7265706c61796564206d65737361676500000000000000000000000000000000604482015290519081900360640190fd5b60008381526020818152604091829020805460ff1916600117905581516c01000000000000000000000000338102828401526034820188905260548201879052300260748201528251606881830301815260889091019283905280516101e29391928291908401908083835b602083106101b05780518252601f199092019160209182019101610191565b6001836020036101000a0380198251168184511680821785525050505050509050019150506040518091039020610277565b9050336101ef8284610321565b73ffffffffffffffffffffffffffffffffffffffff161461027157604080517f08c379a000000000000000000000000000000000000000000000000000000000815260206004820181905260248201527f74686973206973206e6f7420746865206d6573736167652773207369676e6572604482015290519081900360640190fd5b50505050565b604080517f19457468657265756d205369676e6564204d6573736167653a0a333200000000602080830191909152603c80830185905283518084039091018152605c909201928390528151600093918291908401908083835b602083106102ef5780518252601f1990920191602091820191016102d0565b5181516020939093036101000a6000190180199091169216919091179052604051920182900390912095945050505050565b600080600080610330856103a8565b60408051600080825260208083018085528d905260ff8716838501526060830186905260808301859052925195985093965091945060019360a0808401949293601f19830193908390039091019190865af1158015610393573d6000803e3d6000fd5b5050604051601f190151979650505050505050565b6000806000806000808651604114151561042357604080517f08c379a000000000000000000000000000000000000000000000000000000000815260206004820152601860248201527f696e76616c6964207369676e6174757265206c656e6774680000000000000000604482015290519081900360640190fd5b505050506020830151604084015160609094015160001a949093925090505600a165627a7a723058201cbc6846c5b345ec64bb3c79bb628d1929452b34a5d241def2d81ad7eb22d98d0029",
  "source": "pragma solidity 0.4.24;\n\n\n/** @title Validator */\ncontract Validator {\n\n    ///@notice list of used nonces\n    mapping(uint256 => bool) usedNonces;\n\n    /**\n     * @dev generate a prefixed hash to mimic the behavior of eth_sign\n     * @param hash hashed message\n     */\n    function prefixed(bytes32 hash) internal pure returns (bytes32) {\n        return keccak256(abi.encodePacked(\"\\x19Ethereum Signed Message:\\n32\", hash));\n    }\n\n    /**\n     * @dev Check if an address signed a message\n     * @param _lectureId lecture id\n     * @param nonce random number to protect against replay attacks\n     * @param sig the signed hash\n     */\n    function isSigned(uint _lectureId, uint256 nonce, bytes memory sig) public {\n        require(!usedNonces[nonce], \"replayed message\");\n        usedNonces[nonce] = true;\n\n        // This recreates the message that was signed on the client.\n        bytes32 message = prefixed(keccak256(abi.encodePacked(msg.sender, _lectureId, nonce, this)));\n\n        require(recoverSigner(message, sig) == msg.sender, \"this is not the message's signer\");\n    }\n\n    /**\n     * @dev function to get the address of the signer who signed the message\n     * @param message the signed message\n     * @param sig the signature\n     * @return signer address\n     */\n    function recoverSigner(bytes32 message, bytes memory sig) internal pure returns (address) {\n        \n        uint8 v;\n        bytes32 r;\n        bytes32 s;\n\n        (v, r, s) = splitSignature(sig);\n\n        return ecrecover(message, v, r, s);\n    }\n\n    /**\n     * @dev Function to split the signature\n     * @param sig the signature\n     * @return bytes\n     */\n    function splitSignature(bytes memory sig) internal pure returns (uint8, bytes32, bytes32) {\n        require(sig.length == 65, \"invalid signature length\");\n        \n        bytes32 r;\n        bytes32 s;\n        uint8 v;\n\n        assembly {\n            // first 32 bytes, after the length prefix\n            r := mload(add(sig, 32))\n            // second 32 bytes\n            s := mload(add(sig, 64))\n            // final byte (first byte of the next 32 bytes)\n            v := byte(0, mload(add(sig, 96)))\n        }\n\n        return (v, r, s);\n    }\n\n\n}\n",
  "sourcePath": "/home/haythem96/Projects/Blockchain/Projects/Natanedu/smartcontractsdemo/contracts/utils/Validator.sol",
  "compiler": {
    "name": "solc",
    "version": "0.4.24+commit.e67f0147.Emscripten.clang"
  },
  "schemaVersion": "2.0.1",
  "updatedAt": "2018-12-04T13:44:03.914Z"
}